:020000040800F2
:1000000050890020A5010008575A0008A3380008AD
:10001000555A0008D7090008317100080000000097
:1000200000000000000000000000000079690008E6
:10003000670A000800000000350200087D6900081A
:10004000BF010008BF010008BF010008BF01000890
:10005000BF010008BF010008BF010008BF01000880
:10006000BF010008BF010008BF010008BF01000870
:10007000BF010008BF010008090A0008150A0008AE
:10008000BF010008BF010008BF010008BF01000850
:10009000BF010008BF010008BF010008BF01000840
:1000A000BF0100086D6A0008BF010008BF01000819
:1000B000BF0100080000000000000000853A0008B1
:1000C000793A0008BF010008BF010008BF0100081D
:1000D000B566000825710008BF010008BF010008CF
:1000E000BF010008BF010008000000000000000080
:1000F0000000000000000000000000000000000000
:1001000000000000A55C000800000000BF0100081E
:100110000000000000000000BF010008BF0100084F
:10012000BF010008BF010008BF010008BF010008AF
:10013000BF010008000000000000000000000000F7
:10014000BF010008BF010008BF0100080000000057
:10015000210A00082D0A0008814F0008BF0100088D
:10016000BF010008BF010008BF0100080000000037
:10017000BF010008BF0100080000000000000000EF
:10018000BF010008BF010008BF010008DFF810D060
:1001900000F086FB0048004749CC0108AFF300801F
:1001A000508900200648804706480047FEE7FEE7E2
:1001B000FEE7FEE7FEE7FEE7FEE7FEE7FEE7FEE717
:1001C0005D6A00088D01000872B63448344902683F
:1001D00041EA0201016033484FF0010101603248F9
:1001E0004168016001688A884FF0100342EA030207
:1001F0008A80D1F800C00CF1240C0CF1040CBCE88E
:10020000FF008CF309884FF0020C8CF31488AE4683
:1002100062B63047EFF3108072B67047EFF310808C
:1002200062B6704780F31088704720484FF08051C5
:1002300001607047EFF3108C72B61D4A126822B14C
:100240002DE900509047BDE80050EFF309801EF003
:10025000100F08BF20ED108B40F804ED20E9F01FCF
:10026000114D4FF010082E683060B78827EA080754
:10027000B78068682860878847EA08078780016830
:1002800000F018B851F804EB1EF0100F08BF00F092
:1002900016B881F309888CF31088704720ED00E0D0
:1002A0000000FFFF740000207800002004ED00E053
:1002B0005C00002030C9B1E8C01FFFF7E3BFB1EC1C
:1002C000088BB1EC08CBFFF7E4BF2DE9F05F0546E2
:1002D000002092469B4688460646814640241BE005
:1002E000284641464746224600F031F953465A46D1
:1002F000C01A914110D311461846224600F018F951
:100300002D1A67EB01084F4622460120002100F01C
:100310000FF917EB00094E41201EA4F10104DFDCA8
:10032000484631462A46434600F000B830BCBDE896
:10033000C09F40EA01039B0703D009E008C9121FD0
:1003400008C0042AFAD203E011F8013B00F8013B8F
:10035000521EF9D27047D2B201E000F8012B491EBB
:10036000FBD270470022F6E710B513460A46044652
:100370001946FFF7F0FF204610BD421C10F8011B84
:100380000029FBD1801A704710B5002200E0521CF2
:10039000835C8C5CA34201D1002BF8D1D8B2E1B2CE
:1003A000401A10BD30B504460020034600E05B1C37
:1003B000934203D2E05CCD5C401BF8D030BD0346D5
:1003C00011F8012B00F8012B002AF9D118467047CB
:1003D0002DE9F04D81EA030404F0004B21F00045C3
:1003E00014464FF0000A23F0004150EA050220D0E5
:1003F00054EA01021DD0C5F30A570246C5F31303A0
:10040000C1F31300C1F30A5640F4801543F480137E
:10041000A7EB0608101BD64608F2FD3873EB050063
:1004200002D308F1010801E092185B41B8F1000F16
:1004300003DA00200146BDE8F08D00204FF4801162
:10044000064684460EE0171B73EB050705D3121B07
:1004500063EB050306434CEA010C49084FEA300000
:1004600092185B4150EA0107EDD152EA030012D025
:1004700082EA040083EA0501084305D0101BAB4162
:1004800006D20122002306E000224FF0004302E0E2
:100490006FF0010253101AEB06004CEB085110EB01
:1004A0000A0041EB0B01BDE8F04D00F060B8C1F36C
:1004B0000A52C1F3130140F2FF3341F480119A4212
:1004C00002DA00200146704740F233439A42A2F21A
:1004D000334202DC524200F03AB800F029B800F092
:1004E000004230F000400AD0C10D01F56071C0F348
:1004F000160042EA0151C20840071143704700202C
:100500000146704730B50B460146002020220124E9
:1005100009E021FA02F59D4205D303FA02F5491BD1
:1005200004FA02F52844151EA2F10102F1DC30BDE7
:10053000202A04DB203A00FA02F1002070479140A3
:10054000C2F1200320FA03F3194390407047202A98
:1005500004DB203A21FA02F00021704721FA02F36D
:10056000D040C2F12002914008431946704710B5AF
:10057000141E73F1000408DA401C41F100019218C6
:100580005B411A4301D120F0010010BD2DE9F04D6F
:1005900092469B4611B1B1FA81F202E0B0FA80F2C4
:1005A00020329046FFF7C4FF04460F4640EA0A0097
:1005B00041EA0B0153465A46084313D0114653EA09
:1005C000010019D0C8F140025046FFF7C0FF0546B0
:1005D0000E46504659464246FFF7AAFF084305D04B
:1005E000012004E020463946BDE8F08D0020054397
:1005F00046EAE0762C4337430A986305E40AA0EB09
:1006000008000022FD0A44EA47540A3002D50020BF
:100610000146E9E7010510196941DDE908450019BE
:100620006941BDE8F04DA2E72DE9FE4F804681EA21
:100630000300C00F0C46009021F0004123F000455C
:10064000B8EB0200A94105D24046214690461C461F
:100650000B46024623F00040104347D0270DC7F356
:100660000A00C3F30A510290401A019040286BDA45
:10067000C3F3130040F4801B0098924620B100237E
:10068000D2EB030A63EB0B0B01985946C0F1400211
:100690005046FFF74DFF06460D4650465946019A13
:1006A00000F010F910EB08006141002487EA1152B4
:1006B00084EAE7731A4340D0009A62B3019A012A90
:1006C0004FEA075215DC001B61EB02014FF00042BC
:1006D00002EA0752CDE90042001C41F58011324682
:1006E0002B46FFF753FF03B000F045B840462146C4
:1006F000F9E7001B61EB0201001C41F580130018B3
:100700005B412018A2F5001747EB030140EAD570C2
:10071000B6196D4111E06D084FEA360645EAC0751D
:100720004FEA0752001B61EB0201001C41F58011EA
:1007300049084FEA30000019514132462B4603B0B8
:1007400000F01CB8FFF713BF0098012240000023FF
:10075000D0EB020263EBE073009821464FEAE074AD
:10076000B8EB000061EB0401E9E783F000435BE7CD
:1007700081F0004158E730BCBDE8C08F30BCBDE817
:10078000C04FFFF7DFBF2DE9FE4F81EA030404F0FD
:10079000004421F0004100944FF0000B23F000438F
:1007A00050EA01045ED052EA03045BD0C3F30A545A
:1007B000C1F30A552C44A4F2F3340194A0FB025473
:1007C000C1F3130141F48011C3F3130343F4801305
:1007D00001FB024400FB034E840A970A44EA815459
:1007E00047EA8357A4FB076802958D0A05FB078536
:1007F0004FEA932C04FB0C542705029D4FEA065840
:1008000047EA1637B5EB08056EEB070C870E920E1C
:1008100047EA811742EA8312A7FB0201B6EB0B01FC
:1008200064EB00042B0D43EA0C335E1844EB1C50C0
:10083000DA465146E7FB0201C5F313044FEA0B33D6
:1008400043EA14534FEA0432019C43EA0603A4F13D
:100850000C040294009CCDE900B4FFF797FE03B0AE
:1008600000F003B800200146F9E730BCBDE8C08FB6
:1008700030B5041E71F1000404DB4FF00044404227
:1008800064EB0101141E73F1000405DB1C464FF0FC
:100890000043524263EB0403994208BF904230BDCB
:1008A000064C074D06E0E06840F0010394E80700BD
:1008B00098471034AC42F6D3FFF76CFC446D030844
:1008C000646D0308202A06DBCB17203A41FA02F0B8
:1008D00043EAE07306E041FA02F3D040C2F120029D
:1008E000914008431946704770B58C1810F8015BA9
:1008F00015F0070301D110F8013B2A1106D110F8B9
:10090000012B03E010F8016B01F8016B5B1EF9D1BC
:100910002B0705D40023521E0DD401F8013BFAE742
:1009200010F8013BCB1A921C03E013F8015B01F8AD
:10093000015B521EF9D5A142D8D3002070BD70478B
:100940000146014801F0FCBD1C05002010B504481B
:1009500001F008FE042801D0012010BD002010BDC8
:100960001C05002010B500F00BF8012801D0022072
:1009700010BDBDE81040014801F00ABF1C05002071
:1009800008B501208DF800009DF8000008BD0000AA
:1009900038B50024009313460A460146034801F087
:1009A000C1FF00B10124204638BD00001C05002015
:1009B0007047000038B50024009313460A460146EC
:1009C000034802F0A7F800B10124204638BD00001A
:1009D0001C0500207047FEE730B50346002208469C
:1009E0003124995C48400021050602D584EA400084
:1009F00000E04000491CC9B2C0B20829F4D3521C1F
:100A0000D2B2022AEDD330BD014800F0A2B80000F6
:100A1000D4040020014800F09CB800000406002027
:100A2000014800F096B8000044040020014800F09E
:100A300090B800008C04002030B590F8444004F0D9
:100A40001C050124AC40056C6C600468636083681D
:100A5000102B036803D099600068C26030BD9A60B3
:100A60000068C16030BD704772B6FEE7002200F03A
:100A700001B8000030B50E4B054601205C7A002C11
:100A800014D1587A1C54587A03EB800045605D7A83
:100A900003F108002A54587A421C5A723030087008
:100AA0003A2048702F208870CC70002030BD0000A4
:100AB0004479002010B590F825100022022905D0B5
:100AC0000421C16380F82420012010BD01680B6857
:100AD00023F00E030B6001680B6823F001030B6029
:100AE00090F84410012401F01C0304FA03F1036C94
:100AF000596080F8254080F82420104610BD10B5BC
:100B000090F825100024022903D00421C163012498
:100B10001AE001680A6822F00E020A6001680A6899
:100B200022F001020A6090F84410012301F01C0237
:100B300003FA02F1026C516080F82530002180F840
:100B40002410816B01B18847204610BD90F8250024
:100B50007047F0B4016C0B6801680A6890F8444073
:100B6000042504F01C0405FA04F61E4211D05607B1
:100B70000FD50A68920603D40A6822F004020A60BC
:100B800090F8441001F01C018D40016C4D60016B28
:100B90001DE0022606FA04F71F424FF0000C4FF04A
:100BA000010518D0970716D50A68920605D40A6879
:100BB00022F00A020A6080F8255090F8441001F0F3
:100BC0001C018E40016C4E6080F824C0C16A00296F
:100BD0001AD0F0BC08470826A6401E4214D01207BF
:100BE00012D50A6822F00E020A6090F84410026CD6
:100BF00001F01C0105FA01F15160C56380F8255030
:100C000080F824C0416BE2E7F0BC704770B568B172
:100C1000334C01681423334AA14209D2324C0C44AC
:100C2000B4FBF3F39B00C0E910230BE0012070BD7F
:100C30002B4C64420C44B4FBF3F39B004364284BFD
:100C4000083B0364022380F825300C6847F6F073F4
:100C50009C43D0E902352B43D0E9045635432B435E
:100C600085692B43C5692B43056A2B4323430B60DE
:100C70008168B1F5804F29D0016C0F23914212D1C8
:100C800052F8A81F90F8444004F01C04A340994374
:100C9000116090F84430416803F01C0399401368D8
:100CA0001943116012E00E49A0310A6890F84440DF
:100CB00004F01C04A3409A430A6090F84430426850
:100CC00003F01C039A400B681A430A600021C163B9
:100CD000012280F8252080F82410084670BD00000D
:100CE0000804024000000240F8FFFDBF70B5044652
:100CF00090F82400002501280CD0012084F824005D
:100D000094F825600020012E06D084F824000225E6
:100D1000284670BD022070BD022684F82560E0637D
:100D20002068066826F0010606602046FFF784FE6C
:100D3000206B00282068016802D041F00E0106E017
:100D400021F0040101602068016841F00A0101609E
:100D50002068016841F001010160D9E770B50446DF
:100D600000F0F0F80546601C02D004480078044406
:100D700000F0E8F8401BA042FAD370BD2400002028
:100D80002DE9F84FDFF880910022A9F1040B032729
:100D90004FF00F0C09F1040AABF1040EACE0012591
:100DA00095402B4073D00C7904F00304012C01D042
:100DB000022C15D18668540007FA04F826EA0806C2
:100DC000D1F80C8008FA04F848EA0608C0F8088050
:100DD0004468AC430D79C5F3001595402543456043
:100DE0000C79E443A40708D0C568540007FA04F658
:100DF000B5438E68A6402E43C6600C7904F0030408
:100E0000022C11D1D40800EB8406356A5407E40E95
:100E10000CFA04F825EA0805D1F8108008FA04F85D
:100E200048EA0508C6F820800568540007FA04F669
:100E3000B5430E7906F00306A6402E4306604C68C3
:100E400014F4403F57D0314C256E45F0010525661E
:100E5000246E22F0030504F0010400942C4C05EBF1
:100E60000408D8F808509407260F0CFA06F4A54396
:100E7000B0F1904F04D0274CA04203D1012412E0DE
:100E8000002410E0244CA04202D102240BE032E006
:100E9000224CA04201D1032405E0214CA04201D103
:100EA000042400E00724B4402C43C8F80840D9F8D3
:100EB00000404D464E689C43F60200D51C432C6012
:100EC000DAF8004055464E689C43B60200D51C43F4
:100ED0002C60DBF800405D464E689C43B60300D5AD
:100EE0001C432C60DEF8004075464E689C43F603B8
:100EF00000D51C432C60521C0B6833FA02F47FF4BB
:100F00004EAF00F00FB8000008040140001002408E
:100F1000000001400004004800080048000C0048A0
:100F20000010004818BCBDE8E08F426921EA0203C6
:100F30000A4043EA0241816170470AB1816170470A
:100F400081627047014880687047000024000020DB
:100F500090F84120202A24D190F84020012A20D066
:100F6000012280F84020242280F841200268136882
:100F700023F0010313600268136823F480531360A5
:100F8000026813680B43136001680A6842F00102AB
:100F90000A60202180F84110002180F840100846A6
:100FA00070470220704790F84120202A22D190F803
:100FB0004020012A1ED0012280F84020242280F8FF
:100FC00041200268136823F001031360026813686C
:100FD00023F4706343EA0121116001680A6842F05A
:100FE00001020A60202180F84110002180F84010A1
:100FF00008467047022070477047704730B4036856
:101000009A691968D243D40509D4CC43240606D47E
:10101000446C44F0010444644FF48074DC61530573
:101020000AD4CB431B0607D4436C43F00803436444
:1010300004684FF48063E36192050AD4C94309064A
:1010400007D4416C41F00201416402684FF4007121
:10105000D161416C11F00B0F02D030BC02F0AABD7F
:1010600030BC7047026891691268436B002B00D056
:10107000184770477047000070B5040004D094F81A
:101080004100002510B106E0012070BD84F84050F9
:10109000204600F07BF9242084F841002068016894
:1010A00021F0010101606068216820F07060086132
:1010B0002068816821F400418160E0680128A0680F
:1010C00007D040F4044021688860E068022803D01B
:1010D00006E040F40040F6E721684FF40060486005
:1010E00020684168114A114341602068C16821F4B9
:1010F0000041C160D4E904010843A16940EA01202C
:101100002168C860D4E907010843216808602068A5
:10111000016841F0010101606564202084F841000C
:10112000256384F84250002070BD0000008000025A
:10113000704700002DE9F84F044690F84100DDF8B3
:1011400028A01F4690468B4620287ED194F8400068
:1011500001287AD0012084F84000FFF7F3FE06460C
:10116000012200901923D103204602F0EAFFE0BBE0
:10117000222084F84100102084F842000025656494
:10118000C4F8248067856563618D3148FF274FF07F
:1011900080784FF00079FF2903D927853A460090DF
:1011A00039E0618D218500903AE05946204602F0F1
:1011B0009BFF13E002F0F2FFB8B92068406A616A51
:1011C0000870606A401C6062208D401E80B22085DD
:1011D000618D491E6185618D01B168B1608D3246B6
:1011E000002851462046E5D100E002E003F026F851
:1011F000D0B1012000F030B85346002280212046B3
:10120000009602F09EFF0028F3D1608DFF2804D9DC
:1012100027853A4600954346C7E7608D20850095AF
:1012200094F828204B46C0E720682021C16120683F
:101230004268084B1A40426084F8411084F84250DA
:1012400084F840500020D5E7FFE70220D2E70000F5
:101250000024008000E800FE18BCBDE8E08F00001C
:101260002DE9F84F044690F84100DDF828A01F460C
:1012700090468B4620287ED194F8400001287AD0F1
:10128000012084F84000FFF75DFE06460122009031
:101290001923D103204602F054FFE0BB212084F83B
:1012A0004100102084F8420000256564C4F82480C1
:1012B00067856563618D3148FF274FF080784FF077
:1012C0000079FF2903D927853A46009039E0618DDE
:1012D000218500903AE05946204602F005FF13E0D0
:1012E00002F0D2FFB8B9606A216800788862606A4B
:1012F000401C6062608D401E6085208D401E80B263
:101300002085618D01B168B1608D3246002851465B
:101310002046E5D100E002E002F090FFD0B10120CC
:1013200000F030B85346002280212046009602F09B
:1013300008FF0028F3D1608DFF2804D927853A469D
:1013400000954346C7E7608D2085009594F82820D6
:101350004B46C0E720682021C16120684268084BE5
:101360001A40426084F8411084F8425084F840509A
:101370000020D5E7FFE70220D2E700000020008030
:1013800000E800FE18BCBDE8E08F000010B586B094
:10139000044614216846FEF7E5FF1A492068884292
:1013A0002ED1194CE06C40F00200E064E06C69461C
:1013B00000F002000590C020009012200190012052
:1013C000029003200390042004901048FFF7D8FCFB
:1013D000A06D40F40010A065A06D002200F4001084
:1013E000059011461F2000F08BF81F2000F07AF8BE
:1013F00000221146202000F083F8202000F072F82F
:1014000006B010BD00540040001002400004004827
:1014100070477047024881680278114481607047C4
:101420002400002010B50024032000F089F80020DB
:1014300000F008F808B1012401E000F03DF8204672
:1014400010BD000000B5014687B00022192000F051
:1014500057F8192000F046F81348016E41F4006176
:101460000166006E05A900F400600690684600F071
:1014700053FC00F083FC0D490D4AB0FBF1F10D481F
:10148000491E0260416040F2E7320021C0E90321B9
:10149000816001F011FE10B1012007B000BD0548C8
:1014A00001F03CFEF9E700000010024040420F004E
:1014B000002C01404C060020094808B5016E41F09F
:1014C00001010166016E01F001010091816D41F0A1
:1014D00080518165806D00F08050009008BD000053
:1014E00000100240002809DB00F01F02012191409A
:1014F0004009800000F1E020C0F8001170470000B2
:10150000F0B40E4B1B68C3F30223C3F10704042C91
:1015100000D904241D1D072D01D2002300E0DB1E8D
:10152000012606FA04F56D1E0D409D409E40761E74
:10153000164045EA0601F0BC05F020BE0CED00E0C7
:10154000064A00F0070110684FF6FF03184040EA12
:101550000120034908431060704700000CED00E0D3
:101560000000FA051649B0F5007F0868C0F3412075
:1015700009D0022805D0086820F4C06040F48060DB
:101580000860002070470128FBD0086820F4C06084
:1015900040F4007008600B483222006850430A4A49
:1015A000B0FBF2F0401C00E0401E4A69520501D534
:1015B0000028F9D148694005E3D5032070470000B1
:1015C000007000403000002040420F0002480068D8
:1015D00000F4C06070470000007000402DE9F05F2B
:1015E00002460020C24B4FF4FA484FF40045B2F5D2
:1015F000003F0DD0D968F02601F00301DFF8F4C2F6
:10160000BD4C012923D0022933D003293BD135E039
:10161000D3F8901001F44071B1F5807F0BD0B1F593
:10162000007F0ED0B1F5407F03D11968890300D542
:10163000B24800F069B9D3F890108907F9D5284667
:10164000F7E7D3F894108907F3D54046F1E7196816
:10165000890718D51968090703D5196801F0F00141
:1016600003E0D3F8941006EA111109095CF821107F
:101670000AE01968490506D5214605E0196889037D
:1016800001D59F4900E000214FF480694FF4804A62
:101690004FF4802B4FF4002E4FF40067B2F5007F1B
:1016A00078D027DC202A76D011DC012A74D0022AD7
:1016B00073D0042ABDD1D3F8881011F030016DD059
:1016C00010292AD0202914D03029B2D1B3E7402ADA
:1016D00079D0802A78D0B2F5807FAAD1D3F888104B
:1016E00011F440315AD0B1F5803F16D0B1F5003F2A
:1016F0009FD1F3E0AA4268D010DC4A4578D0BA42C4
:1017000029D0524595D1D3F8882002F04052B2F149
:10171000805F6ED0B2F1405F8BD1B6E05A4501D008
:10172000724586D1D3F8882012F040624ED0B2F1D3
:10173000806F34D0B2F1006F1AD0B2F1406F85D112
:10174000196889077FF57CAF1868000708D5186805
:1017500000F0F00008E0384600F0D9B804F07CB999
:10176000D3F8940006EA101000095CF8200060E746
:101770001A689201FBD5DA68D202F8D5D868C0F3AE
:1017800006204143D868C0F30210401CB1FBF0F0C2
:10179000D96815E07DE03DE01EE02FE0A3E01A6887
:1017A0001201E4D51A69D202E1D51869C0F3062006
:1017B0004143D868C0F30210401CB1FBF0F0196936
:1017C000C1F3415146E04AE055E07FE0D3F898107C
:1017D0008907CCD54B482CE7D3F8881011F00301CA
:1017E00008D0012951D0022978D00329BFD122E79E
:1017F0005DE01CE000F090B800F0C0BAD3F88810AB
:1018000011F00C0170D004293FD0082966D00C29B2
:10181000ADD110E7D3F8881011F4406164D0494588
:1018200033D0B9425AD0B1F5406FA0D103E71A685E
:1018300012019CD51A69D20199D51869C0F3062006
:101840004143D868C0F30210401CB1FBF0F01969A5
:10185000C1F34161491C4900B0FBF1F0E9E6D3F85E
:10186000881011F440513FD0B1F5805F0DD0B1F533
:10187000005FB0D132E0D3F8881011F4404133D08A
:10188000514502D0A942A6D128E000F04AB800F0A4
:1018900087BAD3F8881011F4402125D059453FF478
:1018A000D0AE71451AD0B1F5402F94D1C3E6D3F82C
:1018B000881011F4401117D0B1F5801FEFD0B1F5A9
:1018C000001F0BD0B1F5401F85D1B4E6D3F88810C6
:1018D00011F0804108D0B1F1804FBFD1196849059E
:1018E000BCD52046A5E6FFE700F020B800F034BAEA
:1018F00000100240C41402080024F40090D0030039
:1019000000127A00006CDC0230BCBDE8C09F30BC25
:10191000BDE8C05FFFF722BF30BCBDE8C05FFFF786
:101920006BBF30BCBDE8C05FFFF7B1BF30BCBDE8E6
:10193000C05FFFF7DBBF00002DE9F84F044600252C
:101940000088A64E2F46000515D5606C60B1B0F535
:10195000000F04D0B0F5400F2BD001250AE0F0684D
:1019600040F48030F06024E00021201D04F0C8F82D
:1019700005001ED02F462068800365D5B06D4FF05E
:101980000009C00009D4B06D40F08050B065B06D62
:101990004FF0010900F080500090DFF844A2DAF81F
:1019A000001041F48071CAF80010FFF7CBFA8046AE
:1019B00010E0D6F88800616C20F440000843C6F8B7
:1019C0008800D8E7FFF7BEFAA0EB0800022801D98B
:1019D000032531E0DAF80000C005F3D565BBD6F881
:1019E000900010F4407014D0A16D814211D0D6F84F
:1019F0009000D6F8901020F4407041F48031C6F881
:101A00009010D6F8901021F48031C6F89010C6F8E6
:101A10009000C0074ED0FFF795FA804641F2883A11
:101A200005E0FFF78FFAA0EB08015145D0D8D6F8B2
:101A300090008007F5D5EDB32F46B9F1000F03D024
:101A4000B06D20F08050B0652078C00707D0D6F880
:101A50008800216A20F003000843C6F88800207837
:101A6000800707D5D6F88800616A20F00C0008438B
:101A7000C6F888002078400707D5D6F88800A16A04
:101A800020F030000843C6F888002078800607D58B
:101A9000D6F88800E16A20F440600843C6F8880060
:101AA0002088800509D5D6F88800E16B20F4402015
:101AB000084300E044E0C6F888002088400507D5C8
:101AC000D6F88800216C20F440100843C6F888003E
:101AD0002078400607D5D6F88800216B20F44050C6
:101AE0000843C6F888002078000607D5D6F8880095
:101AF000616B20F440400843C6F888002088C00588
:101B000007D5D6F88800A16B20F440300843C6F80A
:101B1000880020684FF0006500034FF0806820D5F2
:101B2000D6F88800A16C20F040600843C6F8880011
:101B3000A06CA8420DD1F06840F48010F06010E075
:101B4000D6F89000A16D20F440700843C6F89000CC
:101B500073E7404505D10121201D03F0D1FF00B1FD
:101B600007462068400317D5D6F88800E16C20F0BE
:101B700040600843C6F88800E06CA84204D1F068D1
:101B800040F48010F06007E0404505D10121201DA0
:101B900003F0B6FF00B107462088400411D5D6F8FF
:101BA0008800216D20F040500843C6F88800206D61
:101BB000B0F1805F05D10221201D03F0A1FF00B12B
:101BC00007462088000406D556F8880F616D20F07E
:101BD000804008433060384600F004B800100240EE
:101BE0000070004018BCBDE8E08F00002DE9F04710
:101BF0000D4604005ED0DFF80C81D8F8000000F03C
:101C00000700A8420CD2D8F8001021F007012943A0
:101C1000C8F80010D8F8000000F00700A84249D129
:101C20002078394EC0072BD06068032811D00228D5
:101C300012D0316898B1490500293BDAB16821F02A
:101C400003010143B160FFF77DF9074641F288398E
:101C50000FE031688901EFE731688903ECE7890714
:101C6000EAE7FFF76FF9C11B494502D90320BDE838
:101C7000F087B068616800F00C00B0EB810FF0D124
:101C80002078800705D5B068A16820F0F0000843EF
:101C9000B060D8F80010404601F00701A9420BD906
:101CA000016821F0070129430160006800F0070086
:101CB000A84201D00120DAE72078400705D5B068B6
:101CC000E16820F4E0600843B0602078000706D5A2
:101CD000B068216920F4605040EAC100B06000F0B3
:101CE0005FF8B168094AC1F30311515C01F01F01AB
:101CF000C8400749086007480068BDE8F047FFF79B
:101D0000A1BB00000020024000100240B4140208F1
:101D100030000020280000200F2202600C4A936847
:101D200003F003034360936803F0F0038360936858
:101D300003F4E063C36092684FF4E06303EAD20205
:101D400002610448006800F0070008607047000066
:101D500000100240002002400548064900688968DA
:101D6000054AC1F30221515C01F01F01C8407047D0
:101D70003000002000100240F41402080548064913
:101D800000688968054AC1F3C221515C01F01F0156
:101D9000C84070473000002000100240F4140208D0
:101DA00070B5254B002210469968DC6811F00C01D3
:101DB00004F00306214C4FEA640508D00C2904D036
:101DC000042931D0082931D010E0012E10D11A6831
:101DD000120704D4D3F89420C2F3032202E01A6855
:101DE000C2F30312164E56F82220D9B10C2918D18D
:101DF000D86800F0030002281AD003281AD0104631
:101E0000D968DA68C1F30211C2F306224243491CC1
:101E1000B2FBF1F0D968C1F34161491C4900B0FB44
:101E2000F1F070BD104670BD204670BD284670BDF3
:101E30002046E5E72846E3E7001002400024F400CE
:101E4000C41402082DE9F84304006FD0FC4EB068BA
:101E500000F00C05F06800F003072078C00664D598
:101E600075B10C2D01D1012F0AD0A069002830686E
:101E700079D040F001003060FFF764F880465CE004
:101E80003068800702D5A0690028DED0216A30685A
:101E9000000703D5306800F0F00004E0D6F89400A5
:101EA000F02202EA1010814216D9084603F0BCFE67
:101EB00000283BD1306840F0080030603068216A6B
:101EC00020F0F000084330607068E16920F47F4042
:101ED00040EA0120706016E0306840F00800306091
:101EE0003068216A20F0F000084330607068E169D2
:101EF00020F47F4040EA0120706025B9206A03F099
:101F000093FE0028D5D1FFF74BFFB168CD4AC1F34E
:101F10000311515C01F01F01C840CB490860CB4858
:101F20000068FFF78FFA00287ED12CE0C6E0FFF7AB
:101F300009F8A0EB0800022877D830688007F6D5AA
:101F4000306840F0080030603068216A20F0F0000E
:101F5000084330607068E16920F47F4040EA012066
:101F6000706010E0FFE720F001003060FEF7EAFF4C
:101F7000804605E0FEF7E6FFA0EB08000228DBD86C
:101F800030688007F6D42078C00740D0082D18D0DC
:101F90000C2D01D1032F14D06068B0F5803F17D00D
:101FA000B0F5A02F306817D020F480303060306852
:101FB00020F4802030606068E0B1FEF7C3FF804607
:101FC00014E03068800322D56068002876D01EE0D7
:101FD000306840F48030EDE740F480203060F7E76F
:101FE000FEF7B0FFA0EB08006428A5D83068800396
:101FF000F6D50CE0FEF7A6FF804605E0FEF7A2FF4F
:10200000A0EB0800642897D830688003F6D42078C5
:10201000800739D5042D11D00C2D01D1022F0DD000
:10202000E0680028306801E0ACE1FBE01DD040F43E
:1020300080703060FEF786FF07460BE03068400591
:102040000BD5E0680028C1D007E0FEF77BFFC01B7E
:10205000022894D830684005F7D57068217C20F0BC
:10206000F85040EA016070600EE020F4807030604B
:10207000FEF768FF074604E0FEF764FFC01B022876
:10208000B3D830684005F7D42078000728D56069B8
:102090000028D6F8940012D040F00100C6F8940051
:1020A000FEF750FF074604E0FEF74CFFC01B022876
:1020B0009BD8D6F894008007F6D511E027E120F0F0
:1020C0000100C6F89400FEF73DFF074604E0FEF766
:1020D00039FFC01B022888D8D6F894008007F6D4B0
:1020E0002078400765D5B06D4FF00008C00009D4D6
:1020F000B06D40F08050B065B06D4FF0010800F059
:102100008050009052480168C90511D40168814689
:1021100041F480710160FEF715FF074604E0FEF709
:1021200011FFC01B02287DD8D9F80000C005F6D5E4
:10213000A068012815D00528D6F8900016D020F008
:102140000100C6F89000D6F8900020F00400C6F810
:102150009000A06841F28839B8B1FEF7F3FE074657
:102160000EE0D6F8900040F00100F0E740F00400E7
:10217000C6F89000F5E7FEF7E5FEC11B494551D8CA
:10218000D6F890008007F6D50CE0FEF7DBFE074698
:1021900004E0FEF7D7FEC11B494543D8D6F89000AE
:1021A0008007F6D4B8F1000F03D0B06D20F0805056
:1021B000B0652078800627D5606A0028D6F8980098
:1021C00011D040F00100C6F89800FEF7BBFE0746AC
:1021D00004E0FEF7B7FEC01B022823D8D6F898000B
:1021E0008007F6D510E020F00100C6F89800FEF751
:1021F000A9FE074604E0FEF7A5FEC01B022811D881
:10220000D6F898008007F6D4A06AC0B1022823D07F
:102210000C2D7CD0306820F0807030603068000178
:1022200005D400E0ADE0F06820F00300F060F06855
:1022300008490840F060FEF785FE0446A4E09AE0F5
:1022400000100240B41402083000002028000020D2
:1022500000700040FFFFEEFEF068E26A00F003014C
:10226000914226D1216B00F0700209011039914290
:102270001FD1626B00F4FE41B1EB022F19D194F82B
:10228000382000F07841B1EBC26F12D1A18F00F479
:10229000C00249084905A1F50011914209D194F8FD
:1022A000401000F0C06049084906A1F10071814268
:1022B0004AD00C2D6DD0306840016AD4306820F0CF
:1022C00080703060FEF73EFE054604E0FEF73AFE01
:1022D000401B022855D830688001F7D4F4E90B017F
:1022E0006FF00F0202EB01110843218A52044908E2
:1022F00002EB4151A26841EA02210843217D4FF0DF
:102300007E42490802EB41610843217B00E040E046
:1023100040EAC160F168204A11400843F06030682B
:1023200040F080703060F06840F08070F060FEF740
:1023300009FE044604E0FEF705FE001B022820D833
:1023400030688001F7D522E0306880011FD4306802
:1023500040F080703060F06840F08070F060FEF710
:10236000F1FD044604E0FEF7EDFD001B022808D84D
:1023700030688001F7D50AE0FEF7E4FD001B022873
:1023800002D90320BDE8F88330688001F4D400202E
:10239000F8E70120F6E700008C809D0110B5FEF7FC
:1023A000CEFA10BD70470000F0B5426E920F0A7071
:1023B000426EC2F383624A70426EC2F301628A7057
:1023C000426E120CCA70B0F86420120A0A7190F8BA
:1023D00064204A71826E120DCA80826EC2F303427B
:1023E0000A72B0F86820C2F3C0324A72B0F86820AE
:1023F000C2F380328A72B0F86820C2F34032CA72E7
:10240000B0F86820C2F300320A7300264E73436CA2
:102410004FF40075012463B1012B3AD0026847499B
:102420009163816B41F08051816380F834400120D9
:10243000F0BDB0F86820C36E9205120D42EA9372A7
:102440000A61C26EC2F3C2620A75C26EC2F3026250
:102450004A75C26EC2F342528A75C26EC2F382429C
:10246000CA75C26EC2F3C2320A760B695B1C436541
:102470000A7E02F00702921C934043650A7A02F03A
:102480000F0704FA07F28265520A5343C0E9173571
:102490000EE090F86820C36E9206920A42EA134258
:1024A0000A610A69521C93024365C0E91653056626
:1024B00030F86C2FC2F3803201F8192F0288C2F372
:1024C000C6124A70027802F07F028A704268D20F08
:1024D000CA704268C2F341720A714268C2F38262F2
:1024E0004A714268C2F383528A714268C2F3405211
:1024F000CA710E724268C2F300424A728288C2F305
:10250000C0328A728288C2F38032CA728288C2F371
:1025100040320A738288C2F300324A738288C2F35F
:1025200081228A738288C2F30122CA730079C0F3C0
:10253000460008744C740020F0BD0000FF05400008
:10254000426C0A60826C4A60C26C8A60026DCA602A
:10255000426D0A61826D4A61C26D8A61006EC86116
:102560000020704738B5002504460095B0F85000AB
:102570000104206803F099FC28B90021206803F0C9
:102580006FFE0090284610B1A16B0143A163009833
:10259000C0F3432038BD00002DE9F843056B044625
:1025A0000068416B09041CD529071AD5D4E90A56DD
:1025B000002E14D00027206803F06FFE05F8010BF1
:1025C000010A05F8011B010C05F8021B000E361F5D
:1025D0007F1C05F8010C082FEDD3C4E90A56BDE8AD
:1025E000F883416B4FF00007C90540F23A584FF0AD
:1025F000010643D5310281632068C16B4CF23A1267
:102600009143C1632068C16A21F00101C1622807BA
:102610001CD515F0220F09D0206803F077FC28B1F3
:10262000A16B0143A1632046FFF7BCFE2168C1F8FE
:10263000388084F834602763A80703D0204600F070
:1026400060FACCE7204600F060FAC8E72806C6D555
:10265000A80609D5206803F059FC28B1A16B0143F5
:10266000A1632046FFF79EFEA807B8D12068C16A83
:1026700021F00801C16284F83460E3E7416B49044A
:1026800023D5290721D5D4E90856002EA7D0002745
:1026900015F8010B009015F8011B361F40EA0120C8
:1026A000009015F8021B40EA0140009015F8011C4B
:1026B00040EA016000906946206803F001FE7F1C3B
:1026C000082FE5D3C4E9085689E7416B11F03A0FAA
:1026D00085D0416B890703D5A16B41F00201A1634D
:1026E000416B090703D5A16B41F00801A163416B60
:1026F000890603D5A16B41F02001A163416BC90696
:1027000003D5A16B41F01001A163C0F838802068A7
:10271000C16B21F49D71C163206803F0F7FBA16BCD
:102720000843A063280706D584F834602763204651
:10273000FFF738FE53E7280687D515F0300F0CD089
:10274000E16B11488863E06BFEF7D9F90028BBD034
:10275000E06BBDE8F84303F0EBBDA8070CD0216C9B
:102760000A488863206CFEF7CAF90028ACD0206CB8
:10277000BDE8F84303F0BABDA76384F8346027636B
:102780002046FFF70BFE2AE731630008ED620008E0
:1027900070B504000ED094F83400002518B92577E0
:1027A000204600F073F8032084F83400204600F03F
:1027B0000BF808B1012070BDA5632563012084F8E2
:1027C0003400002070BD00002DE9FE4304464FF0A8
:1027D00000084FF40020FEF701FF05004FF001074D
:1027E0002DD02548CDF80080B5FBF0F6B61ECDE91A
:1027F0000186424643461146206803F034FD2068B6
:10280000416821F480714160206803F03EFD20683A
:10281000416841F480714160B61CB5FBF6F0174980
:10282000B1FBF0F0401CFEF799FA204603F01AFEC7
:1028300058B184F83470A16B0143A16319E084F8A6
:1028400034704FF00060A06313E0204603F092FD67
:102850000028EED14FF40071206803F05BFA0028E5
:1028600008D0226806499163A16B0143A16384F8F3
:102870003470012000F006B8801A06001021010013
:10288000FF05400006BCBDE8F8830000F0B587B046
:10289000044614216846FDF765FD1E4920688842FC
:1028A00035D11D48016E41F480610166016E01F46D
:1028B00080610591C16C41F00401C164C16C01F0FB
:1028C00004010591C16C41F00801C164C06C0C2485
:1028D00000F0080005904FF48850022500260327D9
:1028E00004948DE8E10069460C48FEF749FA04209B
:1028F00004948DE8E10069460948FEF741FA002298
:1029000011463120FEF7FCFD3120FEF7EBFD07B04C
:10291000F0BD0000002801400010024000080048FF
:10292000000C00482DE9FF4F87B016460D460446BF
:10293000DDF85080FEF706FB82463DB194F8340086
:10294000012807D0A06B40F000500DE0A06B40F0D4
:10295000006009E00020A0630A99E26D31449142D1
:1029600004D9A06B40F00070A06384E0032184F8D8
:1029700034102168C862616C012900D076024FF0E2
:10298000FF3100910A994FF001094902019102AA11
:10299000902102278346CDF8149082E88208694688
:1029A000206803F0FDFA0A98012805D9276331460B
:1029B000206803F006FA05E0C4F83090314620683C
:1029C00003F017FA30B122684B499163A16B0143C0
:1029D000A1634CE0019E1FE0406B000413D596B14B
:1029E0000027206803F059FC05F8010B010A05F8DF
:1029F000011B010C05F8021B000E361F7F1C05F899
:102A0000010C082FEDD3FEF79DFAA0EB0A0141451A
:102A10001ED2B8F1000F1BD02068416B11F4957FD6
:102A2000DAD0416BC90509D50A99012906D9616C2B
:102A3000032903D003F06AFA0028C4D12068416B4F
:102A400009071AD52C498163A06B40F0080051E0BA
:102A5000216829488863A06B40F00040A06384F897
:102A60003490C4F830B003200BB000F047B884F8BD
:102A70003490C4F830B00120F6E7416B890705D5E2
:102A80001D498163A06B40F0020033E0416B890671
:102A90001CD519498163A06B40F020002AE003F0A7
:102AA000FCFB05F8010B010A05F8011B010C05F8F8
:102AB000021B000E05F8010C361FFEF743FAA0EBCF
:102AC0000A01414510D2B8F1000F0DD02068416BCA
:102AD000890201D5002EE2D1216840F23A50886384
:102AE00084F834900020BFE7216803488863A06B16
:102AF00040F00040A063BAE7FF05400030BCBDE8ED
:102B0000C08F10B5FDF754FF10BD10B5FDF762FF83
:102B100010BD00002DE9F04F89B09B4615460E46CA
:102B20000446FEF70FFA07903EB194F834000128EE
:102B300007D0A06B40F000500DE0A06B40F00060AB
:102B400009E00021A163E26D05EB0B00904204D97E
:102B5000A06B40F00070A06378E0032084F834009C
:102B60002068C162606C012800D06D024FF0FF3018
:102B700000904FEA4B204FF001090190CDE9041974
:102B80009020CDE902018A466946206803F008FAE0
:102B9000BBF1010F06D9202020632946206803F0ED
:102BA000CFF905E0102020632946206803F0E0F902
:102BB0005FEA000806D021683F488863A06B40EABE
:102BC00008006FE0019F26E0406B40041BD5D7B1A1
:102BD000002516F8010B069016F8011B3F1F40EA6E
:102BE0000120069016F8021B40EA0140069016F8F4
:102BF000011C40EA0160069006A9206803F060FB12
:102C00006D1C082DE5D3FEF79DF90799411A12981E
:102C100081421FD2F0B12068416B11F48D7FD3D077
:102C2000416BC90523D5BBF1010F20D9616C032984
:102C30001DD003F06BF9D0B122681F499163A16BDD
:102C40000143A16384F83490C4F830A0012009B096
:102C500000F034B8216818488863A06B40EA080087
:102C6000A06384F83490C4F830A00320EFE7206814
:102C7000416B090705D510498163A06B40F008003E
:102C800010E0416B890705D50B498163A06B40F0CB
:102C9000020007E0416BC90606D507498163A06BB6
:102CA00040F01000A063CDE740F23A51816384F810
:102CB00034900020CBE70000FF05400030BCBDE8A9
:102CC000C08F704738B5016804464A688868C043B9
:102CD000430606D5C30704D1D3435B0601D4E16C98
:102CE00005E0830708D4D3431B0605D4216D01B04A
:102CF0002046BDE830400847830603D5430601D58A
:102D0000C30551D4D3439B064ED443060AD494F84A
:102D10005D30032B49D0236E43F004032366CB6858
:102D20008B680093830609D4236E43F00103236666
:102D30008B6800930B6823F040030B60C00506D43A
:102D4000206E40F008002066206880680090206EA9
:102D5000002829D02068416821F0E001416001206D
:102D600084F85D00900701D4D00722D02068416824
:102D700021F003014160114DA06D40B18563A06D4C
:102D8000FDF7BDFE18B1206E40F040002066606D7A
:102D9000002809D08563606DFDF7B1FE002803D0DF
:102DA000206E40F04000206638BDC86888680090FA
:102DB00038BD2046FFF785FF38BD0000C16600081A
:102DC00070B5040009D0606A002540B125616561D5
:102DD000A56294F85D0040B10CE0012070BD606810
:102DE000B0F5827FF4D0E561F2E784F85C502046CC
:102DF00000F056F8022084F85D002068016821F098
:102E000040010160E0684FF4E062904201D9002186
:102E100001E04FF48051B0F5706F02D0904200D0C5
:102E2000A562A088228900F4827002F40442104353
:102E3000227C02F002021043227D02F001021043C4
:102E4000228B02F400721043227F02F038021043FA
:102E500094F8202002F080021043228D02F40052E8
:102E6000104322681060A069042202EA104094F81E
:102E7000242001F4805102F01002104394F8342011
:102E800002F008021043A28902F470621043084362
:102E9000216848602566012084F85D00002070BD2F
:102EA0002DE9F04186B0064614216846FDF75AFA2E
:102EB0002B49306888424FD12A49886D40F48040C0
:102EC0008865886D00F480400590C86C40F004006F
:102ED000C864C86C00F004000590C86C40F00200A3
:102EE000C864C86C022700F0020005900820CDE9F4
:102EF000000700254FF0030805240295CDE903845F
:102F000069461948FDF73CFF3803CDE900070295F3
:102F1000CDE9038469461548FDF732FF154C144886
:102F20002060012060601020C4E902058020C4E90F
:102F30000405A561E56120462562FDF767FE08B13D
:102F4000FDF792FD7465002211462420A662FEF76B
:102F5000D7FA2420FEF7C6FA06B0BDE8F0810000DB
:102F600000380040001002400008004800040048FB
:102F700058000240040600202DE9F041044690F874
:102F80005C000025012809D0012784F85C7094F8C2
:102F90005D000026012804D0022570E00220BDE873
:102FA000F08199B192B1032084F85D002666A16397
:102FB000A287E28726642665E664A4F84460A4F844
:102FC0004660A068B0F5004F02D00BE0012556E046
:102FD0002068016821F0400101602068016841F427
:102FE00080410160616D28480863616D2748C862AF
:102FF000616D27484863606D86632068416821F4ED
:1030000080414160E068B0F5E06F10D8606D806984
:10301000B0F5806F0BD1E08FC0072068416816D0F3
:1030200041F480414160E08F07EB5000E087E38F7F
:103030002268A16B0C32606DFDF758FE68B1206EFE
:1030400040F010002066012584F85D7017E021F43F
:1030500080414160E08F4008E8E720680168490648
:1030600003D4016841F0400101602068416841F0EB
:10307000200141602068416841F00201416084F80C
:103080005C6028468BE70000F5660008FF660008D4
:10309000D3660008044900680968884203D10348E0
:1030A00000681BF079B87047A005002000000020E0
:1030B000704770477047704710B5040003D094F80C
:1030C0003D0010B107E0012010BD002084F83C0055
:1030D000204600F022F8022084F83D00211D2068DF
:1030E00003F0D0FC012084F8480084F83E0084F806
:1030F0003F0084F8400084F8410084F8420084F8DE
:10310000430084F8440084F8450084F8460084F8BD
:10311000470084F83D00002010BD704790F83D1036
:10312000012901D001207047022180F83D1001687B
:10313000CA6842F00102CA6000680B49884205D0A3
:10314000B0F1804F02D00949884207D18168084A0E
:103150001140062906D0B1F5803F03D0016841F047
:103160000101016000207047002C01400040014037
:1031700007000100704770B50446006801694FF010
:103180000005C943890715D4C168C943890711D40B
:10319000E91E0161012020772068806980072046B0
:1031A00002D0FFF7E7FF04E000F0A7F8204600F0A8
:1031B000A5F8257720680169C943490717D4C16874
:1031C000C943490713D46FF004010161022020773D
:1031D0002068806910F4407F204602D0FFF7CAFFC4
:1031E00004E000F08AF8204600F088F8257720688F
:1031F0000169C943090716D4C168C943090712D434
:103200006FF008010161042020772068C069800701
:10321000204602D0FFF7AEFF04E000F06EF8204633
:1032200000F06CF8257720680169C943C90617D4F6
:10323000C168C943C90613D46FF0100101610820A9
:1032400020772068C06910F4407F204602D0FFF745
:1032500091FF04E000F051F8204600F04FF8257788
:1032600020680169C943C90708D1C168C943C907B2
:1032700004D1891E0161204600F042F820680169EE
:10328000C943090609D4C168C943090605D46FF0CA
:10329000800101612046FFF70DFF20680169C943E5
:1032A000C90509D4C168C943090605D46FF4807102
:1032B00001612046FFF7FDFE20680169C943490608
:1032C00009D4C168C943490605D46FF040010161C2
:1032D000204600F01FF820680169C94389060BD415
:1032E000C168C943890607D46FF0200101612046F7
:1032F000BDE87040FFF7DFBE70BD7047704700004B
:1033000000680349884201D1FEF784B87047000085
:10331000002C014070477047704770472DE9F0411D
:1033200002680446D0691168966840F60F03184297
:103330004FF0000505D183067ED58B067CD5616EE6
:103340001BE1994F06F001030F401F4374D0C707DC
:1033500009D0CF0507D501271762D4F8802042F0A5
:103360000102C4F8802082070AD5F20708D0276836
:1033700002223A62D4F8802042F00402C4F880208D
:1033800042070AD5F20708D0266804223262D4F830
:10339000802042F00202C4F8802002070CD501F020
:1033A00020021A4308D0236808221A62D4F8802029
:1033B00042F00802C4F8802002050BD54A0109D565
:1033C00023684FF400621A62D4F8802042F0200291
:1033D000C4F88020D4F88020002A35D0800605D596
:1033E000880603D5616E09B120468847D4F880006D
:1033F00021688968490602D410F0280F26D020469B
:1034000003F0ACFC2068806840061AD520680830BC
:1034100050E8001F21F0400140E80012002AF5D1D9
:10342000206F70B161498163206FFDF768FB002850
:103430000AD0206F816B01E00EE02046BDE8F0412C
:1034400008472046FFF769FFBDE8F0812046FFF7F7
:1034500064FFC4F88050F7E7276E2023012F7BD14B
:10346000C70679D5CF0677D510201062206880680E
:10347000400641D5216F086840680004000CE3D085
:10348000B4F858208242DFD9A4F85A0008680068CE
:1034900080062AD4206850E8001F21F4807140E89B
:1034A0000012002AF6D12068083050E8001F21F0F1
:1034B000010140E80012002AF5D12068083050E8E8
:1034C000001F21F0400140E80012002AF5D1E36717
:1034D0002566206850E8001F21F0100140E8001226
:1034E000002AF6D1206FFDF7E5FAB4F85800B4F8D9
:1034F0005A10401A81B22AE0B4F85800B4F85A10B1
:10350000401A81B2B4F85A0000289DD000299BD0FF
:10351000206850E8002F22F4907240E80026002E28
:10352000F6D12068083050E8002F22F0010240E870
:103530000026002EF5D1E36725666566206850E811
:10354000002F22F0100240E80023002BF6D1204685
:10355000FFF7E1FE78E7FFE7C70209D5760207D556
:103560004FF4801010622046BDE8F041FFF7D4BE52
:10357000020606D50A0604D5A16E00297FF45DAFC8
:1035800062E74006E6D54806E4D52046016851E8E2
:10359000002F22F0400241E80024002CF6D183677E
:1035A000856600F06FF94FE720010004156C0008F4
:1035B00010B5040002D0A06F10B107E0012010BDCB
:1035C000002084F87400204600F026F82420A0672C
:1035D0002068016821F001010160204603F0F0FB42
:1035E0000128ECD0606A10B1204603F081FA20680F
:1035F000416821F4904141602068816821F02A01EE
:1036000081602068016841F0010101602046BDE849
:10361000104003F0D1BA00002DE9F04786B004460F
:1036200014216846FCF79EFE4A4B21684A48032253
:10363000022700264FF010094FF0800A99424AD124
:10364000C16D41F00101C165C16D01F0010105913C
:10365000C16C41F00401C164C06C029600F004002A
:103660000590CDE900270820CDE9032069463B48B5
:10367000FDF786FB3B4D3A484FF00408C5E9036A65
:103680006E61AE61EE612E6285E801035746284601
:10369000FDF7BCFA08B1FDF7E7F9E566AC62314D1C
:1036A0002F48483514302860C5E90186C5E903670D
:1036B0006E61AE61EE6128462E62FDF7A7FA08B191
:1036C000FDF7D2F92567002211464620AC62FDF7CE
:1036D00017FF462039E0244B994238D1016E41F45E
:1036E00080410166016E01F480410591C16C41F099
:1036F0000101C164C06C029600F0010005904FF416
:10370000C060CDE900070720CDE9032069464FF0EE
:103710009040FDF735FB134D14489035C5E90296EE
:10372000C5E904A6AE61EE612E62C5E90007284630
:10373000FDF76CFA08B1FDF797F9E566002211462E
:103740002520AC62FDF7DCFE2520FDF7CBFE06B0A0
:10375000BDE8F087008000400010024000080048EB
:103760006C04024044040020003801404400024040
:1037700030B4C36F202B20D1E1B1DAB190F87430AE
:10378000012B1AD0012380F87430002303660C4CFF
:103790000368A3420BD05B681B0208D5036853E89B
:1037A000004F44F0806443E80045002DF6D130BC62
:1037B00003F004BC012030BC70470220FBE700008E
:1037C00000800040044900680968884203D103482A
:1037D00000681AF0E1BC70473C030020080000209C
:1037E0007047000070B50446806F202841D169B34E
:1037F00062B394F8740001283BD0012084F874006F
:10380000E164A4F85020A4F852200025C4F88050A8
:103810002120A067E06ED8B11749C162E16E174858
:1038200013460863E16E16484863E06E85632668B8
:10383000E16C06F12802E06EFDF758FA40B1102065
:10384000C4F8800004F8745F20206060012070BD1F
:1038500021684020086284F874502068083050E8DD
:10386000001F41F0800140E80012002AF5D100203D
:1038700070BD022070BD0000116D0008536D00087E
:10388000296C0008044900680968884203D103488C
:1038900000681AF081BC70473C030020040000203F
:1038A0007047FEE7B6B04422424920A8FCF741FD2C
:1038B000642107A8FCF756FD00269FED3F0A3196CC
:1038C00032968DED330A8DED340A3CA003F032FCC4
:1038D0004FF47A74204619F09FFF3EA003F02AFCB3
:1038E000204619F099FF41A003F024FC0BF022FFC1
:1038F0000DF094FF642019F08FFFDFF8008120AFF6
:103900000DF11C0941F2883A31A802F0A5FE08B178
:103910003BA006E034AA33A931A802F05BFE18B13F
:103920003EA003F007FC10E03498FCF7D8FD0446F5
:103930000D463398FCF7D3FD41EC100B3CA053EC43
:10394000102BCDE9004503F0F5FB9DED340A41490C
:1039500007A8BCEEC00A10EE103A9DED330ABCEE8B
:10396000C00A10EE102A03F0F5FB4446B8F8001028
:103970003948FCF7F7FC07A8FCF7FFFCCDE9046920
:103980000690CDE902760096002301961A4621881A
:10399000314801F0A0FE02462F4903201DF0CCFA69
:1039A00030B12EA003F0C6FB504619F035FFABE74F
:1039B0002EA0F7E7C46A0308000000004553503802
:1039C0003236362052656164793A203253210D0A2D
:1039D000000000004553503832363620526561648D
:1039E000793A203153210D0A000000004553503828
:1039F00032363620496E6974210D0A005C020020BF
:103A00007265616420646174612066726F6D2073F9
:103A100068743330206661696C0D0A00637263203C
:103A2000636865636B206661696C0D0A00000000C5
:103A300074656D7065726174757265203D202566D0
:103A40002C2068756D6964697479203D2025660DA8
:103A50000A000000086B03085C78002053656E6460
:103A60002057524F4E47210D0A00000053656E64E7
:103A7000204F4B210D0A00000148FDF7BFBA00009E
:103A8000F00200200148FDF7EDBA0000F00200202E
:103A9000806A0022816B01B18A63C16B01B18A63C4
:103AA00000F03ABB30B50022CB074FF0280406D017
:103AB00090F84150422234EA050300D0F2228B07ED
:103AC00008D590F8415042F0440234EA050301D091
:103AD00042F0B0020B0401D542F0B802102904D024
:103AE000202905D0402906D007E042F0900204E0EA
:103AF00042F0200201E042F0400200680168914378
:103B0000016030BD01688A69D243920701D4002266
:103B10008A6200688169C943C90703D0816941F09D
:103B20000101816170472DE9F041044690F84100A0
:103B30002821814320684FF000074FF0080304D08C
:103B4000C36184F84070BDE8F0818169C1F300462B
:103B50008169FE2202EA11458168C1F30902C16848
:103B6000D4F80CE001F0FE014FF4004CBEF1020F5E
:103B700017D14FF0060E05F006050EEAD21E754568
:103B80000ED1A16C491CA164A16C0229DBD1A764F0
:103B9000C36184F8407031462046FDF72EFAD2E723
:103BA0000D4661462046FFF77DFF84F840702A46A7
:103BB000F1E7000070B5044690F84100002584F854
:103BC0004250364AE2626585626C0A436264282884
:103BD0001FD029281DD02A281BD048F203012046D7
:103BE000FFF760FF94F84100602802D0202084F89D
:103BF00041006563206B2A4EA16B19B1112812D0C8
:103C0000212810D0E16BE9B3122824D0222822D039
:103C10003EE003212046FFF745FF282084F84100BD
:103C200020486063E6E720680168490403D501681D
:103C300021F480410160A06BFCF788FF012827D0A8
:103C4000A06B866384F84050A06BFCF758FF0028F7
:103C500023D0A06B18E020680168090403D501682F
:103C600021F400410160E06BFCF770FF01280FD0E8
:103C7000E06B866384F84050E06BFCF740FF00285F
:103C80000BD000E004E0E06B816BBDE870400847BA
:103C90002046BDE8704000F03FBA70BD0000FFFF55
:103CA000913A0008C93F000870B504461648E06222
:103CB00000252563202084F8410084F84250C84341
:103CC0006563400711D42068406A616A0870606AC1
:103CD000401C6062208D40B1401E2085608D401EDA
:103CE0006085606C40F00400606448F20301204687
:103CF000FFF7D8FE21681020C86184F840502046A4
:103D0000FDF716FA70BD00000000FFFF2DE9F0413D
:103D100002680D460446176890F841002026D661D7
:103D2000212806D0292804D0222809D02A2807D003
:103D30000DE048F201012046FFF7B4FE212005E026
:103D400048F202012046FFF7ADFE222020632068E2
:103D5000416841F40041416020684168354A1140A2
:103D600041602046FFF7CEFEF843410406D42068A8
:103D7000016821F480410160A06B07E0000409D4D0
:103D80002068016821F400410160E06B10B1006817
:103D900040686085E84340070FD4206825F004059B
:103DA000406A616A0870606A401C6062208D20B1C0
:103DB000401E2085608D401E6085608D18B1606C4E
:103DC00040F004006064002784F842706763606C10
:103DD00068B1616C2046FFF7EDFE94F84100282899
:103DE00015D129462046BDE8F041FFF75DBFE06AE6
:103DF000114DA8420DD0204600F020F8E56284F86D
:103E00004160276384F840702046FDF791F9BDE8D2
:103E1000F08194F8410084F841602228276384F8F7
:103E20004070204602D0FDF7F4FAF0E7FDF7F0FA13
:103E3000EDE7000000E800FE0000FFFF70B504465B
:103E400000680168002584F84250C9434A0403D43D
:103E5000016821F4804104E0090403D4016821F4DD
:103E60000041016094F841102820292911D094F8CC
:103E700041102A290CD184F841002220206302211C
:103E80002046FFF70FFE84F840502046FDF7C0FAA9
:103E900070BD84F841002120206301212046FFF7F6
:103EA00001FE84F840502046FDF7B3FA70BD0000D3
:103EB0002DE9F047044600688846174681690025C9
:103EC0002E46C906A9464FF0200A48D51021C161E7
:103ED00036E0B8F1FF3F33D0FDF734F8C11B414560
:103EE00002D8B8F1000F2BD12068416801F480425C
:103EF00094F842108369DB431B041CD4B2F5804F55
:103F000019D0202917D0416841F480414160FDF764
:103F100019F807460FE0FDF715F8C01B19280AD954
:103F2000606C40F02000606484F841A084F8429006
:103F300084F84090012520688069C0438006EAD457
:103F400020688069C043800602D5002DC1D003E0FF
:103F500015B92168C1F81CA046F0040601252168A6
:103F60008869C20505D54FF4807246F00106CA6122
:103F70000125410506D522684FF4806146F0080608
:103F8000D1610125800507D521684FF4007046F006
:103F90000206C861012500E08DB12046FFF7B2FDA1
:103FA00054F8240B4168074A11404160206A3043AD
:103FB000206284F81DA084F81E9084F81C90284686
:103FC000BDE8F08700E800FE2DE9F041C56A04462F
:103FD00090F840008846012826D0012084F840004F
:103FE0006FEA0807B8066FEA020605D4B00603D4E4
:103FF00041462046FFF78AFE3A49F8064FF08072A4
:1040000031D4F0062FD4638D102083B12168C861AC
:10401000606C40F0040060640DB195425ED1616C4B
:104020002046FFF7C7FD59E00220BDE8F08194F873
:104030004120282A02D1B5F1007F04D094F8412014
:10404000292A05D00CE041462046FFF72DFE45E029
:104050008D4205D02168C8612046FFF753FD3AE044
:104060002168C8613AE0780715D4700713D4608DD1
:1040700060B12068406A626A1070606A401C6062C9
:10408000208D401E2085608D401E6085608D28BB80
:104090008D4220D122E0380706D4300704D44146AF
:1040A0002046FFF740FD19E0B80717D4B00715D434
:1040B000608D68B1606A216800788862606A401C1F
:1040C0006062608D401E6085208D401E208505E069
:1040D000954200D015B92046FFF7B0FE002084F8C5
:1040E0004000A2E70000FFFF10B5C1F3090141EA5B
:1040F00002410068029C19432143426821F00041BB
:104100004FF4806303EA5453024C23439A430A4317
:10411000426010BDFF63FF0310B590F841200021FD
:10412000602A05D0016380F84010FCF7A3FF10BDA2
:10413000202280F84120016380F84010FCF75CFFEA
:1041400010BD2DE9F0411D4617460E460446DDF828
:10415000188008E0681C06D0FCF7F4FEA0EB08000D
:10416000A8420BD855B12068806936EA000012D009
:104170000020B842EED00020BDE8F08154F8440F92
:1041800040F0200044F80409202060700020A07056
:1041900020700120F0E70120EBE700002DE9F0415D
:1041A00017460D4604464FF02008002630E03A46F8
:1041B00029462046FFF77CFE18BB20688069C04373
:1041C00080061FD420688169C943490701D4218D25
:1041D00019BB8169C943C90604D41021C1610420F7
:1041E000606400E066642068C0F81C802068426853
:1041F000114B1A40426084F8418084F8426084F890
:10420000406016E0FCF79EFEC01BA84208D83DB1F6
:1042100020688069C0434007C9D40020BDE8F08110
:1042200054F8440F40F0200044F8040984F8018059
:1042300026700120F2E7000000E800FE70B5164687
:104240000D4604460DE0324629462046FFF730FE73
:1042500008B1012070BDFCF775FE801BA84207D88D
:1042600035B120688069C0438006ECD4002070BD61
:1042700054F8440F40F0200044F8040920206070F6
:104280000020A0702070E4E770B516460D46044685
:104290000FE0324629462046FFF70AFE08B101200A
:1042A00070BD681C05D0FCF74DFE801BA84207D8E6
:1042B00035B120688069C0438007EAD4002070BD12
:1042C00054F8440F40F0200044F8040920206070A6
:1042D0000020A0702070E2E72DE9F04107461C465F
:1042E00015460E462A2000F0FDF8380A00F008F9BD
:1042F000F8B200F005F9280A00F002F9E8B200F07F
:10430000FFF82B2000F0EEF8300A00F0F9F8F0B2D8
:1043100000F0F6F8200A00F0F3F8E0B200F0F0F850
:10432000BDE8F0412C2000F0DDB8000070B56B4D09
:104330004FF40044002221462846FCF7FEFD684E5B
:10434000002280213046FCF7F8FD642019F064FA61
:10435000012280213046FCF7F0FD782019F05CFA4C
:10436000112000F0BFF8782019F056FA362000F03E
:10437000B9F8002000F0C4F83A2000F0B3F8652046
:1043800000F0BEF8B22000F0ADF80C2000F0B8F854
:104390000C2000F0B5F8002000F0B2F8332000F057
:1043A000AFF8332000F0ACF8B72000F09BF8722093
:1043B00000F0A6F8BB2000F095F83D2000F0A0F832
:1043C000C02000F08FF82C2000F09AF8C22000F0F6
:1043D00089F8012000F094F8C32000F083F8192038
:1043E00000F08EF8C42000F07DF8202000F088F85E
:1043F000C62000F077F80F2000F082F8D02000F0FF
:1044000071F8A42000F07CF8A12000F079F8E020F9
:1044100000F068F8D02000F073F8042000F070F885
:104420000D2000F06DF8112000F06AF8132000F064
:1044300067F82B2000F064F83F2000F061F854206A
:1044400000F05EF84C2000F05BF8182000F058F8FF
:104450000D2000F055F80B2000F052F81F2000F05E
:104460004FF8232000F04CF8E12000F03BF8D0207A
:1044700000F046F8042000F043F80C2000F040F86B
:10448000112000F03DF8132000F03AF82C2000F045
:1044900037F83F2000F034F8442000F031F8512084
:1044A00000F02EF82F2000F02BF81F2000F028F845
:1044B0001F2000F025F8202000F022F8232000F033
:1044C0001FF8212000F00EF8292000F00BF82146FB
:1044D0002846BDE870400122FCF72FBD00040048CB
:1044E0000008004801B5002240210448FCF725FDE2
:1044F0000121684602F028FA08BD000000080048C3
:1045000001B5012240210448FCF717FD012168464E
:1045100002F01AFA08BD0000000800484218491EBF
:10452000521E824202D922EA010070478843704736
:104530000A46012119F072BDF8B50E460449069DE0
:104540000C6814B131460095A0470020F8BD00006A
:10455000FC00002010B520491020086020491F48A9
:10456000086019F037FB040007D01EA002F0E2FD3E
:1045700021461EA002F0DEFD25E01AF0EFF804004F
:1045800004D018A002F0D6FD1FA01AE01AF050F9CE
:1045900019F094FD002817D119F026FB002813D13B
:1045A00019F02AFC040004D00EA002F0C3FD1BA0E9
:1045B00007E019F0E9FE040007D00AA002F0BAFDF6
:1045C0001BA002F0B7FD204610BD1AF03DFBBDE870
:1045D000104019F0ABBA000068000020508900209C
:1045E000000100205B4552525D2000006F734D6555
:1045F0006D53797374656D496E6974206572726F5D
:10460000722025640A0000006F735461736B496E59
:104610006974206572726F720A0000006F735175C1
:10462000657565496E6974206572726F720A000063
:104630006F735377546D72496E6974206572726F2F
:10464000720A00004268C1E90002426811604160DC
:1046500070474268C1E900024268116041607047DA
:104660004268C1E9000242681160416070474268D7
:10467000C1E900024268116041607047D0E9001250
:104680001160D0E900124A6000214160016070476A
:104690004168814201D10120704700207047416884
:1046A000814201D10120704700207047416881425A
:1046B00001D101207047002070474168814201D13B
:1046C00001207047002070470068FFF7BBBF70B53E
:1046D00005000C464FF000000CD0002C0AD02846F4
:1046E00019F0C7FD002805D121462846BDE87040D5
:1046F00019F09AB870BD19F02BB970B50C460500C9
:104700000AD04CB119F0E6FD012807D02146284611
:1047100019F03CF9012801D0012070BD002070BDC6
:104720002DE9F84FDFF89CA088460500DAF8004034
:10473000274604D0B8F1500F01D9A80702D00120B4
:1047400000F05EB8FBF766FD814605EB080618E051
:10475000A068A542204401D8A64203D885420ED2C3
:1047600086420CD318A002F0E5FCA0683246204433
:1047700000902346294616A002F0DCFC1AE02746EA
:10478000E468002CE4D14146284619F081F988B14B
:10479000B8F5805F03D3284619F0CAFD50B1DAF8A6
:1047A000001059B1FD600020E8604846FBF73AFD73
:1047B0000020C5E74846FBF735FDC0E7CAF80050C2
:1047C000F1E70000F80000205B4552525D20000038
:1047D000706F6F6C205B25702C2030782578292035
:1047E000636F6E666C696374207769746820706F9C
:1047F0006F6C205B25702C2030782578290A00000A
:1048000018BCBDE8E08F00002DE9F0470D46089880
:104810005FEA020800F104018FB206D04FF6FB7187
:10482000884205D92548BDE8F08724480930FAE7D1
:10483000CDB1C0B1224C05FB07F12068FFF747FF5F
:10484000060013D0FBF7E6FC81461E48FFF72EFF5B
:1048500078B14846FBF7E6FC31462068FFF74DFF8C
:104860001648401CDFE715480A30DCE71348401EB5
:10487000D9E7144840680446D4E900121C3C116092
:10488000D0E900124A60E5802781012226600021DC
:10489000A28021826582A181E181A0F108014960A5
:1048A0000960406000600830406000604846FBF7E7
:1048B000B9FC61890020C8F80010B4E703060002C3
:1048C00000010020D4000020F8B51C4615460E4615
:1048D000074619F06DFB002806D100212B46324611
:1048E0003846009419F0B6FAF8BD7FB582B01C4680
:1048F0000D46064604AA19F075FB002806D10321CF
:1049000004AB2A463046009419F0A4FA06B070BDF4
:1049100010B5FBF77FFC044619F0F8F90A4928386E
:1049200048600968814202D00848008820B12046CA
:10493000BDE81040FBF776BC2046FBF773FCBDE8F2
:104940001040FBF772BC00007800002058000020E7
:104950000A464FF6FF7119F061BB00002DE9F843DC
:104960000027344DDFF8D0808946142809D300236E
:104970002A46414631A00097FFF7DEFD2846BDE8F4
:10498000F8833349096801EB0014FBF743FC064642
:10499000208838B1608848B1401E60803046FBF7FF
:1049A00041FC45E03046FBF73DFCE0E7B9F1000F84
:1049B00009D019F0DBF848B11E4C26A0241D02F0E6
:1049C000B9FB26A00BE01B4CE41C25E02C4800881A
:1049D00040B1184C1FA0641D02F0ACFB29A002F0EE
:1049E000A9FB19E030484A460821056804F108008F
:1049F000AC611AF02BF83046FBF714FCFFF788FF88
:104A00002879400614D5FBF705FC0646A888094C12
:104A100020F04000A880A41D3046FBF703FC0023D3
:104A20002246414605A00097FFF786FD2046A6E7EF
:104A30000020A4E701070002F8C3B2A16F735F75FD
:104A40006E73706563696669635F66696C650000B3
:104A5000DC0000205B4552525D2000002121214CEA
:104A60004F535F4552524E4F5F53454D5F50454E39
:104A7000445F494E544552522121210A0000000052
:104A8000580000202121214C4F535F4552524E4F78
:104A90005F53454D5F50454E445F494E5F4C4F4319
:104AA0004B2121210A000000780000202DE9F84365
:104AB0002449254F1428096801EB001402D3384615
:104AC000BDE8F883FBF7A6FB05462088DFF87C806D
:104AD000002688B1A0886188884218D12846FBF753
:104AE000A1FB194C0023E41D2246414618A0009664
:104AF000FFF722FD2046E3E72846FBF793FB002360
:104B00003A46414612A00096FFF716FDD7E704F19A
:104B10000800FFF7D2FD38B16088401C608028464D
:104B2000FBF780FB0020CBE7E068082140F8106C21
:104B3000283819F0B1FF2846FBF774FBFFF7E8FEB1
:104B4000F0E70000DC00002001070002F8C3B2A17A
:104B50006F735F756E73706563696669635F6669BD
:104B60006C65000010B519F0FDFF040006D005A02B
:104B700002F0E0FA05A002F0DDFA01E0FBF724FB09
:104B8000204610BD5B4552525D2000006F73546992
:104B9000636B5374617274206572726F720A0000E5
:104BA00070B5044600F034F8002829D1174D20686C
:104BB000C0EBC000E96800EB400001EB8004FBF7AC
:104BC00029FB0646A08820F0020040F00400A080E7
:104BD000E18804F1280019F053F819F097F805F16D
:104BE000200128384860EA695AB12A884AB9096818
:104BF000814206D03046FBF715FB19F00DFA002074
:104C000070BD3046FBF70EFBF9E7000058000020AE
:104C10002DE9F0470D465FEA00094FF0FF3A16D044
:104C2000C5B12869C8B12968D1B1AA8846481F2AE8
:104C30000BD802D1454A914207D14549454AE86817
:104C4000511A88420FD940481D30BDE8F0873E48D0
:104C5000001DFAE73C48801EF7E73B48801CF4E75C
:104C60003948401CF1E710B94FF43470E86008216E
:104C7000FFF754FCE860B0F5987F02D23248C01CC0
:104C8000E3E7FBF7C7FA80460026334F0FE078686A
:104C9000A0F12804FFF7F2FC2F4804F1280108389E
:104CA000FFF7D0FC2A48E168FFF727FDE6602A48B5
:104CB000FFF7F5FC0028EAD027480838FFF7EFFC9B
:104CC00010B1214C0E3439E0234808384068A0F177
:104CD0002804FFF7D3FC4046FBF7A4FAD4F8108071
:104CE00008221B48E968FFF706FD07001CD00246B2
:104CF0004046E96819F0B0FF2060A868E7602062CC
:104D0000E868A661E661A0600220A080A888E08033
:104D10002868C4F83CA0A6646061286926656062C2
:104D20000020C9F8008090E7FBF774FA80460A4833
:104D300004F128010838FFF785FC084C4046FBF7D2
:104D400071FA204681E700000302000229DB010816
:104D50005089002000000120900000200002000384
:104D600070B5064618F002FF08B1154870BD154829
:104D7000008808B1144870BDEEB1FBF74BFA114C36
:104D8000054620342068283018F05AFF20688188B2
:104D900021F0040181803146206819F085FC2068EB
:104DA000818841F0200181802846FBF73BFAFFF71C
:104DB000AFFD002070BDBDE8704000F0A3B800005A
:104DC0000D020003580000200E0200022DE9F047FA
:104DD000494F06464FF0FF3A7869864202D147486C
:104DE000BDE8F087B869864202D144480D30F7E744
:104DF0003869864202D341480D38F1E7FBF70AFAD9
:104E00008046C6EBC600F96800EB400001EB800469
:104E1000A588E80706D0394C40460A3CFBF702FA61
:104E20002046DDE7E8064FF0000903D5388808B1D1
:104E3000A7F80090680708D504F1280018F000FFD3
:104E4000A08820F00400A08007E042F2080005429C
:104E500003D004F12800FFF711FC15F0600F02D019
:104E6000204619F0BBFEA08820F0020040F00100AF
:104E7000A080C4F83CA0C4F8489018F047FF1E4D2D
:104E80004FF0010A2035283868602079C0061FD508
:104E900004F1280105F11800FFF716FC3869F968DC
:104EA000C0EBC00000EB400001EB80002860066111
:104EB0002968A08888802868E168C160616A4162C9
:104EC000A4F804A04046FBF7ADF919F0A5F810E0EE
:104ED0000948A4F804A004F128013030FFF7B2FB20
:104EE0000748E168FFF709FC4046C4F80C90FBF75F
:104EF00099F9002074E70000580000201402000215
:104F00005089002070B5194CA4F120022068126964
:104F10000169914201D3164870BD0079400701D460
:104F2000002070BDFBF776F905462068C08818F0B0
:104F3000DDFE012813D920682830FFF79FFB206889
:104F4000818841F0040181802068C188283018F0F0
:104F500097FE2846FBF766F9FFF7DAFCE0E72846FC
:104F6000FBF760F90248093070BD000078000020AE
:104F7000070200020149D1E900017047B00000209A
:104F80000148FEF7CBB900003C03002086B0FFF7D4
:104F9000CDF912F097F816F0E9FA16F007FB0420A5
:104FA00013F05AFB0190042013F056FB042013F079
:104FB00053FB042013F050FB044644F2506013F0FE
:104FC0004BFB8046204617F0D2F800263246314689
:104FD000204617F096F920463021324604F058F961
:104FE00020460121324604F053F917F09AF80021C7
:104FF00013F002FF00220546114615F039FFF0229A
:105000001146284615F0E8FF22460021284613F0F5
:1050100083FC17F086F8002110F052FA07460322AD
:10502000DAA101980FF0F4FF010002D0DAA002F03B
:1050300081F80421019810F086F801980FF053FFD1
:10504000384614F0EBF8404613F090FB384613F066
:105050008DFBD84F002120463A6817F052F92246BE
:105060000021284613F058FC042013F0F5FA042020
:1050700013F0F2FA042013F0EFFA042013F0ECFA24
:10508000042013F0E9FA042013F0E6FA042013F0E8
:10509000E3FA4FF41655284613F0DEFA044617F0EB
:1050A00040F8002110F00CFA814617F03AF8002180
:1050B00010F006FA834617F034F8002110F000FAD9
:1050C000059017F02EF8002110F0FAF9049017F06F
:1050D00028F8002110F0F4F9039017F022F80021CD
:1050E00010F0EEF9029017F01CF8002110F0E8F92A
:1050F00082460322B0A101980FF08AFF010002D07E
:10510000A5A002F017F80421019810F01CF8002364
:10511000A8462A46214601980FF0F8FFA94D4846B7
:105120002946AC6011F0F0FC6FF03B0000230090CA
:105130001A461946484613F03FFC17F08FFA42F220
:10514000845101980FF0FFFF142018F065FB002335
:105150004246214601980FF0D9FF29465846AC60D7
:1051600011F0D2FC6FF02700002300901A46194678
:10517000584613F021FC17F071FA44F604310198F7
:105180000FF0E1FF142018F047FB002342462146B0
:1051900001980FF0BBFFAC602946059811F0B4FCF4
:1051A0006FF01300002300901A461946059813F07B
:1051B00003FC17F053FA47F2840101980FF0C3FF84
:1051C000142018F029FB00234246214601980FF0D5
:1051D0009DFFAC602946049811F096FC00231A4606
:1051E00019460096049813F0E7FB17F037FA49F2D6
:1051F000046101980FF0A7FF142018F00DFB0023A5
:105200004246214601980FF081FFAC602946039881
:1052100011F07AFC1420002300901A4619460398D6
:1052200013F0CAFB17F01AFA4BF6843101980FF00D
:105230008AFF142018F0F0FA002342462146019814
:105240000FF064FFAC602946029811F05DFC282045
:10525000002300901A461946029813F0ADFB17F090
:10526000FDF94EF2041101980FF06DFF142018F0B3
:10527000D3FA00234246214601980FF047FF294602
:105280005046AC6011F040FC3C20002300901A46D0
:105290001946504613F090FB17F0E0F94A4901987F
:1052A0000FF051FF142018F0B7FA01980FF01BFE11
:1052B000204613F05BFA042013F0CEF905460420D3
:1052C00013F0CAF916F02DFF002111F075FF044606
:1052D000284616F04CFF3D4A0021284617F0BEF83C
:1052E000002128467A6817F0ADF82A4600212046AA
:1052F00013F012FB36A1204613F04CF8052211469C
:10530000204615F0B5FD042013F0A6F9054616F069
:105310002EFF304A0021284617F0A0F80021284629
:10532000BA6817F08FF8042013F096F916F0F9FE1A
:10533000002111F041FF044627A113F02BF8C322EE
:105340000F21204615F094FD2A460021204613F037
:10535000E3FA042013F080F916F0E3FE002111F0C7
:105360002BFF04461DA113F015F8C3226E21204621
:1053700015F07EFD2A460021204613F0CDFA17F0E5
:105380006DF9142018F048FAF9E70000533A2F6F2E
:10539000732E62696E0000004C56474C2046532025
:1053A0006F70656E206572726F722E2028256429D9
:1053B0000D0A00000C140208533A2F626561722E28
:1053C00062696E0018000020840601008801002038
:1053D000EF87AB0048020020EF8B8700EF86850047
:1053E000064D4FF400544FF47A7621462846FBF7D9
:1053F0009CFD304618F010FAF7E70000000800485E
:105400002DE9FC41074600240E46254668460092D9
:1054100019F065FD0146204661F3070000090228E6
:1054200019D101A9009800F035F800990546084403
:10543000019900900144081A02280CDB684619F013
:105440004EFD60F3070404F001003870684619F05F
:1054500046FD307001252846BDE8FC81F8B50124E1
:1054600000250E4607460D606D1C042D0FDC012142
:105470006846B84701280AD19DF80000316800F05D
:105480007F0202FB0411E40131600006ECD42846DF
:10549000F8BD0000024A10600248FFF7DFBF0000BD
:1054A000D8020020A1B6000810B504460020CA1793
:1054B00001EB526323F07F02891ACAB2D911002985
:1054C00001DD42F08002225400F10100EFDC10BD4A
:1054D000401C802801DA401C7047B0F5804F01DA8B
:1054E000801C70470349884201DAC01C7047001DC8
:1054F00070470000FFFF1F002DE9F8430025884694
:10550000164604464FF0FF3701210095B0470128A9
:1055100016D169463046FFF7A1FF601C0099FFF7DE
:10552000C3FF0099401C0B18434509DC21B12044FE
:10553000B0470099884203D1207860F307052F090E
:105540003846BDE8F88300002DE9F8430646009090
:10555000884614460025104600F082F88146FFF781
:10556000B7FF404502DDA81EBDE8F8832F46394647
:1055700067F30701684610311BF017FF4946009892
:10558000FFF792FF009908440090207A04281DD06C
:105590002FA168461BF0F5FE032168461BF005FFAE
:1055A000A07E67F3070560F34105E07E08B145F092
:1055B0000405680707D594F83D0060F3C40594F826
:1055C0003C0060F34515206C40B905E022A1684617
:1055D0001BF0D7FE0421E0E7A06C08B145F0800580
:1055E000E06C08B9606D08B145F040052946684691
:1055F0001BF0DBFE218B68461BF0DDFE04F10C0185
:1056000068460EC91BF0E6FEE07E68B124346846A9
:1056100094E80E00243C1BF0DDFE3034684694E82C
:105620000E00303C1BF0D6FE280605D504F14001E3
:1056300068460EC91BF0CEFE680605D54C34684698
:1056400094E80E001BF0C6FE0098801B8CE700005B
:105650004D514973647000004D51545400000000D6
:1056600070B50446007A0025032802D0042802D031
:1056700002E00C2500E00A2504F10C0007C800F048
:105680007FF80544E07EAD1C78B1243494E807002F
:10569000243C00F075F83034064694E80700303CAE
:1056A00000F06EF8304405442D1D206C08B9A16C43
:1056B00029B1D4E9111200F063F80544AD1CE06C87
:1056C00008B9616D29B1D4E9141200F059F8054404
:1056D000AD1C284670BD2DE9FC5F1C46129ECDE92D
:1056E0000060DDF838B09046DDF830A0DDE90F232A
:1056F000894605465946204600F033F80746FFF72D
:10570000E7FE484503DD6FF0010000F027B83021C7
:1057100068F3C30164F342016AF3000101A81BF0BE
:1057200044FE39460198FFF7BFFE019908440190F5
:10573000DDE90F23594601A81BF04CFE002C03DDC8
:1057400001A80D991BF037FE324611990198FAF71E
:10575000F0FD019830440190401BD6E73CBCBDE809
:10576000C09F70B50E46114604461A463046049D49
:1057700000F006F82844801C002C00DD801C70BD61
:105780000200084602D01046FAF7F7BD7047000045
:10579000194808B5816C41F001018164816C01F008
:1057A00001010091816C41F002018164806C002252
:1057B00000F00200009011460E20FBF7A1FE0E2023
:1057C000FBF790FE002211460F20FBF799FE0F20F9
:1057D000FBF788FE002211464420FBF791FE44208F
:1057E000FBF780FE002211464520FBF789FEBDE84D
:1057F00008404520FBF776BE0010024010B5044972
:105800000448FBF733F90249491E087010BD000037
:10581000DE020020B46903082DE9F04186B01421AE
:105820006846FAF79FFD3848C16C41F00401C16435
:10583000C16C01F004010591C16C41F08001C164AB
:10584000C16C01F080010591C16C41F00201C1649D
:10585000C16C01F002010591C16C41F00101C1640C
:10586000C16C01F001010591C16C41F00801C164F6
:10587000C06C012200F00800244E5403059021461C
:105880003046FBF75AFBDFF8888000224FF40341D3
:105890004046FBF752FB0022C0213046FBF74DFB90
:1058A0000125CDE900450024029469463046039461
:1058B000FBF766FAE8030327CDE90005CDE90247C7
:1058C00069464046FBF75CFAC020CDE90005CDE90A
:1058D000024769463046FBF753FA2802CDE9000536
:1058E0000220CDE9020469464046FBF749FA680206
:1058F0000090CDE90154694640460394FBF740FA15
:1059000006B0BDE8F0810000001002400008004829
:1059100000040048134810B5114901601249416064
:1059200000210122C0E90212016141618161C1616E
:105930000162FBF7A1FB08B1FBF796F800210948CB
:10594000FBF706FB08B1FBF78FF800210548FBF7D2
:105950002AFB002803D0BDE81040FBF785B810BD36
:1059600000540040F0020020912970000D4810B54D
:105970000B4901604FF4E1314160002181600C224C
:10598000C160C0E90412816101624162FDF710FE4D
:10599000002803D0BDE81040FBF766B810BD00003A
:1059A000008000403C0300200648054901600021BA
:1059B00041608160C16001614161816170470000A7
:1059C000002801401C050020124810B51049016054
:1059D0004FF48271416000214FF4E062C0E902128D
:1059E00002220261012242615202C0E906210162E3
:1059F00007224162C0E90A1201634163FDF7E0F941
:105A0000002803D0BDE81040FBF72EB810BD000001
:105A100000380040A00500200D4810B50B4901607A
:105A20004FF4E1314160002181600C22C160C0E986
:105A300004128161C16101624162FDF7B9FD002874
:105A400003D0BDE81040FBF70FB810BD003801408F
:105A5000C0030020FEE7FEE710B504460020254BFA
:105A60000246B4F5006F06D1D3F8882002F4400254
:105A7000B2F5400F09D0204CB2F5000F07D0002A34
:105A800004D11A6812011FD419E01C4810BD1A680D
:105A9000920114D5DA68D20311D5D868C0F3021088
:105AA000401CB1FBF0F1D868C0F30622D868C00EE4
:105AB00001D1D86818E05143B1FBF0F010BD19686E
:105AC0004905FBD5204610BD1A69D203F7D5D86821
:105AD000C0F30210401CB1FBF0F11869C0F30622BC
