:020000040800F2
:1000000040170020A5010008733D00084F2D00088F
:10001000713D0008A3040008ED5000080000000036
:10002000000000000000000000000000334900084C
:1000300003050008000000003502000835490008EB
:10004000BF010008BF010008BF010008BF01000890
:10005000BF010008BF010008BF010008BF01000880
:10006000BF010008BF010008BF010008BF01000870
:10007000BF010008BF010008A5040008B104000882
:10008000BF010008BF010008BF010008BF01000850
:10009000BF010008BF010008BF010008BF01000840
:1000A000BF010008214A0008BF010008BF01000885
:1000B000BF0100080000000000000000BF010008B0
:1000C000BF010008BF010008BF010008BF01000810
:1000D00015490008E1500008BF010008BF010008F1
:1000E000BF010008BF010008000000000000000080
:1000F0000000000000000000000000000000000000
:1001000000000000C53F000800000000BF0100081B
:100110000000000000000000BF010008BF0100084F
:10012000BF010008BF010008BF010008BF010008AF
:10013000BF010008000000000000000000000000F7
:10014000BF010008BF010008BF0100080000000057
:10015000BD040008C904000869370008BF01000891
:10016000BF010008BF010008BF0100080000000037
:10017000BF010008BF0100080000000000000000EF
:10018000BF010008BF010008BF010008DFF810D060
:1001900000F028F9004800476D5D0008AFF30080CB
:1001A000401700200648804706480047FEE7FEE764
:1001B000FEE7FEE7FEE7FEE7FEE7FEE7FEE7FEE717
:1001C000114A00088D01000872B6344834490268AB
:1001D00041EA0201016033484FF0010101603248F9
:1001E0004168016001688A884FF0100342EA030207
:1001F0008A80D1F800C00CF1240C0CF1040CBCE88E
:10020000FF008CF309884FF0020C8CF31488AE4683
:1002100062B63047EFF3108072B67047EFF310808C
:1002200062B6704780F31088704720484FF08051C5
:1002300001607047EFF3108C72B61D4A126822B14C
:100240002DE900509047BDE80050EFF309801EF003
:10025000100F08BF20ED108B40F804ED20E9F01FCF
:10026000114D4FF010082E683060B78827EA080754
:10027000B78068682860878847EA08078780016830
:1002800000F018B851F804EB1EF0100F08BF00F092
:1002900016B881F309888CF31088704720ED00E0D0
:1002A0000000FFFF640000206800002004ED00E073
:1002B0004C00002030C9B1E8C01FFFF7E3BFB1EC2C
:1002C000088BB1EC08CBFFF7E4BF2DE9F05F0546E2
:1002D000002092469B4688460646814640241BE005
:1002E000284641464746224600F06BF853465A4698
:1002F000C01A914110D311461846224600F052F818
:100300002D1A67EB01084F4622460120002100F01C
:1003100049F817EB00094E41201EA4F10104DFDC6F
:10032000484631462A46434600F000B830BCBDE896
:10033000C09F40EA01039B0703D009E008C9121FD0
:1003400008C0042AFAD203E011F8013B00F8013B8F
:10035000521EF9D27047D2B201E000F8012B491EBB
:10036000FBD270470022F6E710B513460A46044652
:100370001946FFF7F0FF204610BD421C10F8011B84
:100380000029FBD1801A704710B5002200E0521CF2
:10039000835C8C5CA34201D1002BF8D1D8B2E1B2CE
:1003A000401A10BD202A04DB203A00FA02F1002096
:1003B00070479140C2F1200320FA03F319439040A3
:1003C0007047202A04DB203A21FA02F0002170470E
:1003D00021FA02F3D040C2F12002914008431946AD
:1003E00070470000064C074D06E0E06840F001034E
:1003F00094E8070098471034AC42F6D3FFF7CAFEE2
:1004000060760008807600087047000001460148C9
:1004100001F08EBBF402002010B5044801F09AFBF5
:10042000042801D0012010BD002010BDF4020020DE
:1004300010B500F00BF8012801D0022010BDBDE876
:100440001040014801F098BCF402002008B50120DA
:100450008DF800009DF8000008BD000038B50024AC
:10046000009313460A460146034801F04FFD00B1D0
:100470000124204638BD0000F4020020704700002F
:1004800038B50024009313460A460146034801F09C
:1004900035FE00B10124204638BD0000F4020020E2
:1004A0007047FEE7014800F09FB80000AC02002052
:1004B000014800F099B80000DC030020014800F07A
:1004C00093B800001C020020014800F08DB8000025
:1004D0006402002030B590F8444004F01C0501246B
:1004E000AC40056C6C60046863608368102B036823
:1004F00003D099600068C26030BD9A600068C16036
:1005000030BD704772B6FEE7002200F001B800006F
:1005100030B50E4B054601205C7A002C14D1587A78
:100520001C54587A03EB800045605D7A03F10800A3
:100530002A54587A421C5A72303008703A20487057
:100540002F208870CC70002030BD000034070020C0
:1005500010B590F825100022022905D00421C163AE
:1005600080F82420012010BD01680B6823F00E03E1
:100570000B6001680B6823F001030B6090F84410D6
:10058000046C01F01C03012101FA03F3636080F89D
:10059000251080F82420104610BD10B590F82510C5
:1005A0000024022903D00421C16301241AE0016858
:1005B0000A6822F00E020A6001680A6822F001024D
:1005C0000A6090F84410036C01F01C02012101FA4A
:1005D00002F25A6080F82510002180F82410816B07
:1005E00001B18847204610BDF0B4016C0C68016869
:1005F0000D6890F8442002F01C06042202FA06F36B
:10060000234211D06B070FD50B689B0603D40B68F0
:1006100023F004030B6090F8441001F01C018A40A1
:10062000016C4A60016B1DE0022303FA06F72742C2
:100630004FF0000C4FF0010218D0AF0716D50C6830
:10064000A40605D40C6824F00A040C6080F8252068
:1006500090F8441001F01C018B40016C4B6080F855
:1006600024C0C16A00291AD0F0BC08470823B3404F
:10067000234214D02B0712D50B6823F00E030B6016
:1006800090F84410036C01F01C0102FA01F159606A
:10069000C26380F8252080F824C0416BE2E7F0BCFB
:1006A0007047000070B568B12B4C036814212B4AC9
:1006B000A34209D22A4C1C44B4FBF1F18900C0E9E1
:1006C00010210BE0012070BD234C64421C44B4FB9C
:1006D000F1F189004164204908390164022180F860
:1006E00025101C6847F6F0718C43D0E902152943A8
:1006F000D0E904563543294385692943C56929430F
:10070000056A2943214319608168B1F5804F19D0EA
:10071000036C0F21934202D152F8A83F02E00E4A27
:10072000A032136890F8444004F01C04A1408B43AD
:10073000136090F84430416803F01C03994013683B
:10074000194311600021C163012280F8252080F83F
:100750002410084670BD000008040240000002405A
:10076000F8FFFDBF70B5044690F82400002501286D
:100770000CD0012084F8240094F825600020012E7C
:1007800006D084F824000225284670BD022070BDE2
:10079000022684F82560E0632068066826F00106DA
:1007A00006602046FFF796FE206B0028206801684F
:1007B00002D041F00E0106E021F004010160206842
:1007C000016841F00A0101602068016841F00101FF
:1007D0000160D9E770B5044600F006F90546601CD3
:1007E00002D004480078044400F0FEF8401BA04208
:1007F000FAD370BD140000202DE9F04FDFF8AC9162
:1008000000230325A9F1040B85B04FF0010C0F273D
:1008100009F1040AABF1040EBFE000BF0CFA03F6C5
:10082000324075D00C7904F00304012C01D0022C65
:100830001BD1846800945C0005FA04F80494009CC1
:1008400024EA08040094D1F80C80049C08FA04F807
:10085000009C48EA0408C0F808804468B4430E7954
:10086000C6F300169E40264346600C79E443A40775
:100870000AD0C4684FEA430805FA08F6B4438E6804
:1008800006FA08F62643C6600C7904F00304022C2D
:1008900010D1DC0800EB84040294246A5E074FEA5E
:1008A000D66807FA08F6B4430E6906FA08F6264336
:1008B000029C266204684FEA430805FA08F6B4432E
:1008C0000E7906F0030606FA08F6264306604C6821
:1008D00014F4403F60D0364C266E46F00106266682
:1008E000246E23F0030604F001040094314C3444D8
:1008F0000294A4689E074FEA167807FA08F6B443F4
:10090000B0F1904F05D02C4EB04204D1012612E038
:1009100042E000260FE0294EB04201D102260AE053
:10092000274EB04201D1032605E0264EB04201D148
:10093000042600E0072606FA08F62643029CA66075
:10094000D9F800604C46D1F8048096435FEAC82885
:1009500000D516432660DAF800405646D1F80480E8
:1009600094435FEA882800D514433460DBF80040E4
:100970005E46D1F8048094435FEA883800D514437A
:100980003460DEF800407646D1F8048094435FEA94
:10099000C83800D5144334605B1C0A6832FA03F48B
:1009A0007FF43CAF05B000F00FB800000804014030
:1009B0000010024000000140000400480008004808
:1009C000000C00480010004830BCBDE8C08F4269F0
:1009D00021EA02030A4043EA0241816170470AB1F9
:1009E00081617047816270470148806870470000EC
:1009F0001400002002488168027811448160704729
:100A00001400002010B50024032000F089F8002015
:100A100000F008F808B1012401E000F03DF820469C
:100A200010BD000000B5014687B00022192000F07B
:100A300057F8192000F046F81348016E41F40061A0
:100A40000166006E05A900F400600690684600F09B
:100A500051FC00F081FC0D490D4AB0FBF1F10D484D
:100A6000491E0260416040F2E7320021C0E90321E3
:100A7000816001F076FD10B1012007B000BD05488E
:100A800001F0A2FDF9E700000010024040420F0013
:100A9000002C014024040020094808B5016E41F0F3
:100AA00001010166016E01F001010091816D41F0CB
:100AB00080518165806D00F08050009008BD00007D
:100AC00000100240002809DB00F01F0201219140C4
:100AD0004009800000F1E020C0F8001170470000DC
:100AE000F0B40E4B1B680C46C3F30223C3F1070599
:100AF000042D00D90425191D072901D2002300E087
:100B0000DB1E012606FA05F1491E214099409E4050
:100B1000761E16403143F0BC04F00EBB0CED00E035
:100B2000064900F0070208684FF6FF03184040EA44
:100B30000220034A10430860704700000CED00E0FB
:100B40000000FA051649B0F5007F0868C0F341209F
:100B500009D0022805D0086820F4C06040F4806005
:100B60000860002070470128FBD0086820F4C060AE
:100B700040F4007008600B483222006850430A4A73
:100B8000B0FBF2F0401C00E0401E4A69520501D55E
:100B90000028F9D148694005E3D5032070470000DB
:100BA000007000402000002040420F000248006812
:100BB00000F4C06070470000007000402DE9F05F55
:100BC00003460020C24A4FF4FA484FF40045B3F5FB
:100BD000003F0CD0D168F02601F00301BD4FBE4CA0
:100BE000012923D0022933D003293BD135E0D2F8A3
:100BF000901001F44071B1F5807F0BD0B1F5007F0A
:100C00000ED0B1F5407F03D11168890300D5B348F8
:100C100000F06AB9D2F890108907F9D52846F7E7AD
:100C2000D2F894108907F3D54046F1E71168890797
:100C300018D51168090703D5116801F0F00103E028
:100C4000D2F8941006EA1111090957F821100AE0A8
:100C50001168490506D5214605E01168890301D5CB
:100C60009F4900E000214FF480694FF4804A4FF41F
:100C7000802B4FF4002E4FF4006CB3F5007F78D03A
:100C800027DC202B76D011DC012B74D0022B73D003
:100C9000042BBDD1D2F8881011F030016DD010298D
:100CA0002AD0202914D03029B2D1B3E7402B79D0F3
:100CB000802B78D0B3F5807FAAD1D2F8881011F4B8
:100CC00040315AD0B1F5803F16D0B1F5003F9FD1E9
:100CD000F3E0AB4268D010DC4B4578D0634529D0B7
:100CE000534595D1D2F8883003F04053B3F1805F7B
:100CF0006ED0B3F1405F8BD1B6E05B4501D0734558
:100D000086D1D2F8883013F040634ED0B3F1806FB3
:100D100034D0B3F1006F1AD0B3F1406F85D11168B0
:100D200089077FF57CAF1068000708D5106800F0D0
:100D3000F00008E0604600F0DAB803F01BB8D2F823
:100D4000940006EA1010000957F8200060E71368C5
:100D50009B01FBD5D368DB02F8D5D068C0F3062031
:100D60004143D068C0F30210401CB1FBF0F0D168E1
:100D700015E07DE03DE01EE02FE0A3E013681B01DD
:100D8000E4D51369DB02E1D51069C0F306204143C5
:100D9000D068C0F30210401CB1FBF0F01169C1F340
:100DA000415146E04AE055E07FE0D2F898108907CB
:100DB000CCD54C482CE7D2F8881011F0030108D0AC
:100DC000012951D0022978D00329BFD122E75DE063
:100DD0001CE000F091B800F0BFBAD2F8881011F012
:100DE0000C0170D004293FD0082966D00C29ADD160
:100DF00010E7D2F8881011F4406164D0494533D02F
:100E000061455AD0B1F5406FA0D103E713681B01CB
:100E10009CD51369DB0199D51069C0F306204143C5
:100E2000D068C0F30210401CB1FBF0F01169C1F3AF
:100E30004161491C4900B0FBF1F0E9E6D2F88810A5
:100E400011F440513FD0B1F5805F0DD0B1F5005F96
:100E5000B0D132E0D2F8881011F4404133D051457E
:100E600002D0A942A6D128E000F04BB800F086BA23
:100E7000D2F8881011F4402125D059453FF4D0AE66
:100E800071451AD0B1F5402F94D1C3E6D2F888103D
:100E900011F4401117D0B1F5801FEFD0B1F5001F4C
:100EA0000BD0B1F5401F85D1B4E6D2F8881011F00F
:100EB000804108D0B1F1804FBFD111684905BCD540
:100EC0002046A5E6FFE700F021B800F033BA0000A5
:100ED00000100240247500080024F40090D00300A4
:100EE00000127A00006CDC0230BCBDE8C09F30BC50
:100EF000BDE8C05FFFF721BF30BCBDE8C05FFFF7B2
:100F00006ABF30BCBDE8C05FFFF7B0BF30BCBDE812
:100F1000C05FFFF7DABF00002DE9F84F0446002755
:100F20000088A84D3E46000515D5606C60B1B0F54F
:100F3000000F04D0B0F5400F2BD001270AE0E8687D
:100F400040F48030E86024E00021201D02F066FFBC
:100F500007001ED03E46206880033AD5A86D4FF0AA
:100F60000008C00009D4A86D40F08050A865A86DA5
:100F70004FF0010800F080500090DFF84CA2DAF842
:100F8000001041F48071CAF80010FFF72DFD814672
:100F900010E0D5F88800616C20F440000843C5F8E3
:100FA0008800D8E7FFF720FDA0EB0900022801D94F
:100FB000032705E0DAF80000C005F3D5002F7DD047
:100FC0004FEA0706B8F1000F03D0A86D20F080505B
:100FD000A8652078C00707D0D5F88800216A20F0DE
:100FE00003000843C5F888002078800707D5D5F8A6
:100FF0008800616A20F00C000843C5F8880020785A
:10100000400707D5D5F88800A16A20F030000843D2
:10101000C5F888002078800607D5D5F88800E16AF1
:1010200020F440600843C5F888002088800507D573
:10103000D5F88800E16B20F440200843C5F888000B
:101040002088400507D5D5F88800216C20F4401091
:101050000843C5F888002078400607D5D5F88800F1
:10106000216B20F440500843C5F888002078000622
:1010700007D5D5F88800616B20F440400843C5F8D7
:1010800088002088C00507D5D5F88800A16B20F41A
:1010900040300843C5F8880020684FF0006700031F
:1010A0004FF0806850D5D5F88800A16C20F04060E2
:1010B0000843C5F88800A06CB84200E005E03BD1C9
:1010C000E86840F48010E8603EE0D5F8900010F445
:1010D000407014D0A16D814211D0D5F89000D5F8A0
:1010E000901020F4407041F48031C5F89010D5F88C
:1010F000901021F48031C5F89010C5F89000C00719
:1011000011D0FFF771FC074641F2883907E000BFB4
:10111000FFF76AFCC11B494501D9032652E7D5F800
:1011200090008007F4D5D5F89000A16D20F44070B0
:101130000843C5F8900045E7404505D10121201D31
:1011400002F06CFE00B106462068400317D5D5F8C2
:101150008800E16C20F040600843C5F88800E06C2E
:10116000B84204D1E86840F48010E86007E04045E8
:1011700005D10121201D02F051FE00B10646208854
:10118000400411D5D5F88800216D20F04050084367
:10119000C5F88800206DB0F1805F05D10221201DC7
:1011A00002F03CFE00B106462088000406D555F842
:1011B000880F616D20F0804008432860304600F0C1
:1011C00005B80000001002400070004018BCBDE8E7
:1011D000E08F00002DE9F0470F46050058D0404E43
:1011E000306800F00700B84209D2306820F00700EC
:1011F00038433060306800F00700B84248D12878A2
:10120000384CC0072CD06868032811D0022812D0AF
:10121000216898B1490500293ADAA16821F0030153
:101220000143A160FFF7E0FB804641F2883910E0FE
:1012300021688901EFE721688903ECE78907EAE77C
:10124000FFF7D2FBA0EB0801494502D90320BDE816
:10125000F087A068696800F00C00B0EB810FEFD157
:101260002878800705D5A068A96820F0F000084319
:10127000A060306800F00700B8420BD9306820F059
:10128000070038433060306800F00700B84201D0F2
:101290000120DCE72878400705D5A068E96820F43C
:1012A000E0600843A0602878000706D5A068296997
:1012B00020F4605040EAC100A06000F05FF8A1682F
:1012C000094AC1F30311515C01F01F01C8400749ED
:1012D000086007480068BDE8F047FFF7A3BB0000BF
:1012E0000020024000100240147500082000002079
:1012F000180000200F2202600C4A936803F00303D9
:101300004360936803F0F0038360936803F4E06341
:10131000C36092684FF4E06303EAD20202610448BA
:10132000006800F0070008607047000000100240ED
:10133000002002400548064900688968054AC1F353
:101340000221515C01F01F01C840704720000020BD
:101350000010024054750008054806490068896875
:10136000054AC1F3C221515C01F01F01C84070471A
:1013700020000020001002405475000870B5254977
:10138000002318468A68CC6812F00C0204F00306A9
:10139000214C4FEA640509D00C2A05D0042A32D02A
:1013A000082A00D1284670BD012E10D10B681B07FA
:1013B00004D4D1F89430C3F3032302E00B68C3F3E1
:1013C0000313164E56F82330DAB10C2AEBD1C86855
:1013D00000F00300022818D0032818D01846CA6865
:1013E000CB68C2F30212C3F306234343521CB3FB80
:1013F000F2F2C868C0F34160401C4000B2FBF0F05C
:1014000070BD184670BD204670BD2046E7E72846EF
:10141000E5E70000001002400024F40024750008F5
:101420002DE9F84304006FD0FE4DA86800F00C06CB
:10143000E86800F003072078C00664D576B10C2E6A
:1014400001D1012F0AD0A069002828687AD040F085
:1014500001002860FFF7C8FA80465DE02868800731
:1014600002D5A0690028DED0216A2868000703D5CC
:10147000286800F0F00004E0D5F89400F02202EAB9
:101480001010814216D9084602F05EFD00283BD1BB
:10149000286840F0080028602868216A20F0F000E1
:1014A000084328606868E16920F47F4040EA012031
:1014B000686016E0286840F0080028602868216A03
:1014C00020F0F000084328606868E16920F47F405C
:1014D00040EA0120686026B9206A02F035FD002844
:1014E000D5D1FFF74BFFA968CF4AC1F30311515C77
:1014F00001F01F01C840CD490860CD480068FFF7E2
:1015000091FA00287ED12EE0CAE000BFFFF76CFA06
:10151000A0EB0800022876D828688007F6D528684E
:1015200040F0080028602868216A20F0F000084395
:1015300028606868E16920F47F4040EA0120686023
:1015400011E0FFE720F001002860FFF74DFA804628
:1015500006E000BFFFF748FAA0EB08000228DAD83F
:1015600028688007F6D42078C00740D0082E18D00D
:101570000C2E01D1032F14D06068B0F5803F17D036
:10158000B0F5A02F286817D020F480302860286894
:1015900020F4802028606068E0B1FFF725FA8046DB
:1015A00014E02868800322D56068002878D01EE007
:1015B000286840F48030EDE740F480202860F7E7A9
:1015C000FFF712FAA0EB08006428A4D8286880036B
:1015D000F6D50CE0FFF708FA804605E0FFF704FABD
:1015E000A0EB0800642896D828688003F6D42078F9
:1015F00080073BD5042E11D00C2E01D1022F0DD027
:10160000E06801E0B6E1FFE0002828681ED040F461
:1016100080702860FFF7E8F907460CE0286840056D
:101620000CD5E0680028C1D008E000BFFFF7DCF966
:10163000C01B022893D828684005F7D56868217C2C
:1016400020F0F85040EA016068600FE020F48070FC
:101650002860FFF7C9F9074605E000BFFFF7C4F9A6
:10166000C01B0228B1D828684005F7D420780007AD
:1016700029D560690028D5F8940012D040F0010007
:10168000C5F89400FFF7B0F9074604E0FFF7ACF99E
:10169000C01B022899D8D5F894008007F6D512E02F
:1016A0002BE120F00100C5F89400FFF79DF90746F3
:1016B00005E000BFFFF798F9C01B022885D8D5F8D0
:1016C00094008007F6D42078400766D5A86D0027DF
:1016D000C00008D4A86D40F08050A865A86D01270F
:1016E00000F08050009053480168C90512D4016889
:1016F000814641F480710160FFF776F9804605E08C
:10170000FFF772F9A0EB080002287DD8D9F8000095
:10171000C005F5D5A068012816D00528D5F8900099
:1017200017D020F00100C5F89000D5F8900020F007
:10173000040000BFC5F89000A06841F28839C0B12C
:10174000FFF752F980460FE0D5F8900040F0010015
:10175000F0E740F00400C5F89000F5E7FFF744F922
:10176000A0EB080149454FD8D5F890008007F5D582
:101770000EE0FFF739F9804606E000BFFFF734F9C5
:10178000A0EB080149453FD8D5F890008007F5D473
:101790001FB1A86D20F08050A8652078800628D55C
:1017A000606A0028D5F8980012D040F00100C5F812
:1017B0009800FFF719F9074605E000BFFFF714F995
:1017C000C01B022820D8D5F898008007F6D510E075
:1017D00020F00100C5F89800FFF706F9074604E07D
:1017E000FFF702F9C01B02280ED8D5F89800800731
:1017F000F6D4A06AA8B1022824D00C2E7DD0286887
:1018000020F08070286000E0B3E02868000103D475
:10181000E86820F00300E860E86807490840E860ED
:101820000CE09FE00010024014750008200000202A
:101830001800002000700040FFFFEEFEFFF7D4F814
:10184000044699E0E868E26A00F00301914226D17B
:10185000216B00F070020901103991421FD1626BB7
:1018600000F4FE41B1EB022F19D194F8382000F0BA
:101870007841B1EBC26F12D1A18F00F4C0024908C8
:101880004905A1F50011914209D194F8401000F0EA
:10189000C06049084906A1F1007181424BD00C2E6D
:1018A0006FD0286840016CD4286820F080702860D0
:1018B000FFF79AF8064604E0FFF796F8801B022827
:1018C00057D828688001F7D4F4E90B016FF00F02B4
:1018D00002EB01110843218A5204490802EB4151ED
:1018E000A26841EA02210843217D4FF07E42490867
:1018F00002EB41610843217B00E042E040EAC16025
:10190000E968214A11400843E860286840F0807087
:101910002860E86840F08070E860FFF765F80446EA
:1019200005E000BFFFF760F8001B022821D82868F7
:101930008001F7D523E02868800120D4286840F092
:1019400080702860E86840F08070E860FFF74CF82D
:10195000044604E0FFF748F8001B022809D828686D
:101960008001F7D50BE000BFFFF73EF8001B02280F
:1019700002D90320BDE8F88328688001F4D4002050
:10198000F8E70120F6E700008C809D0110B5FEF716
:101990003BFD10BD70470000F0B5426E920F0A701B
:1019A000426EC2F383624A70426EC2F301628A7071
:1019B000426E120CCA70B0F86420120A0A7190F8D4
:1019C00064204A71826E120DCA80826EC2F3034295
:1019D0000A72B0F86820C2F3C0324A72B0F86820C8
:1019E000C2F380328A72B0F86820C2F34032CA7201
:1019F000B0F86820C2F300320A7300264E73426CBE
:101A00004FF40075012462B1012A3AD002684749B7
:101A10009163816B41F08051816380F834400120F3
:101A2000F0BDB0F86820C36E9205120D42EA9372C1
:101A30000A61C26EC2F3C2620A75C26EC2F302626A
:101A40004A75C26EC2F342528A75C26EC2F38242B6
:101A5000CA75C26EC2F3C2320A760A69521C426566
:101A60000B7E03F007039B1C9A4042650B7A03F040
:101A70000F0704FA07F383655B0A5A43C0E9172589
:101A80000EE090F86820C36E9206920A42EA134272
:101A90000A610A69521C92024265C0E91652056643
:101AA00030F86C2FC2F3803201F8192F0288C2F38C
:101AB000C6124A70027802F07F028A704268D20F22
:101AC000CA704268C2F341720A714268C2F382620C
:101AD0004A714268C2F383528A714268C2F340522B
:101AE000CA710E724268C2F300424A728288C2F31F
:101AF000C0328A728288C2F38032CA728288C2F38C
:101B000040320A738288C2F300324A738288C2F379
:101B100081228A738288C2F30122CA730079C0F3DA
:101B2000460008744C740020F0BD0000FF05400022
:101B3000426C0A60826C4A60C26C8A60026DCA6044
:101B4000426D0A61826D4A61C26D8A61006EC86130
:101B50000020704770B50446B0F85000002501041D
:101B6000206802F03AFB18B1A16B0143A16304E0C5
:101B70000021206802F00EFD0546C5F3432070BD2C
:101B80002DE9F843056B04460068416B09041CD538
:101B900029071AD5D4E90A56002E14D00027206848
:101BA00002F014FD05F8010B010A05F8011B010CF8
:101BB00005F8021B000E361F7F1C05F8010C082FCC
:101BC000EDD3C4E90A56BDE8F883416B4FF0000637
:101BD000C90540F23A584FF0010743D539028163F5
:101BE0002068C16B4CF23A129143C1632068C16A0C
:101BF00021F00101C16228071CD515F0220F09D080
:101C0000206802F01BFB28B1A16B0143A1632046B1
:101C1000FFF7C0FE2168C1F8388084F8347026636D
:101C2000A80703D0204600F060FACCE7204600F079
:101C300060FAC8E72806C6D5A80609D5206802F0CC
:101C4000FDFA28B1A16B0143A1632046FFF7A2FE74
:101C5000A807B8D12068C16A21F00801C16284F8E0
:101C60003470E3E7416B490423D5290721D5D4E932
:101C70000856002EA7D0002715F8010B009015F884
:101C8000011B361F40EA0120009015F8021B40EAB4
:101C90000140009015F8011C40EA0160009069467F
:101CA000206802F0A6FC7F1C082FE5D3C4E9085683
:101CB00089E7416B11F03A0F85D0416B890703D555
:101CC000A16B41F00201A163416B090703D5A16B30
:101CD00041F00801A163416B890603D5A16B41F076
:101CE0002001A163416BC90603D5A16B41F010012E
:101CF000A163C0F838802068C16B21F49D71C16375
:101D0000206802F09BFAA16B0843A063280706D560
:101D100084F8347026632046FFF73CFE53E728061C
:101D200087D515F0300F0CD0E16B11488863E06B5C
:101D3000FEF733FC0028BBD0E06BBDE8F84302F0AF
:101D40008FBCA8070CD0216C0A488863206CFEF772
:101D500024FC0028ACD0206CBDE8F84302F05EBC47
:101D6000A66384F8347026632046FFF70FFE2AE747
:101D7000614600081D46000870B504000ED094F8B6
:101D80003400002518B92577204600F075F80320A7
:101D900084F83400204600F00BF808B1012070BD33
:101DA000A5632563012084F83400002070BD000085
:101DB0002DE9FE4304464FF000084FF40020FEF7E3
:101DC000FDFE05004FF001072ED02648CDF800801B
:101DD000B5FBF0F6B61ECDE90186424643461146F4
:101DE000206802F0DAFB2068416821F480714160CC
:101DF000206802F0E3FB2068416841F48071416093
:101E0000B61CB5FBF6F01849B1FBF0F0401CFEF72C
:101E1000E1FC204602F0BEFC60B100BF84F83470E3
:101E2000A16B0143A16319E084F834704FF00060A6
:101E3000A06313E0204602F035FC0028EED14FF4F9
:101E40000071206802F0F8F8002808D022680749DD
:101E50009163A16B0143A16384F83470012000F009
:101E600007B80000801A060010210100FF0540009D
:101E700006BCBDE8F8830000F0B587B00446142125
:101E80006846FEF76FFA1D492068884233D11C4826
:101E9000016E41F480610166016E01F4806105917B
:101EA000C16C41F00401C164C16C01F004010591F1
:101EB000C16C41F00801C164C06C022400F008004C
:101EC00005904FF48850002503260C278DE8F1007B
:101ED00069460C48FEF790FC04208DE8F100694645
:101EE0000948FEF789FC002211463120FEF7F8FD73
:101EF0003120FEF7E7FD07B0F0BD000000280140EB
:101F00000010024000080048000C00482DE9F04F86
:101F100087B09B4616460D460446FEF765FD0090C9
:101F20003DB194F83400012807D0A06B40F0005078
:101F30000DE0A06B40F0006009E00020A063E26DBE
:101F400006EB0B01914204D9A06B40F00070A06336
:101F500085E0032184F834102168C862616C01298E
:101F600000D076024FF0FF3101914FEA4B210291F0
:101F70004FF0010803AA902102278146CDF818806E
:101F800082E8820201A9206802F0A4F9BBF1010FE6
:101F900005D927633146206802F0A8F805E0C4F8A7
:101FA00030803146206802F0BAF8DFF834A130B151
:101FB0002268C2F838A0A16B0143A1634BE0029EE6
:101FC0001EE0406B000413D596B10027206802F094
:101FD000FDFA05F8010B010A05F8011B010C05F8D3
:101FE000021B000E361F7F1C05F8010C082FEDD3D5
:101FF000FEF7FAFC0099411A109881421CD2D8B120
:102000002068416B11F4957FDBD0416BC90509D580
:10201000BBF1010F06D9616C032903D002F00EF960
:102020000028C5D12068416B09071AD5C0F838A02F
:10203000A06B40F0080051E02168C1F838A0A06B07
:1020400040F00040A06384F83480C4F8309003204E
:1020500007B000F047B884F83480C4F8309001200D
:10206000F6E7416B890705D5C0F838A0A06B40F0B2
:10207000020033E0416B89061CD5C0F838A0A06B84
:1020800040F020002AE000BF02F0A0FA05F8010BA2
:10209000010A05F8011B010C05F8021B000E05F8EA
:1020A000010C361FFEF7A0FC0099411A10988142DE
:1020B0000ED268B12068416B890201D5002EE3D1B0
:1020C000216840F23A50886384F834800020BFE7EA
:1020D0002168C1F838A0A06B40F00040A063BAE7C7
:1020E000FF05400030BCBDE8C08F10B5FEF7C6F953
:1020F00010BD10B5FEF7D4F910BD00002DE9F04F6A
:102100008DB09B4616460D460446FEF76DFC0A90C0
:102110003DB194F83400012807D0A06B40F0005086
:102120000DE0A06B40F0006009E00020A063E26DCC
:1021300006EB0B01914204D9A06B40F00070A06344
:102140007AE0032184F834102168C862616C0129A7
:1021500000D076024FF0FF3103914FEA4B210491FA
:102160009021CDE905104FF00109CDE9070982461C
:1021700003A9206802F0AEF8BBF1010F06D92020B8
:1021800020633146206802F073F805E010202063D8
:102190003146206802F085F85FEA000806D0216821
:1021A00040488863A06B40EA080071E0049E27E085
:1021B000406B40041CD5DEB15FF0000715F8010B41
:1021C000009015F8011B361F40EA0120009015F819
:1021D000021B40EA0140009015F8011C40EA016032
:1021E00000906946206802F004FA7F1C082FE5D3AE
:1021F000FEF7FAFB0A99411A1698814220D2F8B1EB
:102200002068416B11F48D7FD2D0416BC90524D574
:10221000BBF1010F21D9616C03291ED002F00EF829
:10222000D8B122681F499163A16B0143C4F83810EB
:1022300084F83490C4F830A001200DB000F034B818
:10224000216818488863A06B40EA0800A06384F8FE
:102250003490C4F830A00320EFE72068416B0907F1
:1022600005D510498163A06B40F0080010E0416B78
:10227000890705D50B498163A06B40F0020007E098
:10228000416BC90606D507498163A06B40F0100079
:10229000A063CDE740F23A51816384F83490002086
:1022A000CBE70000FF05400030BCBDE8C08F7047A1
:1022B00038B5016804464A688868C043430606D5B5
:1022C000C30704D1D3435B0601D4E16C05E0830767
:1022D00008D4D3431B0605D4216D01B02046BDE8C8
:1022E00030400847830603D5430601D5C30551D4C2
:1022F000D3439B064ED443060AD494F85D30032B97
:1023000049D0236E43F004032366CB688B680093A7
:10231000830609D4236E43F0010323668B68009380
:102320000B6823F040030B60C00506D4206E40F01C
:1023300008002066206880680090206E002829D060
:102340002068416821F0E0014160012084F85D00CF
:10235000900701D4D00722D02068416821F0030102
:102360004160114DA06D40B18563A06DFEF715F978
:1023700018B1206E40F040002066606D002809D042
:102380008563606DFEF709F9002803D0206E40F0E8
:102390004000206638BDC8688868009038BD204677
:1023A000FFF785FF38BD00002149000870B5040023
:1023B00009D0606A002540B125616561A56294F885
:1023C0005D0040B10CE0012070BD6068B0F5827F17
:1023D000F4D0E561F2E784F85C50204600F056F84E
:1023E000022084F85D002068016821F0400101604E
:1023F000E1684FF4E062914201D9002001E04FF41E
:102400008050B1F5706F02D0914200D0A562A188D2
:10241000228901F4827102F404421143227C02F009
:1024200002021143227D02F001021143228B02F4C9
:1024300000721143227F02F03802114394F82020E9
:1024400002F080021143228D02F4005211432268EF
:102450001160A169042202EA114194F8242000F4D9
:10246000805002F01002114394F8342002F0080268
:102470001143A28902F47062114301432068416054
:102480002566012084F85D00002070BD2DE9F04133
:1024900086B0064614216846FDF764FF2949306876
:1024A00088424BD12849886D40F480408865886D0A
:1024B00000F480400590C86C40F00400C864C86C0B
:1024C00000F004000590C86C40F00200C864C86CBD
:1024D000052700F0020005900820022400254FF097
:1024E000030804978DE8310169461848FEF784F91E
:1024F000200304978DE8310169461548FEF77CF901
:10250000154C14482060012060601020C4E90205C9
:102510008020C4E90405A561E56120462562FEF737
:10252000C1F808B1FDF7EEFF7465002211462420C2
:10253000A662FEF7D5FA2420FEF7C4FA06B0BDE87D
:10254000F081000000380040001002400008004800
:102550000004004858000240DC0300207047704728
:10256000704710B5040003D094F83D0010B107E0A7
:10257000012010BD002084F83C00204600F022F825
:10258000022084F83D00211D206802F055FA012048
:1025900084F8480084F83E0084F83F0084F8400046
:1025A00084F8410084F8420084F8430084F8440031
:1025B00084F8450084F8460084F8470084F83D001C
:1025C000002010BD7047000090F83D10012901D097
:1025D00001207047022180F83D100168CA6842F06E
:1025E0000102CA6000680B49884205D0B0F1804FF3
:1025F00002D00949884207D18168084A114006295A
:1026000006D0B1F5803F03D0016841F001010160BF
:1026100000207047002C01400040014007000100ED
:10262000704770B50446006801694FF00005C94362
:10263000890715D4C168C943890711D4E91E01610E
:1026400001202077206880698007204602D0FFF7AC
:10265000E7FF04E000F0A7F8204600F0A5F8257792
:1026600020680169C943490717D4C168C9434907AC
:1026700013D46FF004010161022020772068806983
:1026800010F4407F204602D0FFF7CAFF04E000F0BC
:102690008AF8204600F088F8257720680169C94348
:1026A000090716D4C168C943090712D46FF008019D
:1026B0000161042020772068C0698007204602D08D
:1026C000FFF7AEFF04E000F06EF8204600F06CF873
:1026D000257720680169C943C90617D4C168C94371
:1026E000C90613D46FF0100101610820207720681B
:1026F000C06910F4407F204602D0FFF791FF04E04C
:1027000000F051F8204600F04FF825772068016965
:10271000C943C90708D1C168C943C90704D1891E83
:102720000161204600F042F820680169C9430906AA
:1027300009D4C168C943090605D46FF0800101615D
:102740002046FFF70CFF20680169C943C90509D479
:10275000C168C943090605D46FF480710161204640
:10276000FFF7FCFE20680169C943490609D4C16826
:10277000C943490605D46FF040010161204600F0CD
:102780001FF820680169C94389060BD4C168C94391
:10279000890607D46FF0200101612046BDE8704032
:1027A000FFF7DEBE70BD7047704700000068034948
:1027B000884201D1FEF71EB970470000002C01408D
:1027C00070477047704770472DE9F0410268044632
:1027D000D0691168936840F60F0528424FF0000554
:1027E00005D186067ED58E067CD5616E1BE1994F9C
:1027F00003F001060F40374374D0C70709D0CF0557
:1028000007D501271762D4F8802042F00102C4F8EE
:10281000802082070AD5DA0708D0276802223A62A8
:10282000D4F8802042F00402C4F8802042070AD580
:10283000DA0708D0236804221A62D4F8802042F014
:102840000202C4F8802002070CD501F020023243B6
:1028500008D0236808221A62D4F8802042F00802C7
:10286000C4F8802002050BD54A0109D523684FF42E
:1028700000621A62D4F8802042F02002C4F880205E
:10288000D4F88020002A35D0800605D5880603D5E7
:10289000616E09B120468847D4F8800021688968B4
:1028A000490602D410F0280F26D0204602F030FA54
:1028B0002068806840061AD52068083050E8001F5C
:1028C00021F0400140E80012002AF5D1206F70B1DC
:1028D00061498163206FFDF760FE00280AD0206FF8
:1028E000816B01E00EE02046BDE8F041084720463C
:1028F000FFF769FFBDE8F0812046FFF764FFC4F8E9
:102900008050F7E7276E2026012F7BD1C70679D5A7
:10291000CF0677D51020106220688068400641D528
:10292000216F086840680004000CE3D0B4F8582018
:102930008242DFD9A4F85A000868006880062AD4C9
:10294000206850E8001F21F4807140E80012002A3E
:10295000F6D12068083050E8001F21F0010140E85E
:102960000012002AF5D12068083050E8001F21F03D
:10297000400140E80012002AF5D1E667256621688B
:1029800051E8000F20F0100041E80002002AF6D1C3
:10299000206FFDF7DDFDB4F85800B4F85A10401A66
:1029A00081B22AE0B4F85800B4F85A10401A81B243
:1029B000B4F85A0000289DD000299BD0226852E824
:1029C000000F20F4907042E80003002BF6D120683D
:1029D000083050E8002F22F0010240E80023002BCD
:1029E000F5D1E66725666566226852E8000F20F09B
:1029F000100042E80003002BF6D12046FFF7E1FE6D
:102A000078E7FFE7C70209D55B0207D54FF48010CE
:102A100010622046BDE8F041FFF7D4BE020606D59D
:102A20000A0604D5A16E00297FF45DAF62E7400677
:102A3000E6D54806E4D52046026852E8001F21F09A
:102A4000400142E80013002BF6D18667856600F04E
:102A50006FF94FE720010004C94B000810B50400CE
:102A600002D0A06F10B107E0012010BD002084F853
:102A70007400204600F026F82420A0672068016832
:102A800021F001010160204602F074F90128ECD028
:102A9000606A10B1204602F005F82068416821F410
:102AA000904141602068816821F02A01816020689E
:102AB000016841F0010101602046BDE8104002F0CC
:102AC00055B800002DE9F04786B006461421684647
:102AD000FDF748FC4A4B32684A480321022700248C
:102AE0004FF010094FF0800A9A424AD1C26D42F06D
:102AF0000102C265C26D02F001020592C26C42F091
:102B00000402C264C06C029400F004000590CDE998
:102B100000170820CDE9031069463B48FDF76CFE1D
:102B20003B4D3A484FF00408C5E9034A6C61AC617B
:102B3000EC612C6285E8010357462846FDF7B2FD9B
:102B400008B1FDF7DFFCF566AE62314D2F48483520
:102B500014302860C5E90184C5E903476C61AC61A4
:102B6000EC6128462C62FDF79DFD08B1FDF7CAFC1B
:102B70003567002211464620AE62FDF7B1FF4620C0
:102B800039E0244B9A4238D1026E42F48042026608
:102B9000026E02F480420592C26C42F00102C264ED
:102BA000C06C029400F0010005904FF4C060CDE9C4
:102BB00000070720CDE9031069464FF09040FDF76C
:102BC0001BFE134D14489035C5E90294C5E904A4D1
:102BD000AC61EC612C62C5E900072846FDF762FD97
:102BE00008B1FDF78FFCF566002211462520AE6284
:102BF000FDF776FF2520FDF765FF06B0BDE8F087FD
:102C00000080004000100240000800486C040240B0
:102C10001C020020003801404400024030B4C36F61
:102C2000202B20D1E1B1DAB190F87430012B1AD009
:102C3000012380F87430002303660C4C0368A34220
:102C40000BD05B681B0208D5046854E8003F43F0D2
:102C5000806344E80035002DF6D130BC02F08AB91B
:102C6000012030BC70470220FBE7000000800040DC
:102C7000044900680968884203D10348006803F0EA
:102C8000D9BD7047140100200800002070470000E3
:102C900070B50446806F202841D169B362B394F8BF
:102CA000740001283BD0012084F87400E164A4F88A
:102CB0005020A4F852200025C4F880502120A0679D
:102CC000E06ED8B11749C162E16E17481346086338
:102CD000E16E16484863E06E85632668E16C06F194
:102CE0002802E06EFDF73EFD40B11020C4F88000E0
:102CF00004F8745F20206060012070BD21684020CE
:102D0000086284F874502068083050E8001F41F0D1
:102D1000800140E80012002AF5D1002070BD022099
:102D200070BD0000C54C0008074D0008DD4B0008D1
:102D3000044900680968884203D10348006803F029
:102D400079BD704714010020040000207047FEE7A1
:102D50004218491E521E824202D922EA01007047DF
:102D6000884370470A46012103F0A8BC38B5054DD9
:102D70000C4604992D6815B100912146A847002002
:102D800038BD0000EC00002010B52049102008607C
:102D900020491F48086003F069FA040007D01EA00C
:102DA00002F0A6F921461EA002F0A2F925E004F0E7
:102DB0002FF8040004D018A002F09AF91FA01AE01E
:102DC00004F090F803F0C8FC002817D103F058FA7B
:102DD000002813D103F056FB040004D00EA002F02B
:102DE00087F91BA007E003F01FFE040007D00AA02C
:102DF00002F07EF91BA002F07BF9204610BD04F022
:102E000079FABDE8104003F0DDB900005800002059
:102E100040170020F00000205B4552525D2000006A
:102E20006F734D656D53797374656D496E69742068
:102E30006572726F722025640A0000006F7354611E
:102E4000736B496E6974206572726F720A000000BC
:102E50006F735175657565496E6974206572726F1F
:102E6000720A00006F735377546D72496E69742053
:102E70006572726F720A00004268C1E9000242681E
:102E80001160416070474268C1E900024268116008
:102E9000416070474268C1E90002426811604160C8
:102EA00070474268C1E900024268116041607047A2
:102EB000D0E900121160D0E900124A60002141609F
:102EC000016070470068FFF7D7BF70B505000C467A
:102ED0004FF000000CD0002C0AD0284603F017FD5C
:102EE000002805D121462846BDE8704002F0ECBF1D
:102EF00070BD03F079B870B50C4605000AD04CB12E
:102F000003F036FD012807D02146284603F08AF851
:102F1000012801D0012070BD002070BD2DE9F84FBF
:102F2000DFF898A00F460500DAF80040A04603D06D
:102F3000502F01D9A80702D0012000F05DB8FDF79D
:102F400069F98146EE1918E0A068A542204401D82D
:102F5000A64203D885420ED286420CD318A002F0B6
:102F6000C7F8A0683246204400902346294616A0A0
:102F700002F0BEF81BE0A046E468002CE4D139461C
:102F8000284603F0D1F890B1B7F5805F03D3284607
:102F900003F01EFD58B1DAF8001061B1C8F80C500A
:102FA0000020E8604846FDF73DF90020C5E74846A7
:102FB000FDF738F9C0E7CAF80050F1E7E800002053
:102FC0005B4552525D200000706F6F6C205B257076
:102FD0002C20307825782920636F6E666C696374C5
:102FE000207769746820706F6F6C205B25702C20CF
:102FF00030782578290A000018BCBDE8E08F000071
:103000002DE9F0470D4608985FEA020900F1040136
:103010008FB206D04FF6FB71884205D92648BDE82D
:10302000F08725480930FAE7E5B1D8B1DFF88C80A0
:1030300005FB07F1D8F80000FFF747FF060014D0A2
:10304000FDF7E8F81E4A01465068904210D1084644
:10305000FDF7E8F83146D8F80000FFF74CFF1648B6
:10306000401CDCE714480A30D9E71348401ED6E775
:10307000D0E90023A0F11C041A60D0E900235360BA
:10308000E5802781012326600022A38022826582B9
:10309000A281E281A0F108025260126040600060EB
:1030A0000830406000600846FDF7BCF861890020E8
:1030B000C9F80010B3E7000003060002F00000208A
:1030C000C4000020F8B51C4615460E46074603F01E
:1030D000BFFA002806D100212B463246384600941C
:1030E00003F0FEF9F8BD7FB582B01C460D460646DA
:1030F00004AA03F0C7FA002806D1032104AB2A462C
:103100003046009403F0ECF906B070BD10B5FDF741
:1031100081F8044603F040F90A49283848600968F4
:10312000814202D00848008820B12046BDE8104006
:10313000FDF778B82046FDF775F8BDE81040FDF7BB
:1031400074B8000068000020480000200A464FF6CE
:10315000FF7103F0B3BA00002DE9F8430026324FA7
:10316000DFF8C8808946142804D300233C463A4639
:10317000009650E02E49096801EB0014FDF74AF86B
:103180000546208838B1608848B1401E60802846D6
:10319000FDF748F846E02846FDF744F8E5E7B9F1C1
:1031A000000F09D003F02EF848B11F4C21A0241DB8
:1031B00001F09EFF21A00BE01B4CE41C25E02848F9
:1031C000008840B1184C1BA0641D01F091FF25A0A0
:1031D00001F08EFF19E02C484A460821076804F1E7
:1031E0000800BC6103F08CFF2846FDF71BF8FFF7D1
:1031F0008DFF3879400615D5FDF70CF80546B888DF
:10320000094C20F04000B880A41D2846FDF70AF8BC
:1032100000232246009641461CA0FFF7A7FD20464A
:10322000BDE8F8830020FBE701070002F8C3B2A164
:10323000CC0000205B4552525D2000002121214C32
:103240004F535F4552524E4F5F53454D5F50454E71
:10325000445F494E544552522121210A000000008A
:10326000480000202121214C4F535F4552524E4FC0
:103270005F53454D5F50454E445F494E5F4C4F4351
:103280004B2121210A000000680000206F735F7548
:103290006E73706563696669635F66696C6500007B
:1032A0002DE9F8432149224F1428096801EB001445
:1032B00002D33846BDE8F883FCF7ACFF0646208809
:1032C000DFF87080002588B1A0886188884215D118
:1032D0003046FCF7A7FF164C0023E41D224600955C
:1032E000414615A0FFF742FD2046E3E73046FCF7D4
:1032F00099FF00233C463A460095F1E7E06804F167
:10330000080290420BD040F8105C0821283803F0E6
:103310001DFF3046FCF786FFFFF7F8FE04E0491C6E
:1033200061803046FCF77EFF0020C3E7CC00002020
:1033300001070002F8C3B2A16F735F756E73706509
:1033400063696669635F66696C65000010B503F0C8
:1033500063FF040006D005A001F0CAFE05A001F03D
:10336000C7FE01E0FCF730FF204610BD5B4552521E
:103370005D2000006F735469636B53746172742035
:103380006572726F720A000070B5044600F034F87E
:10339000002829D1174D2068C0EBC000E96800EB78
:1033A000400001EB8004FCF735FF0646A08820F0C2
:1033B000020040F00400A080E18804F1280002F03F
:1033C000A7FF02F0E9FF05F1200128384860EA690B
:1033D0005AB12A884AB90968814206D03046FCF7BA
:1033E00021FF03F069F9002070BD3046FCF71AFF99
:1033F000F9E70000480000202DE9F0470D465FEA9C
:1034000000084FF0FF3A16D0C5B12869C8B1296845
:10341000D1B1AA8846481F2A0BD802D1454A914209
:1034200007D14549454AE868511A88420FD94048B2
:103430001D30BDE8F0873E48001DFAE73C48801E7D
:10344000F7E73B48801CF4E73948401CF1E710B926
:103450004FF43470E8600821FFF77AFCE860B0F5BB
:10346000987F02D23248C01CE3E7FCF7D3FE064641
:103470004FF00009324C10E0A1F128070846FFF791
:1034800017FD2F4807F128010838FFF7F5FC2A48F7
:10349000F968FFF730FDC7F80C906168A142EBD1E5
:1034A000274908394868884202D1214C0E3439E056
:1034B000A0F12804FFF7FCFC3046FCF7B3FE2769B7
:1034C00008221D48E968FFF714FD060020D00246D7
:1034D0003846E96803F016FF2060A868E6602062BD
:1034E000E868C4F81890C4F81C900221A060A1807C
:1034F000A988E1802968C4F83CA0C4F848906161BB
:103500002969C4F8509061620020C8F8007090E703
:10351000FCF780FE06460A4804F128010838FFF748
:10352000ABFC084C3046FCF77DFE204681E70000EE
:1035300003020002C16100084017002000000120C2
:10354000800000200002000370B5054602F05AFE1C
:1035500008B1154870BD1548008808B1144870BD01
:10356000EDB1FCF757FE114C064620342068283098
:1035700002F0B2FE2068818821F004018180294692
:10358000206803F0EBFB2068818841F020018180F6
:103590003046FCF747FEFFF7B9FD002070BDBDE8DF
:1035A000704000F0A3B800000D02000348000020A6
:1035B0000E0200022DE9F047494D07464FF0FF3A51
:1035C0006869874202D14748BDE8F087A869874209
:1035D00002D144480D30F7E72869874202D34148B9
:1035E0000D38F1E7FCF716FE8046C7EBC700E96827
:1035F00000EB400001EB8004A688F00706D0394CB0
:1036000040460A3CFCF70EFE2046DDE7F0064FF090
:10361000000903D5288808B1A5F80090700708D5DF
:1036200004F1280002F058FEA08820F00400A080D9
:1036300007E042F20800064203D004F12800FFF739
:1036400037FC16F0600F02D0204603F01DFEA08864
:1036500020F0020040F00100A080C4F83CA0C4F8B3
:10366000489002F099FE1E4E4FF0010A203628388D
:1036700070602079C0061FD504F1280106F11800FA
:10368000FFF720FC2869E968C0EBC00000EB4000B0
:1036900001EB8000306007613168A0888880306865
:1036A000E168C160616A4162A4F804A04046FCF789
:1036B000B9FD03F001F810E00948A4F804A004F1F2
:1036C00028013030FFF7D8FB0748E168FFF713FC0B
:1036D0004046C4F80C90FCF7A5FD002074E70000FC
:1036E00048000020140200024017002070B5194C59
:1036F000A4F12002206812690169914201D31648A1
:1037000070BD0079400701D4002070BDFCF782FD38
:1037100005462068C08802F02DFE012813D92068D4
:103720002830FFF7C5FB2068818841F004018180C3
:103730002068C188283002F0EBFD2846FCF772FDB6
:10374000FFF7E4FCE0E72846FCF76CFD024809308F
:1037500070BD000068000020070200020149D1E9A5
:1037600000017047A00000200148FFF72DB80000BD
:10377000140100200DA001F0BBFC4FF47A74204628
:1037800002F09AFB0FA001F0B3FC204602F094FB7C
:1037900012A001F0ADFC01F075FF02F0E3F902F0B8
:1037A000A1FA204602F088FBFBE7000045535038A1
:1037B0003236362052656164793A203253210D0A3F
:1037C000000000004553503832363620526561649F
:1037D000793A203153210D0A00000000455350383A
:1037E00032363620496E6974210D0A00064D4FF4B9
:1037F00000544FF47A7621462846FDF7E8F8304623
:1038000002F05AFBF7E70000000800482DE9FC41F0
:10381000074600240E4625466846009203F0B4FD94
:103820000146204661F307000009022819D101A9C9
:10383000009800F035F80099054608440199009079
:103840000144081A02280CDB684603F09DFD60F372
:10385000070404F001003870684603F095FD3070ED
:1038600001252846BDE8FC81F8B5012500240E4657
:1038700007460C60641C042C0FDC01216846B84725
:1038800001280AD19DF80000316800F07F0202FB98
:103890000511ED0131600006ECD42046F8BD0000B2
:1038A000024A10600248FFF7DFBF00000401002059
:1038B000E155000810B503460020CA1701EB526419
:1038C00024F07F02891ACAB2E111002902DD00BF8B
:1038D00042F080021A5400F10100EEDC10BD00003D
:1038E000401C802801DA401C7047B0F5804F01DA97
:1038F000801C70470349884201DAC01C7047001DD4
:1039000070470000FFFF1F002DE9F84300248846A0
:10391000164605464FF0FF3701210094B0470128B5
:1039200016D169463046FFF79FFF681C0099FFF7E4
:10393000C1FF0099401C0B18434509DC21B1284404
:10394000B0470099884203D1287860F3070427091B
:103950003846BDE8F88300002DE9F843074600909B
:10396000884614460025104600F082F88146FFF78D
:10397000B7FF404502DDA81EBDE8F8832E4631465C
:1039800066F307016846103103F058FD4946009878
:10399000FFF790FF009908440090207A04281DD07A
:1039A0002FA1684603F036FD0321684603F046FD6B
:1039B000A07E66F3070560F34105E07E08B145F09F
:1039C0000405680707D594F83D0060F3C40594F832
:1039D0003C0060F34515206C40B905E022A1684623
:1039E00003F018FD0421E0E7A06C08B145F0800564
:1039F000E06C08B9606D08B145F04005294668469D
:103A000003F01CFD218B684603F01EFD04F10C0140
:103A100068460EC903F027FDE07E68B1243468468D
:103A200094E80E00243C03F01EFD3034684694E810
:103A30000E00303C03F017FD280605D504F14001C7
:103A400068460EC903F00FFD680605D54C3468467C
:103A500094E80E0003F007FD0098C01B8CE70000FF
:103A60004D514973647000004D51545400000000E2
:103A700070B50446007A0025032802D0042802D03D
:103A800002E00C2500E00A2504F10C0007C800F054
:103A900046F80544E07EAD1C78B1243494E8070074
:103AA000243C00F03CF83034064694E80700303CF3
:103AB00000F035F8304405442D1D206C08B9A16C88
:103AC00029B1D4E9111200F02AF80544AD1CE06CCC
:103AD00008B9616D29B1D4E9141200F020F8054449
:103AE000AD1C284670BD0C22AFF3008038B5002312
:103AF00004460090022901DA981E38BD194663F386
:103B0000070162F30711684603F098FC0021009852
:103B1000FFF7D0FE009908440090001B38BD10B597
:103B200010B1FCF72AFC0146084610BD194808B53B
:103B3000816C41F001018164816C01F0010100910F
:103B4000816C41F002018164806C002200F002006F
:103B5000009011460E20FCF7C3FF0E20FCF7B2FFC9
:103B6000002211460F20FCF7BBFF0F20FCF7AAFF35
:103B7000002211464420FCF7B3FF4420FCF7A2FFCB
:103B8000002211464520FCF7ABFFBDE80840452068
:103B9000FCF798BF0010024010B504490448FCF738
:103BA000B3FC0249491E087010BD00000A01002044
:103BB000B47500082DE9F04186B014216846FCF781
:103BC000D1FB2E48C16C41F00401C164C16C01F00D
:103BD00004010591C16C41F08001C164C16C01F028
:103BE00080010591C16C41F00201C164C16C01F01A
:103BF00002010591C16C41F00101C164C16C01F089
:103C000001010591C16C41F00801C164C06C012241
:103C100000F00800DFF86880540305902146404614
:103C2000FCF7DDFE174FA600002231463846FCF7B0
:103C3000D6FE0022C0214046FCF7D1FE0125CDE989
:103C4000004500240294694640460394FCF7D4FDE5
:103C5000CDE900650326CDE9024669463846FCF702
:103C6000CBFDC020CDE90005CDE9024669464046BE
:103C7000FCF7C2FD06B0BDE8F08100000010024074
:103C800000080048000400480D4810B50B490160C9
:103C90004FF4E1314160002181600C22C160C0E934
:103CA0000412816101624162FEF7D8FE002803D050
:103CB000BDE81040FCF726BC10BD000000800040AD
:103CC000140100200648054901600021416081601F
:103CD000C1600161416181617047000000280140BD
:103CE000F4020020124810B5104901604FF48271AF
:103CF000416000214FF4E062C0E902120222026139
:103D0000012242615202C0E906210162072241629A
:103D1000C0E90A1201634163FEF748FB002803D0A3
:103D2000BDE81040FCF7EEBB10BD000000380040BD
:103D3000780300200D4810B50B4901604FF4E131C4
:103D40004160002181600C22C160C0E904128161E0
:103D5000C16101624162FEF781FE002803D0BDE827
:103D60001040FCF7CFBB10BD003801409801002087
:103D7000FEE7FEE710B503460020254C254AB3F5C3
:103D8000006F0BD1D2F8883003F44003B3F5400F35
:103D900008D0B3F5000F07D0002B04D113681B0126
:103DA0001FD419E01C4810BD13689B0114D5D368BB
:103DB000DB0311D5D068C0F30210401CB1FBF0F159
:103DC000D068C0F30623D068C00E01D1D06818E0D7
:103DD0005943B1FBF0F010BD11684905FBD52046F1
:103DE00010BD1369DB03F7D5D068C0F30210401C87
:103DF000B1FBF0F11069C0F306231069C00EE7D1E2
:103E00001069800301D51120E2E70720E0E70000F8
:103E10000024F4000010024068FF1F002DE9F0416B
:103E2000444C05468846E0680026810728680DD086
:103E3000E16801F00301814216D1A8B1E068696828
:103E4000C0F30210401C88420ED120E0012804D0AB
:103E5000022805D0032807D108E02168890701E07E
:103E600021684905002907DB01265FE021688903F5
:103E700002D421684903F5E7E1686A686FF00F032F
:103E800021F0730103EB021211430143E16020684A
:103E900020F080602060FCF7A7FD074605E000BF2A
:103EA000FCF7A2FDC01B022837D820680001F7D418
:103EB000B8F1000F18D0B8F1010F1DD0287D4FF0D8
:103EC0007E41400801EB4060A96840EA0120216979
:103ED000194A114008432061206840F0806020604A
:103EE000FCF782FD07461AE0A868297B000240EA39
:103EF000C1602169114AECE7288A1149400801EBA9
:103F00004050A96840EA012021690E4AE1E700BF5C
:103F1000FCF76AFDC01B022801D9032606E02068D1
:103F20000001F5D52069A969084320613046BDE844
:103F3000F081000000100240FF80FFF9FF80FF07C2
:103F40000000E0FFFF809FFFF8B51C4D06460024EF
:103F5000A86DC00002D5FCF729FE0DE0A86D40F069
:103F60008050A865A86D00F080500090FCF71EFE00
:103F7000A96D21F08051A965B0F5007F04D0802E95
:103F800007D94FF003040AE0802E08D9A02E01D8EB
:103F900004E001D1022402E0702E00D1012408487F
:103FA000016821F0070121430160006800F007006B
:103FB000A04201D00120F8BD0020F8BD0010024051
:103FC000002002400148FDF7DBBD0000F4020020A4
:103FD00010B585B004463720CDE90010402002908E
:103FE000002003904FF4806004906946204600F062
:103FF000F0FA41F288323721204600F07DF905B011
:1040000010BD000010B504460A4885B001432920C0
:10401000CDE9001040200290002003904FF4806012
:1040200004906946204600F0D4FA204600F01CFABD
:1040300005B010BD0000108010B585B004461020FA
:10404000CDE9001040200290002003904FF48060E2
:1040500004906946204600F0BCFA41F288321021F3
:10406000204600F049F905B010BD000030B585B01C
:1040700000240546009401944FF480600294CDE939
:1040800003406946284600F0A4FA0B484FF4FA5161
:104090000068B0FBF1F041F288314843401E03D282
:1040A0004FF0004005B030BD696B0906F6D5C5205C
:1040B000A8632046F6E700002000002010B585B078
:1040C00004464FF4D57000900820019040200290E3
:1040D000002003904FF4806004906946204600F071
:1040E00078FA204600F026FA05B010BD10B585B06C
:1040F00004461220CDE900104020029000200390D9
:104100004FF4806004906946204600F062FA41F264
:1041100088321221204600F0EFF805B010BD10B52E
:1041200085B004461120CDE9001040200290002007
:1041300003904FF4806004906946204600F049FAED
:1041400041F288321121204600F0D6F805B010BDAA
:1041500010B585B004460720CDE90020402002902C
:10416000002003904FF4806004906946204600F0E0
:1041700030FA41F288320721204600F0BDF805B040
:1041800010BD10B585B0044600210220CDE9001015
:10419000C020CDE902014FF48060049069462046BA
:1041A00000F017FA204600F037F905B010BD10B541
:1041B00085B004460920CDE90010C02002900020FF
:1041C00003904FF4806004906946204600F001FAA5
:1041D000204600F021F905B010BD10B585B00446A9
:1041E0000D20CDE9001040200290002003904FF4F4
:1041F000806004906946204600F0EBF941F2883275
:104200000D21204600F078F805B010BD30B585B01E
:104210000C46054600210320CDE900104020CDE9E1
:104220000201000104906946284600F0D2F92246B6
:104230000321284600F03AF905B030BD10B585B02D
:10424000044600210C20CDE900104020CDE90201F8
:10425000000104906946204600F0BBF9034A0C2196
:10426000204600F049F805B010BD000000E1F5055A
:1042700010B585B004461920CDE900104020029009
:10428000002003904FF4806004906946204600F0BF
:10429000A0F941F288321921204600F02DF805B02E
:1042A00010BD10B585B004461820CDE9001040209F
:1042B0000290002003904FF48060049069462046ED
:1042C00000F087F941F288321821204600F014F8F6
:1042D00005B010BD0A6842624A688262D1E90223D1
:1042E0001A43D1E904310B43C16A1A4321F0F701A3
:1042F0001143C16200207047454B10B51B684FF455
:10430000FA54B3FBF4F353435B1E02D24FF0004068
:1043100010BD426B12F0450FF6D01205F4D4426B7B
:10432000520703D504218163084610BD426BD207B2
:1043300002D00121816305E0C52282630269D2B205
:104340008A4201D0012010BD002100F023F931493B
:10435000084201D1002010BD002802DA4FF00070A1
:1043600010BD410001D5402010BD810001D5802045
:1043700010BDC10002D54FF4807010BD010102D5FF
:104380004FF4007010BD410102D54FF4806010BDA4
:10439000C10102D54FF4006010BD010202D54FF4F7
:1043A000805010BD410202D54FF4005010BD810273
:1043B00002D54FF4804010BDC10202D54FF4004039
:1043C00010BD410302D54FF4003010BD810302D56A
:1043D0004FF4802010BDC10302D54FF4002010BD62
:1043E000010402D54FF4801010BD410402D54FF4F2
:1043F000001010BD810402D54FF4800010BD0007ED
:1044000002D54FF4000010BD4FF4803010BD000005
:104410002000002008E0FFFD12494FF4FA5209681D
:10442000B1FBF2F141F288325143491E02D24FF002
:1044300000407047426B12F0450FF6D01205F4D4DD
:10444000416B490703D50421816308467047416BDE
:10445000C90703D00121816308467047C5218163E4
:1044600000207047200000200F494FF4FA520968DD
:10447000B1FBF2F141F288325143491E02D24FF0B2
:1044800000407047426B12F0450FF6D01205F4D48D
:10449000416B490703D50421816308467047C52154
:1044A00081630020704700002000002030B5204BC1
:1044B0004FF4FA541B68B3FBF4F341F288346343BE
:1044C0005B1E02D24FF0004030BD446B14F0450F2C
:1044D000F6D02405F4D4436B5B0703D50421816334
:1044E000084630BD436BDB0702D00121816303E046
:1044F0000369DBB28B4201D0012030BDC52181634D
:10450000002100F047F810F4604F04D0410406D5B4
:104510004FF4005030BD000C1080002030BD00046E
:1045200002D54FF4805030BD4FF4803030BD0000D4
:104530002000002014494FF4FA520968B1FBF2F14F
:1045400041F288325143491E02D24FF00040704779
:10455000426B12F0450FF6D01205F4D4416B4907B7
:1045600003D50421816308467047416BC90703D016
:104570000121816308467047416B490601D54021FE
:10458000816300207047000020000020006800F0D8
:104590000300704708444069704770B51943DDE96E
:1045A00004463443069D214329431143426847F69C
:1045B000FF639A430A434260002070BD10B5032197
:1045C00001600220FCF706F9002010BDD0F8800041
:1045D00070470A688260D1E901231A43D1E90331A7
:1045E0000B43C1681A436FF30B011143C1600020F4
:1045F00070470968C0F880100020704710B5064C5D
:1046000001202070FBF708FF18B9207820F0010086
:104610002070207810BD00000801002010B5846AC9
:1046200040F23A50216888632046FDF793FA012151
:1046300084F8341000212163062801D0052805D113
:104640002068FFF7FBFDA16B0843A063A06B002867
:10465000204602D0FDF79EF910BDFDF797F910BD79
:1046600010B5846A40F23A50216888632046FDF70D
:1046700071FA012184F8341000212163062801D049
:10468000052805D12068FFF7D9FDA16B0843A06379
:10469000A06B0028204602D0FDF77CF910BDFDF785
:1046A00075F910BD10B590B004460120ADF8380082
:1046B0002068FFF76BFF002854D0606C032842D0BD
:1046C0002068FFF75EFD00284AD100212068FFF72F
:1046D00061FF606704212068FFF75CFFA067082185
:1046E0002068FFF757FFE0670C212068FFF752FFB3
:1046F000C4F88000606C032825D00EA92068FFF75D
:1047000085FD00282CD1606C03281CD0BDF8380032
:10471000206501042068FFF74AFD002820D1002110
:104720002068FFF737FF606604212068FFF732FF3B
:10473000A06608212068FFF72DFFE0660C212068A5
:10474000FFF728FF206704212068FFF723FF000DF3
:10475000E06403A92046FDF71FF930B14FF0805007
:1047600010B010BD4FF08060FAE7B4F8500000239D
:1047700002042068FFF7ECFC0028F1D104F11000DE
:1047800007C88DE8070094E80F00FFF706FF002038
:10479000E6E700002DE9F84F00260446009635466E
:1047A000B0460068FFF762FC002827D12068FFF7B9
:1047B00085FC4FF0805B4FF001094FF6FF7748B161
:1047C000A6642068FFF752FC002817D1A06C0128CE
:1047D00002D020E0C4F8489000212068FFF7F8FBE1
:1047E00058B918E000212068FFF7F2FB002805D136
:1047F00051462068FFF706FC10B1584600F024B877
:1048000000212068FFF7C6FE05464FEAD0780098E1
:10481000401C009002E0DFF82CA00098B84202D2C1
:10482000B8F1000FDED00098B84202D34FF080708C
:10483000E4E7680002D5C4F8449000E06664002014
:10484000DCE70000000010C118BCBDE8E08F0000EC
:1048500070B5064C054601202070FBF7E9FD18B93C
:104860002846FFF7CBFE2070207870BD080100209D
:1048700010B5124888B014460078C00702D0032053
:1048800008B010BDC1B1012905D0022908D0032903
:104890000CD00420F4E76846FBF7B8FD06980AE060
:1048A0006846FBF7B3FD0798208005E06846FBF7F4
:1048B000ADFD0798400A20600020E1E708010020D4
:1048C00070B51D46164608460124A31E2A463146E9
:1048D000FBF7C4FD28B900BFFBF79EFD0028FBD104
:1048E0000024204670BDFFF789BE000070B51D464C
:1048F000164608460124A31E2A463146FBF7C0FD92
:1049000028B900BFFBF788FD0028FBD10024204612
:1049100070BD00000148FDF7CBBC0000780300200B
:1049200010B5806A0021A0F84610C187FDF7BFFCD2
:1049300010BD70470648006808B102F059BC054830
:10494000D0E90012491C42F10002C0E90012704790
:1049500090000020A00000202DE9F041AEB04421DD
:1049600017A8FBF7FFFC142128A8FBF7FBFC5C2130
:104970006846FBF7F7FC01252804CDE9175002240F
:104980000326CDE921460727CDE925741420279475
:10499000CDE9235017A8FCF743FD08B172B6FEE736
:1049A0000F204FF00008CDE92806CDF8A880CDF8FB
:1049B000AC80042128A8CDF8B080FCF70BFC08B12E
:1049C00072B6FEE711480090CDF820804FF080606D
:1049D00012900820CDE90250CDF82C8001964004B9
:1049E000CDE90640CDE904746846FCF795FA08B1B4
:1049F00072B6FEE74FF40070FCF7A4F8002801D06F
:104A000072B6FEE72EB0BDE8F0810000210008007C
:104A10000248016841F470010160704788ED00E0D0
:104A200010B50448FDF7FDFDBDE81040012001F080
:104A300093B900002404002070B50268164B4FF0B3
:104A40008046984201D0B04203D122F070044A68F7
:104A50002243124C124D984205D0B04203D0A042DE
:104A600001D0A84203D122F44076CA6832434E698D
:104A700022F08002324302608A68C2620A6882625F
:104A8000984203D0A04201D0A84201D10969016334
:104A90000121416170BD0000002C01400040014037
:104AA0000044014090F82410C90706D001684A6804
:104AB000836A22F400321A434A6090F8241089076E
:104AC00006D501684A68C36A22F480321A434A60F4
:104AD00090F82410490706D501684A68036B22F450
:104AE00080221A434A6090F82410090706D501680D
:104AF0004A68436B22F400421A434A6090F824103B
:104B0000C90606D501688A68836B22F480521A436D
:104B10008A6090F82410890606D501688A68C36BFC
:104B200022F400521A438A6090F82410490611D5E5
:104B300001684A68036C22F480121A434A60016CCF
:104B4000B1F5801F06D101684A68436C22F4C002A7
:104B50001A434A6090F82410090606D501684A688D
:104B6000806C22F4002202434A607047F8B50026A8
:104B70000446C0F88060FBF737FF054620680068F0
:104B80006FF07E47000708D52B4600224FF4001136
:104B90002046009700F040FA60B92068006840079E
:104BA0000AD52B4600224FF480012046009700F0E2
:104BB00033FA08B10320F8BD2020A067E06726661D
:104BC00084F874600020F8BD10B5806A0021A0F858
:104BD0005A10A0F85210FDF7F6FD10BD70B5846AAA
:104BE000A06FE56F216889684FF00006090606D5B9
:104BF000212804D1A4F85260204600F0AEF82068C5
:104C00008068400606D5222D04D1A4F85A602046BB
:104C100000F07EF8D4F8800040F01000C4F8800066
:104C20002046FDF7D0FD70BD10B50146806A0968C9
:104C3000096889062DD40021A0F85A10016851E8AE
:104C4000002F22F4807241E80023002BF6D1016886
:104C5000083151E8002F22F0010241E80023002B27
:104C6000F5D10168083151E8002F22F0400241E8F7
:104C70000023002BF5D12021C167016E012908D145
:104C8000026852E8001F21F0100142E80013002BD7
:104C9000F6D1016E012902D0FDF7EAFF10BDB0F890
:104CA0005810FDF78EFD10BD10B5806A016E012908
:104CB00002D0FDF7EBFF10BDB0F858104908FDF722
:104CC00080FD10BD10B50146806A09680968890633
:104CD00016D40021A0F852100168083151E8002FC5
:104CE00022F0800241E80023002BF5D1026852E84F
:104CF000001F41F0400142E80013002BF6D110BD27
:104D0000FEF716F810BD10B5806AFEF71FF810BD4B
:104D1000016851E8002F22F4907241E80023002B33
:104D2000F6D10168083151E8002F22F0010241E874
:104D30000023002BF5D1016E012908D1026852E849
:104D4000001F21F0100142E80013002BF6D12021B2
:104D5000C1670021016641667047026852E8001F82
:104D600021F0C00142E80013002BF6D12021816719
:104D7000704700002DE9F04104460168806822690F
:104D8000E3691043626900251A431043714F0A68B2
:104D9000714B1A4002430A6020684168E26821F4BE
:104DA0004051114341602168A069B94201D0226A93
:104DB00010438A6822F4306202438A60674923689C
:104DC00067488B420DD1D0F8880010F0030006D060
:104DD000012847D0022843D0032830D144E00121E4
:104DE0002EE060498B420BD1D0F8880010F00C0007
:104DF00034D0042836D0082832D00C281FD133E014
:104E000059498B420BD1D0F8880010F0300025D0E2
:104E1000102827D0202823D0302810D124E0BB42EE
:104E20000DD1D0F8880010F4406017D0B0F5806F35
:104E300018D0B0F5006F13D0B0F5406F14D010212A
:104E40004A4A00264FF40040BB422FD171B10229DB
:104E50000FD004290FD0082973D10FE00021EFE70C
:104E60000221EDE70421EBE70821E9E7FCF762FA0C
:104E700003E0104602E0FCF781FAE8B3626802EB57
:104E8000420181425DD8B0EB023F5AD8010E0302C5
:104E90005008181871410023FBF717FA344AA0F59F
:104EA000407191424DD82168C8604BE0E3694FF6EC
:104EB000EF77834228D1092943D2DFE801F00508C2
:104EC0000B420D4242421000FCF734FA06E0FCF7B8
:104ED00043FA03E0104602E0FCF750FA60B14100EB
:104EE000606801EB5001B1FBF0F0A0F11001B94294
:104EF00027D84FF6F07100E024E00140C0F34200F3
:104F000001432068C1601DE009291AD2DFE801F0E1
:104F100005080B190D1919191000FCF70BFA06E01A
:104F2000FCF71AFA03E0104602E0FCF727FA48B152
:104F3000616800EB5100B0FBF1F0A0F11001B94243
:104F400005D9012566662846A666BDE8F08180B2CF
:104F5000A9E7000000800040F369FFEF003801403E
:104F60000010024000440040004800400024F400CB
:104F7000FFFC0F0070B54165A0F8582000250446DD
:104F8000C0F880502220E067206FD8B11F49C1626D
:104F9000216F1F4813460863216F1E484863206F26
:104FA0008563666D216832462431206FFBF7DAFB9A
:104FB00040B11020C4F8800004F8745F2020A06085
:104FC000012070BD84F87450206940B1216851E817
:104FD000000F40F4807041E80002002AF6D12068FA
:104FE000083050E8001F41F0010140E80012002A9B
:104FF000F5D12068083050E8001F41F0400140E83A
:105000000012002AF5D1002070BD0000294C0008D4
:10501000A94C0008DD4B00082DE9F0479A461746D9
:105020000E4604464FF000094FF02008089D4AE064
:10503000681C48D0FBF7D8FCA0EB0A00A8422AD88D
:105040004DB32068016849073DD5C069C0430005DC
:1050500039D421684FF400600862206850E8001FCE
:1050600021F4D07140E80012002AF6D120680830FF
:1050700050E8001F21F0010140E80012002AF5D19C
:10508000C4F87880C4F87C80C4F8808084F8749078
:105090000320BDE8F087216851E8000F20F4D070AC
:1050A00041E80002002AF6D12068083050E8001FCD
:1050B00021F0010140E80012002AF5D1C4F87880FF
:1050C000C4F87C80E2E72068C06936EA000004D0BA
:1050D0000020B842ACD00020DBE70120F9E7000057
:1050E0000148FDF771BB000098010020FEE70000B9
:1050F0000FB4054B10B503A9044A029800F03CF820
:1051000010BC5DF814FB00004D5B0008100100208E
:105110000FB4084B10B504A902AA039800F02CF8AC
:10512000044602A9002000F055FA204610BC5DF8A4
:1051300014FB0000D55500080907090E002804DB00
:1051400000F1E02080F80014704700F00F0000F13B
:10515000E02080F8141D704702E008C8121F08C143
:10516000002AFAD170477047002001E001C1121FE8
:10517000002AFBD1704700002DE9FF4F8DB00F468C
:105180000546002606E025280BD0DDE90F129047E2
:105190006D1C761C28780028F5D111B0304600F03F
:1051A000EDB90024A246A1460122E94900E00443EA
:1051B00015F8013F203B02FA03F00842F7D12878A6
:1051C0002A2810D06FF02F022878A0F13001092989
:1051D00014D80AEB8A0102EB410144F0020400EB0F
:1051E000010A6D1CF0E701CF5FEA000A03D544F421
:1051F0000054CAF1000A44F002046D1C28782E28DD
:1052000017D115F8010F44F004042A280ED06FF0CE
:105210002F022878A0F1300109290AD809EB890169
:1052200002EB410100EB01096D1CF2E757F8049B0A
:105230006D1C28786C280FD006DC4C2817D0682805
:105240000DD06A2814D104E0742810D07A280FD128
:105250000DE044F400140AE044F4801401E044F446
:1052600040146978814202D104F580146D1C6D1CD4
:1052700028786E281ED00CDC632830D004DC00288F
:105280008BD0582811D19FE0642867D069280CD1B1
:1052900064E073282DD004DC6F2872D0702804D10C
:1052A00094E075286ED078286DD0DDE90F12904714
:1052B000761C4BE1C4F30250022806D0032809D023
:1052C000042801CF09D0066040E101CFF117C0E901
:1052D00000613BE101CF068038E1067036E117F846
:1052E000040B8DF8000000208DF80100EB46012032
:1052F00003E057F804BB4FF0FF3061074FF00001A7
:1053000002D40DE008F10101884649450FDA8045D5
:10531000F8DB1BF808100029F4D108E008F10101BE
:1053200088468142FADB1BF808100029F6D1DDE936
:105330000F23AAEB08008146214600F034F93044DF
:1053400000EB080604E0DDE90F121BF8010B9047A3
:10535000B8F10108F7D221464846F2E00A21C4F329
:1053600002524FF0000B0891022A04D001CFC1175E
:10537000032A09D00AE0FF1D27F00707F7E802011A
:1053800008E02CE01EE01FE000B2C117042A01D1A2
:1053900040B2C117021E71F1000206DA0023D0EB01
:1053A000030063EB01012D2202E0220504D52B222C
:1053B0008DF82420012203E0E20701D02022F7E744
:1053C000904653E00A210BE0102109E010214FF034
:1053D000000B44F004044FF00809089103E0082191
:1053E0004FF0000B0891C4F30252022A04D001CFFF
:1053F0000021032A06D006E0FF1D27F00707F7E883
:10540000020103E080B2042A00D1C0B24FF00008CC
:1054100022072BD52A78702A07D0DDF820C08CF01F
:10542000100C5CEA0B0C05D00EE040228DF8242015
:10543000012208E050EA010306D030238DF8243021
:105440008DF8252002229046089B83F0080353EA3A
:105450000B030BD150EA010201D1620706D53022BD
:105460008DF824204FF00108A9F101092A78582A63
:1054700004D038A20B9208AA0A920BE03AA2F9E7EC
:105480005B46089AFAF721FF0B9B9B5C0A9A521E17
:105490000A92137050EA0102F2D10A98ADEB0000B3
:1054A00000F1200B600702D524F4803401E04FF0B6
:1054B0000109D94502DDA9EB0B0000E0002000EB5B
:1054C0000B0141440890AAEB010AE00306D4DDE990
:1054D0000F232146504600F066F806444FF00009BD
:1054E00008E009A911F80900DDE90F12904709F158
:1054F0000109761CC145F4DBE0030CD5DDE90F237F
:105500002146504600F04FF8064404E0DDE90F1252
:1055100030209047761C0899481E08900029F5DC39
:1055200008E00A980A990078491C0A91DDE90F12EF
:105530009047761CBBF10001ABF1010BF1DC214679
:105540005046DDE90F2300F01CF806446D1C21E6EF
:105550000928010030313233343536373839616249
:10556000636465660000000030313233343536370D
:1055700038394142434445460000000030BCBDE894
:10558000C08F2DE9F041044600251E4617468804C9
:1055900004D405E039462020B0476D1C641EF9D5BF
:1055A0002846BDE8F0812DE9F041044600251E465D
:1055B0009046C80301D5302700E02027880404D591
:1055C00005E041463846B0476D1C641EF9D52846B3
:1055D000BDE8F0810A68531C0B6010707047000032
:1055E00030B5044606480023026803E012F8015B68
:1055F00025705B1C8B42F9DB0260084630BD000061
:105600000401002000B58DB034216846FAF7AAFEE7
:1056100005A309A20CA16846FFF77AFD10A1684610
:1056200000F068FA0DB000BD786A31353835353094
:10563000363532303300000054502D4C494E4B5F0C
:10564000363636360000000041542B43574A41504D
:105650003D222573222C222573220D0A0000000012
:105660005749464920434F4E4E45435445440D0A41
:105670005749464920474F542049500D0A0D0A4FBB
:105680004B0D0A0010B551A0FFF732FD002154A0C8
:1056900000F030FA322000F00FFC53A0FFF728FD95
:1056A00056A158A000F026FA010002D057A0FFF73B
:1056B0001FFD322000F000FC59A0FFF719FD4FA19B
:1056C0005CA000F017FA010002D05EA0FFF710FD09
:1056D000322000F0F1FB62A0FFF70AFD002165A077
:1056E00000F008FA40F6B834204600F0E5FB64A06C
:1056F000FFF7FEFC35A0FFF7FBFC002138A000F00F
:10570000F9F9322000F0D8FB60A0FFF7F1FC3BA1D3
:1057100066A000F0EFF9010002D069A0FFF7E8FCF5
:105720006FA0FFF7E5FCFFF76DFF010003D071A04C
:10573000FFF7DEFC02E076A0FFF7DAFC204600F07F
:10574000BBFB2EA177A000F0D5F9010003D079A012
:10575000FFF7CEFC02E07EA0FFF7CAFC27A180A0E5
:1057600000F0C8F9010003D081A0FFF7C1FC02E0FE
:1057700086A0FFF7BDFC89A0FFF7BAFC00F074F922
:10578000010003D08BA0FFF7B3FC02E092A0FFF76B
:10579000AFFC1AA194A000F0ADF9010003D096A0CF
:1057A000FFF7A6FC02E09BA0FFF7A2FC13A19EA0BE
:1057B00000F0A0F9010003D09FA0FFF799FC02E0E0
:1057C000A4A0FFF795FC002010BD0000436C6F7390
:1057D0006520746865206563686F210D0A0000000C
:1057E000415445300D0A00004D6F6E69746F722090
:1057F0006F6E6C696E65210D0A0000000D0A4F4B3B
:105800000D0A000041540D0A0000000041542057C9
:10581000726F6E6720436F6465A3BA25640D0A003A
:1058200053657474696E67207061747465726E215B
:105830000D0A000041542B43574D4F44453D310D57
:105840000A00000041542043574D4F4445205772F1
:105850006F6E6720436F6465A3BA25640D0A00006C
:10586000526573657420746865206D6F64756C652E
:10587000210D0A0041542B5253540D0A0000000020
:105880005265736574204F4B210D0A0043616E63AE
:10589000656C206175746F6D6174696320636F6EF0
:1058A0006E656374696F6E210D0A000041542B43CD
:1058B000574155544F434F4E4E3D300D0A000000A6
:1058C00041542043574155544F434F4E4E20577239
:1058D0006F6E6720436F6465A3BA25640D0A0000EC
:1058E000436F6E6E65637420746F2057494649217B
:1058F0000D0A0000436F6E6E65637420415020579F
:10590000726F6E6720436F6465A3BA25640D0A0049
:10591000415020434F4E4E454354204F4B210D0ADA
:105920000000000041542B4357444843503D312C64
:10593000310D0A00415020435744484350205772CC
:105940006F6E6720436F6465A3BA25640D0A00007B
:10595000415020435744484350204F4B210D0A00EB
:1059600041542B4349504D55583D300D0A0000001D
:105970004154204349504D55582057726F6E67204F
:10598000436F6465A3BA25640D0A000041542043A7
:1059900049504D5558204F4B210D0A00434F4E4E54
:1059A00045435420746F20536572766572210D0A49
:1059B00000000000436F6E6E65637420746F2053A7
:1059C00065727665722057726F6E6720436F6465EB
:1059D000A3BA25640D0A0000415420536572766510
:1059E00072204F4B210D0A0041542B4349504D4F1B
:1059F00044453D310D0A00004154204349504D4F6C
:105A000044452057726F6E6720436F6465A3BA25C3
:105A1000640D0A004150204349504D4F4445204FEA
:105A20004B210D0A0000000041542B4349505345BF
:105A30004E440D0A00000000415420434950534594
:105A40004E442057726F6E6720436F6465A3BA257A
:105A5000640D0A0041542043495053454E44204FA1
:105A60004B210D0A0000000000B599B06421684682
:105A7000FAF778FC05A307A213A16846FFF748FBD5
:105A800018A1684600F036F819B000BD3138383337
:105A900000000000613136303430343964382E690A
:105AA0006F742D6D717474732E636E2D6E6F7274BE
:105AB000682D342E6D79687561776569636C6F75D3
:105AC000642E636F6D00000041542B4349505354C2
:105AD0004152543D22544350222C222573222C251E
