:020000040800F2
:10000000C0170020A501000883400008772D0008D4
:1000100081400008DB040008DD53000800000000F8
:100020000000000000000000000000002B4C000851
:100030003B05000800000000350200082D4C0008B8
:10004000BF010008BF010008BF010008BF01000890
:10005000BF010008BF010008BF010008BF01000880
:10006000BF010008BF010008BF010008BF01000870
:10007000BF010008BF010008DD040008E904000812
:10008000BF010008BF010008BF010008BF01000850
:10009000BF010008BF010008BF010008BF01000840
:1000A000BF010008194D0008BF010008BF0100088A
:1000B000BF0100080000000000000000BF010008B0
:1000C000BF010008BF010008BF010008BF01000810
:1000D0000D4C0008D1530008BF010008BF01000803
:1000E000BF010008BF010008000000000000000080
:1000F0000000000000000000000000000000000000
:1001000000000000DD42000800000000BF01000800
:100110000000000000000000BF010008BF0100084F
:10012000BF010008BF010008BF010008BF010008AF
:10013000BF010008000000000000000000000000F7
:10014000BF010008BF010008BF0100080000000057
:10015000F5040008010500086D380008BF0100081B
:10016000BF010008BF010008BF0100080000000037
:10017000BF010008BF0100080000000000000000EF
:10018000BF010008BF010008BF010008DFF810D060
:1001900000F028F90048004701600008AFF3008034
:1001A000C01700200648804706480047FEE7FEE7E4
:1001B000FEE7FEE7FEE7FEE7FEE7FEE7FEE7FEE717
:1001C000094D00088D01000872B6344834490268B0
:1001D00041EA0201016033484FF0010101603248F9
:1001E0004168016001688A884FF0100342EA030207
:1001F0008A80D1F800C00CF1240C0CF1040CBCE88E
:10020000FF008CF309884FF0020C8CF31488AE4683
:1002100062B63047EFF3108072B67047EFF310808C
:1002200062B6704780F31088704720484FF08051C5
:1002300001607047EFF3108C72B61D4A126822B14C
:100240002DE900509047BDE80050EFF309801EF003
:10025000100F08BF20ED108B40F804ED20E9F01FCF
:10026000114D4FF010082E683060B78827EA080754
:10027000B78068682860878847EA08078780016830
:1002800000F018B851F804EB1EF0100F08BF00F092
:1002900016B881F309888CF31088704720ED00E0D0
:1002A0000000FFFF6C0000207000002004ED00E063
:1002B0005400002030C9B1E8C01FFFF7E3BFB1EC24
:1002C000088BB1EC08CBFFF7E4BF2DE9F05F0546E2
:1002D000002092469B4688460646814640241BE005
:1002E000284641464746224600F06BF853465A4698
:1002F000C01A914110D311461846224600F052F818
:100300002D1A67EB01084F4622460120002100F01C
:1003100049F817EB00094E41201EA4F10104DFDC6F
:10032000484631462A46434600F000B830BCBDE896
:10033000C09F40EA01039B0703D009E008C9121FD0
:1003400008C0042AFAD203E011F8013B00F8013B8F
:10035000521EF9D27047D2B201E000F8012B491EBB
:10036000FBD270470022F6E710B513460A46044652
:100370001946FFF7F0FF204610BD421C10F8011B84
:100380000029FBD1801A704710B5002200E0521CF2
:10039000835C8C5CA34201D1002BF8D1D8B2E1B2CE
:1003A000401A10BD202A04DB203A00FA02F1002096
:1003B00070479140C2F1200320FA03F319439040A3
:1003C0007047202A04DB203A21FA02F0002170470E
:1003D00021FA02F3D040C2F12002914008431946AD
:1003E00070470000064C074D06E0E06840F001034E
:1003F00094E8070098471034AC42F6D3FFF7CAFEE2
:10040000087D0008287D000830B58C1810F8012BF5
:1004100012F00F0301D110F8013B120906D110F8B8
:10042000012B03E010F8015B01F8015B5B1EF9D1C1
:1004300001E001F8013B521EFBD1A142E6D30020AE
:1004400030BD70470146014801F080BB74030020B5
:1004500010B5044801F08CFB042801D0012010BD28
:10046000002010BD7403002010B500F00BF8012827
:1004700001D0022010BDBDE81040014801F08EBC43
:100480007403002008B501208DF800009DF80000DD
:1004900008BD000038B50024009313460A46014603
:1004A000034801F045FD00B10124204638BD00009D
:1004B000740300207047000038B5002400931346F1
:1004C0000A460146034801F02BFE00B101242046F4
:1004D00038BD0000740300207047FEE7014800F0BB
:1004E0009FB800002C030020014800F099B80000DC
:1004F0005C040020014800F093B800009C0200203A
:10050000014800F08DB80000E402002030B590F8FA
:10051000444004F01C050124AC40056C6C60046888
:1005200063608368102B036803D099600068C26021
:1005300030BD9A600068C16030BD704772B6FEE79A
:10054000002200F001B8000030B50E4B0546012036
:100550005C7A002C14D1587A1C54587A03EB800032
:1005600045605D7A03F108002A54587A421C5A7299
:10057000303008703A2048702F208870CC700020EE
:1005800030BD0000B407002010B590F825100022FF
:10059000022905D00421C16380F82420012010BD68
:1005A00001680B6823F00E030B6001680B6823F0F1
:1005B00001030B6090F84410012401F01C0304FABD
:1005C00003F1036C596080F8254080F82420104620
:1005D00010BD10B590F825100024022903D0042185
:1005E000C16301241AE001680A6822F00E020A6061
:1005F00001680A6822F001020A6090F844100123A1
:1006000001F01C0203FA02F1026C516080F82530FF
:10061000002180F82410816B01B18847204610BD6D
:10062000F0B4016C0B6801680A6890F84440042536
:1006300004F01C0405FA04F61E4211D056070FD52B
:100640000A68920603D40A6822F004020A6090F84D
:10065000441001F01C018D40016C4D60016B1DE0E8
:10066000022606FA04F71F424FF0000C4FF0010576
:1006700018D0970716D50A68920605D40A6822F0A2
:100680000A020A6080F8255090F8441001F01C011D
:100690008E40016C4E6080F824C0C16A00291AD0D7
:1006A000F0BC08470826A6401E4214D0120712D5F7
:1006B0000A6822F00E020A6090F84410026C01F001
:1006C0001C0105FA01F15160C56380F8255080F8DE
:1006D00024C0416BE2E7F0BC7047000070B568B120
:1006E000334C01681423334AA14209D2324C0C44E2
:1006F000B4FBF3F39B00C0E910230BE0012070BDB5
:100700002B4C64420C44B4FBF3F39B004364284B32
:10071000083B0364022380F825300C6847F6F07329
:100720009C43D0E902352B43D0E9045635432B4393
:1007300085692B43C5692B43056A2B4323430B6013
:100740008168B1F5804F29D0016C0F23914212D1FD
:1007500052F8A81F90F8444004F01C04A3409943A9
:10076000116090F84430416803F01C03994013680D
:100770001943116012E00E49A0310A6890F8444014
:1007800004F01C04A3409A430A6090F84430426885
:1007900003F01C039A400B681A430A600021C163EE
:1007A000012280F8252080F82410084670BD000042
:1007B0000804024000000240F8FFFDBF70B5044687
:1007C00090F82400002501280CD0012084F8240092
:1007D00094F825600020012E06D084F8240002251C
:1007E000284670BD022070BD022684F82560E063B3
:1007F0002068066826F0010606602046FFF786FEA0
:10080000206B00282068016802D041F00E0106E04C
:1008100021F0040101602068016841F00A010160D3
:100820002068016841F001010160D9E770B5044614
:1008300000F0F0F80546601C02D00448007804443B
:1008400000F0E8F8401BA042FAD370BD1C00002065
:100850002DE9F84FDFF880910022A9F1040B03275E
:100860004FF00F0C09F1040AABF1040EACE00125C6
:1008700095402B4073D00C7904F00304012C01D077
:10088000022C15D18668540007FA04F826EA0806F7
:10089000D1F80C8008FA04F848EA0608C0F8088085
:1008A0004468AC430D79C5F3001595402543456078
:1008B0000C79E443A40708D0C568540007FA04F68D
:1008C000B5438E68A6402E43C6600C7904F003043D
:1008D000022C11D1D40800EB8406356A5407E40ECB
:1008E0000CFA04F825EA0805D1F8108008FA04F893
:1008F00048EA0508C6F820800568540007FA04F69F
:10090000B5430E7906F00306A6402E4306604C68F8
:1009100014F4403F57D0314C256E45F00105256653
:10092000246E22F0030504F0010400942C4C05EB26
:100930000408D8F808509407260F0CFA06F4A543CB
:10094000B0F1904F04D0274CA04203D1012412E013
:10095000002410E0244CA04202D102240BE032E03B
:10096000224CA04201D1032405E0214CA04201D138
:10097000042400E00724B4402C43C8F80840D9F808
:1009800000404D464E689C43F60200D51C432C6047
:10099000DAF8004055464E689C43B60200D51C4329
:1009A0002C60DBF800405D464E689C43B60300D5E2
:1009B0001C432C60DEF8004075464E689C43F603ED
:1009C00000D51C432C60521C0B6833FA02F47FF4F0
:1009D0004EAF00F00FB800000804014000100240C4
:1009E000000001400004004800080048000C0048D6
:1009F0000010004818BCBDE8E08F426921EA0203FC
:100A00000A4043EA0241816170470AB1816170473F
:100A10008162704701488068704700001C00002018
:100A20000248816802781144816070471C000020F0
:100A300010B50024032000F089F8002000F008F829
:100A400008B1012401E000F03DF8204610BD00008F
:100A500000B5014687B00022192000F057F8192090
:100A600000F046F81348016E41F400610166006E23
:100A700005A900F400600690684600F053FC00F001
:100A800083FC0D490D4AB0FBF1F10D48491E02608F
:100A9000416040F2E7320021C0E90321816001F0AA
:100AA00074FD10B1012007B000BD054801F0A0FDA4
:100AB000F9E700000010024040420F00002C014006
:100AC000A4040020094808B5016E41F00101016647
:100AD000016E01F001010091816D41F0805181654D
:100AE000806D00F08050009008BD000000100240B2
:100AF000002809DB00F01F0201219140400980001D
:100B000000F1E020C0F8001170470000F0B40E4B77
:100B10001B68C3F30223C3F10704042C00D9042487
:100B20001D1D072D01D2002300E0DB1E012606FA61
:100B300004F56D1E0D409D409E40761E164045EA10
:100B40000601F0BC04F070BC0CED00E0064A00F0B9
:100B5000070110684FF6FF03184040EA01200349DF
:100B600008431060704700000CED00E00000FA053B
:100B70001649B0F5007F0868C0F3412009D002286B
:100B800005D0086820F4C06040F480600860002050
:100B900070470128FBD0086820F4C06040F4007062
:100BA00008600B483222006850430A4AB0FBF2F05A
:100BB000401C00E0401E4A69520501D50028F9D1C9
:100BC00048694005E3D503207047000000700040ED
:100BD0002800002040420F000248006800F4C06076
:100BE00070470000007000402DE9F05F02460020D1
:100BF000C24B4FF4FA484FF40045B2F5003F0DD018
:100C0000D968F02601F00301DFF8F4C2BD4C0129D8
:100C100023D0022933D003293BD135E0D3F89010FB
:100C200001F44071B1F5807F0BD0B1F5007F0ED09B
:100C3000B1F5407F03D11968890300D5B24800F0AF
:100C400069B9D3F890108907F9D52846F7E7D3F8A2
:100C500094108907F3D54046F1E71968890718D53C
:100C60001968090703D5196801F0F00103E0D3F80A
:100C7000941006EA111109095CF821100AE01968BC
:100C8000490506D5214605E01968890301D59F4924
:100C900000E000214FF480694FF4804A4FF4802B2C
:100CA0004FF4002E4FF40067B2F5007F78D027DCB8
:100CB000202A76D011DC012A74D0022A73D0042AAB
:100CC000BDD1D3F8881011F030016DD010292AD091
:100CD000202914D03029B2D1B3E7402A79D0802A14
:100CE00078D0B2F5807FAAD1D3F8881011F44031C2
:100CF0005AD0B1F5803F16D0B1F5003F9FD1F3E057
:100D0000AA4268D010DC4A4578D0BA4229D0524570
:100D100095D1D3F8882002F04052B2F1805F6ED0B6
:100D2000B2F1405F8BD1B6E05A4501D0724586D111
:100D3000D3F8882012F040624ED0B2F1806F34D0E8
:100D4000B2F1006F1AD0B2F1406F85D119688907EE
:100D50007FF57CAF1868000708D5186800F0F00030
:100D600008E0384600F0D9B803F092B9D3F89400FF
:100D700006EA101000095CF8200060E71A6892018A
:100D8000FBD5DA68D202F8D5D868C0F30620414313
:100D9000D868C0F30210401CB1FBF0F0D96815E030
:100DA0007DE03DE01EE02FE0A3E01A681201E4D5EB
:100DB0001A69D202E1D51869C0F306204143D86808
:100DC000C0F30210401CB1FBF0F01969C1F34151AE
:100DD00046E04AE055E07FE0D3F898108907CCD58B
:100DE0004B482CE7D3F8881011F0030108D00129F3
:100DF00051D0022978D00329BFD122E75DE01CE061
:100E000000F090B800F0C0BAD3F8881011F00C01CF
:100E100070D004293FD0082966D00C29ADD110E745
:100E2000D3F8881011F4406164D0494533D0B942F9
:100E30005AD0B1F5406FA0D103E71A6812019CD5D2
:100E40001A69D20199D51869C0F306204143D868C0
:100E5000C0F30210401CB1FBF0F01969C1F341610D
:100E6000491C4900B0FBF1F0E9E6D3F8881011F411
:100E700040513FD0B1F5805F0DD0B1F5005FB0D1EA
:100E800032E0D3F8881011F4404133D0514502D0FC
:100E9000A942A6D128E000F04AB800F087BAD3F8FA
:100EA000881011F4402125D059453FF4D0AE71454A
:100EB0001AD0B1F5402F94D1C3E6D3F8881011F4BD
:100EC000401117D0B1F5801FEFD0B1F5001F0BD046
:100ED000B1F5401F85D1B4E6D3F8881011F08041F8
:100EE00008D0B1F1804FBFD119684905BCD5204663
:100EF000A5E6FFE700F020B800F034BA0010024089
:100F0000C87A00080024F40090D0030000127A0090
:100F1000006CDC0230BCBDE8C09F30BCBDE8C05FE7
:100F2000FFF722BF30BCBDE8C05FFFF76BBF30BC2E
:100F3000BDE8C05FFFF7B1BF30BCBDE8C05FFFF7E1
:100F4000DBBF00002DE9F84F044600250088A64EBF
:100F50002F46000515D5606C60B1B0F5000F04D0C8
:100F6000B0F5400F2BD001250AE0F06840F4803046
:100F7000F06024E00021201D03F0DEF805001ED003
:100F80002F462068800365D5B06D4FF00009C00082
:100F900009D4B06D40F08050B065B06D4FF00109DC
:100FA00000F080500090DFF844A2DAF8001041F41D
:100FB0008071CAF80010FFF72DFD804610E0D6F8CA
:100FC0008800616C20F440000843C6F88800D8E728
:100FD000FFF720FDA0EB0800022801D9032531E02E
:100FE000DAF80000C005F3D565BBD6F8900010F420
:100FF000407014D0A16D814211D0D6F89000D6F87F
:10100000901020F4407041F48031C6F89010D6F86A
:10101000901021F48031C6F89010C6F89000C007F7
:101020004ED0FFF7F7FC804641F2883A05E0FFF723
:10103000F1FCA0EB08015145D0D8D6F8900080070C
:10104000F5D5EDB32F46B9F1000F03D0B06D20F008
:101050008050B0652078C00707D0D6F88800216A94
:1010600020F003000843C6F888002078800707D5E1
:10107000D6F88800616A20F00C000843C6F88800A2
:101080002078400707D5D6F88800A16A20F0300004
:101090000843C6F888002078800607D5D6F888006F
:1010A000E16A20F440600843C6F888002088800583
:1010B00009D5D6F88800E16B20F44020084300E011
:1010C00044E0C6F888002088400507D5D6F8880097
:1010D000216C20F440100843C6F8880020784006B0
:1010E00007D5D6F88800216B20F440500843C6F895
:1010F00088002078000607D5D6F88800616B20F4B8
:1011000040400843C6F888002088C00507D5D6F8B7
:101110008800A16B20F440300843C6F8880020689E
:101120004FF0006500034FF0806820D5D6F88800A6
:10113000A16C20F040600843C6F88800A06CA8426B
:101140000DD1F06840F48010F06010E0D6F8900007
:10115000A16D20F440700843C6F8900073E7404545
:1011600005D10121201D02F0E7FF00B107462068EC
:10117000400317D5D6F88800E16C20F040600843A2
:10118000C6F88800E06CA84204D1F06840F48010F2
:10119000F06007E0404505D10121201D02F0CCFFA1
:1011A00000B107462088400411D5D6F88800216D8B
:1011B00020F040500843C6F88800206DB0F1805FF1
:1011C00005D10221201D02F0B7FF00B1074620889B
:1011D000000406D556F8880F616D20F08040084362
:1011E0003060384600F004B8001002400070004043
:1011F00018BCBDE8E08F00002DE9F0470D46040063
:101200005ED0DFF80C81D8F8000000F00700A8429B
:101210000CD2D8F8001021F007012943C8F80010BB
:10122000D8F8000000F00700A84249D12078394ED4
:10123000C0072BD06068032811D0022812D0316873
:1012400098B1490500293BDAB16821F00301014357
:10125000B160FFF7DFFB074641F288390FE03168E4
:101260008901EFE731688903ECE78907EAE7FFF7CF
:10127000D1FBC11B494502D90320BDE8F087B06806
:10128000616800F00C00B0EB810FF0D1207880078E
:1012900005D5B068A16820F0F0000843B060D8F828
:1012A0000010404601F00701A9420BD9016821F066
:1012B000070129430160006800F00700A84201D03F
:1012C0000120DAE72078400705D5B068E16820F40E
:1012D000E0600843B0602078000706D5B068216957
:1012E00020F4605040EAC100B06000F05FF8B168DF
:1012F000094AC1F30311515C01F01F01C8400749BD
:10130000086007480068BDE8F047FFF7A1BB000090
:101310000020024000100240B87A00082800002097
:10132000200000200F2202600C4A936803F00303A0
:101330004360936803F0F0038360936803F4E06311
:10134000C36092684FF4E06303EAD202026104488A
:10135000006800F0070008607047000000100240BD
:10136000002002400548064900688968054AC1F323
:101370000221515C01F01F01C84070472800002085
:1013800000100240F87A000805480649006889689C
:10139000054AC1F3C221515C01F01F01C8407047EA
:1013A0002800002000100240F87A000870B5254B94
:1013B000002210469968DC6811F00C0104F0030665
:1013C000214C4FEA640508D00C2904D0042931D0FF
:1013D000082931D010E0012E10D11A68120704D468
:1013E000D3F89420C2F3032202E01A68C2F3031276
:1013F000164E56F82220D9B10C2918D1D86800F021
:10140000030002281AD003281AD01046D968DA68D7
:10141000C1F30211C2F306224243491CB2FBF1F0B0
:10142000D968C1F34161491C4900B0FBF1F070BDBE
:10143000104670BD204670BD284670BD2046E5E7C9
:101440002846E3E7001002400024F400C87A0008B0
:101450002DE9F84304006FD0FC4EB06800F00C0595
:10146000F06800F003072078C00664D575B10C2D34
:1014700001D1012F0AD0A0690028306879D040F04E
:1014800001003060FFF7C6FA80465CE030688007F4
:1014900002D5A0690028DED0216A3068000703D594
:1014A000306800F0F00004E0D6F89400F02202EA80
:1014B0001010814216D9084602F0D2FE00283BD116
:1014C000306840F0080030603068216A20F0F00099
:1014D000084330607068E16920F47F4040EA0120F1
:1014E000706016E0306840F0080030603068216AB3
:1014F00020F0F000084330607068E16920F47F401C
:1015000040EA0120706025B9206A02F0A9FE002897
:10151000D5D1FFF74BFFB168CD4AC1F30311515C40
:1015200001F01F01C840CB490860CB480068FFF7B5
:101530008FFA00287ED12CE0C6E0FFF76BFAA0EB13
:101540000800022877D830688007F6D5306840F068
:10155000080030603068216A20F0F00008433060F5
:101560007068E16920F47F4040EA0120706010E07B
:10157000FFE720F001003060FFF74CFA804605E0FD
:10158000FFF748FAA0EB08000228DBD83068800794
:10159000F6D42078C00740D0082D18D00C2D01D1EA
:1015A000032F14D06068B0F5803F17D0B0F5A02F9E
:1015B000306817D020F480303060306820F480200C
:1015C00030606068E0B1FFF725FA804614E03068CB
:1015D000800322D56068002876D01EE0306840F491
:1015E0008030EDE740F480203060F7E7FFF712FA33
:1015F000A0EB08006428A5D830688003F6D50CE07D
:10160000FFF708FA804605E0FFF704FAA0EB0800B0
:10161000642897D830688003F6D42078800739D5BD
:10162000042D11D00C2D01D1022F0DD0E06800281F
:10163000306801E0ACE1FBE01DD040F48070306028
:10164000FFF7E8F907460BE0306840050BD5E06886
:101650000028C1D007E0FFF7DDF9C01B022894D8AD
:1016600030684005F7D57068217C20F0F85040EADA
:10167000016070600EE020F480703060FFF7CAF9FE
:10168000074604E0FFF7C6F9C01B0228B3D830684C
:101690004005F7D42078000728D560690028D6F8DF
:1016A000940012D040F00100C6F89400FFF7B2F9A0
:1016B000074604E0FFF7AEF9C01B02289BD8D6F816
:1016C00094008007F6D511E027E120F00100C6F86C
:1016D0009400FFF79FF9074604E0FFF79BF9C01B52
:1016E000022888D8D6F894008007F6D420784007DE
:1016F00065D5B06D4FF00008C00009D4B06D40F062
:101700008050B065B06D4FF0010800F0805000903F
:1017100052480168C90511D40168814641F48071BD
:101720000160FFF777F9074604E0FFF773F9C01B84
:1017300002287DD8D9F80000C005F6D5A068012898
:1017400015D00528D6F8900016D020F00100C6F874
:101750009000D6F8900020F00400C6F89000A06831
:1017600041F28839B8B1FFF755F907460EE0D6F8CF
:10177000900040F00100F0E740F00400C6F890004F
:10178000F5E7FFF747F9C11B494551D8D6F8900056
:101790008007F6D50CE0FFF73DF9074604E0FFF7B8
:1017A00039F9C11B494543D8D6F890008007F6D4D3
:1017B000B8F1000F03D0B06D20F08050B0652078F4
:1017C000800627D5606A0028D6F8980011D040F02E
:1017D0000100C6F89800FFF71DF9074604E0FFF77F
:1017E00019F9C01B022823D8D6F898008007F6D52F
:1017F00010E020F00100C6F89800FFF70BF907464B
:1018000004E0FFF707F9C01B022811D8D6F89800AA
:101810008007F6D4A06AC0B1022823D00C2D7CD05A
:10182000306820F0807030603068000105D400E03E
:10183000ADE0F06820F00300F060F068084908406F
:10184000F060FFF7E7F80446A4E09AE000100240D9
:10185000B87A000828000020200000200070004016
:10186000FFFFEEFEF068E26A00F00301914226D12C
:10187000216B00F070020901103991421FD1626B97
:1018800000F4FE41B1EB022F19D194F8382000F09A
:101890007841B1EBC26F12D1A18F00F4C0024908A8
:1018A0004905A1F50011914209D194F8401000F0CA
:1018B000C06049084906A1F1007181424AD00C2D4F
:1018C0006DD0306840016AD4306820F0807030609C
:1018D000FFF7A0F8054604E0FFF79CF8401B02283C
:1018E00055D830688001F7D4F4E90B016FF00F028E
:1018F00002EB01110843218A5204490802EB4151CD
:10190000A26841EA02210843217D4FF07E42490846
:1019100002EB41610843217B00E040E040EAC16006
:10192000F168204A11400843F060306840F0807050
:101930003060F06840F08070F060FFF76BF80446AC
:1019400004E0FFF767F8001B022820D83068800108
:10195000F7D522E0306880011FD4306840F08070F5
:101960003060F06840F08070F060FFF753F8044694
:1019700004E0FFF74FF8001B022808D83068800108
:10198000F7D50AE0FFF746F8001B022802D903202A
:10199000BDE8F88330688001F4D40020F8E7012026
:1019A000F6E700008C809D0110B5FEF74AFD10BDE2
:1019B00070470000F0B5426E920F0A70426EC2F39B
:1019C00083624A70426EC2F301628A70426E120CE8
:1019D000CA70B0F86420120A0A7190F864204A7143
:1019E000826E120DCA80826EC2F303420A72B0F890
:1019F0006820C2F3C0324A72B0F86820C2F3803265
:101A00008A72B0F86820C2F34032CA72B0F8682017
:101A1000C2F300320A7300264E73436C4FF4007514
:101A2000012463B1012B3AD0026847499163816B6D
:101A300041F08051816380F834400120F0BDB0F85E
:101A40006820C36E9205120D42EA93720A61C26E5B
:101A5000C2F3C2620A75C26EC2F302624A75C26EF6
:101A6000C2F342528A75C26EC2F38242CA75C26E16
:101A7000C2F3C2320A760B695B1C43650A7E02F030
:101A80000702921C934043650A7A02F00F0704FA9A
:101A900007F28265520A5343C0E917350EE090F809
:101AA0006820C36E9206920A42EA13420A610A69EA
:101AB000521C93024365C0E91653056630F86C2F3B
:101AC000C2F3803201F8192F0288C2F3C6124A709D
:101AD000027802F07F028A704268D20FCA704268B0
:101AE000C2F341720A714268C2F382624A7142686B
:101AF000C2F383528A714268C2F34052CA710E72B5
:101B00004268C2F300424A728288C2F3C0328A72CB
:101B10008288C2F38032CA728288C2F340320A736A
:101B20008288C2F300324A738288C2F381228A73A8
:101B30008288C2F30122CA730079C0F34600087498
:101B40004C740020F0BD0000FF054000426C0A60AC
:101B5000826C4A60C26C8A60026DCA60426D0A6122
:101B6000826D4A61C26D8A61006EC8610020704753
:101B700038B5002504460095B0F8500001042068EF
:101B800002F0AFFC28B90021206802F085FE009029
:101B9000284610B1A16B0143A1630098C0F3432014
:101BA00038BD00002DE9F843056B04460068416B21
:101BB00009041CD529071AD5D4E90A56002E14D0D9
:101BC0000027206802F085FE05F8010B010A05F8E0
:101BD000011B010C05F8021B000E361F7F1C05F8C7
:101BE000010C082FEDD3C4E90A56BDE8F883416B18
:101BF0004FF00007C90540F23A584FF0010643D5AF
:101C0000310281632068C16B4CF23A129143C16387
:101C10002068C16A21F00101C16228071CD515F0B6
:101C2000220F09D0206802F08DFC28B1A16B01437E
:101C3000A1632046FFF7BCFE2168C1F8388084F814
:101C400034602763A80703D0204600F060FACCE791
:101C5000204600F060FAC8E72806C6D5A80609D5D0
:101C6000206802F06FFC28B1A16B0143A1632046FC
:101C7000FFF79EFEA807B8D12068C16A21F00801CD
:101C8000C16284F83460E3E7416B490423D5290736
:101C900021D5D4E90856002EA7D0002715F8010B4E
:101CA000009015F8011B361F40EA0120009015F83E
:101CB000021B40EA0140009015F8011C40EA016057
:101CC00000906946206802F017FE7F1C082FE5D3BC
:101CD000C4E9085689E7416B11F03A0F85D0416B92
:101CE000890703D5A16B41F00201A163416B09078C
:101CF00003D5A16B41F00801A163416B890603D5AF
:101D0000A16B41F02001A163416BC90603D5A16B12
:101D100041F01001A163C0F838802068C16B21F444
:101D20009D71C163206802F00DFCA16B0843A063A4
:101D3000280706D584F8346027632046FFF738FE6D
:101D400053E7280687D515F0300F0CD0E16B11480A
:101D50008863E06BFEF73DFC0028BBD0E06BBDE87C
:101D6000F84302F001BEA8070CD0216C0A48886332
:101D7000206CFEF72EFC0028ACD0206CBDE8F843A8
:101D800002F0D0BDA76384F8346027632046FFF7D4
:101D90000BFE2AE7694900082549000870B50400D0
:101DA0000ED094F83400002518B92577204600F0AD
:101DB00073F8032084F83400204600F00BF808B1D3
:101DC000012070BDA5632563012084F83400002044
:101DD00070BD00002DE9FE4304464FF000084FF4AB
:101DE0000020FEF701FF05004FF001072DD0254828
:101DF000CDF80080B5FBF0F6B61ECDE9018642466F
:101E000043461146206802F04AFD2068416821F4EB
:101E100080714160206802F054FD2068416841F4FF
:101E200080714160B61CB5FBF6F01749B1FBF0F0CC
:101E3000401CFEF7FBFC204602F030FE58B184F84F
:101E40003470A16B0143A16319E084F834704FF042
:101E50000060A06313E0204602F0A8FD0028EED148
:101E60004FF40071206802F071FA002808D022684F
:101E700006499163A16B0143A16384F8347001208A
:101E800000F006B8801A060010210100FF0540008E
:101E900006BCBDE8F8830000F0B587B00446142105
:101EA0006846FEF75FFA1E492068884235D11D4812
:101EB000016E41F480610166016E01F4806105915B
:101EC000C16C41F00401C164C16C01F004010591D1
:101ED000C16C41F00801C164C06C0C2400F0080022
:101EE00005904FF4885002250026032704948DE8BE
:101EF000E10069460C48FEF7ABFC042004948DE831
:101F0000E10069460948FEF7A3FC00221146312092
:101F1000FEF7FCFD3120FEF7EBFD07B0F0BD000041
:101F2000002801400010024000080048000C004852
:101F30002DE9FF4F87B016460D460446DDF8508068
:101F4000FEF768FD82463DB194F83400012807D0C1
:101F5000A06B40F000500DE0A06B40F0006009E085
:101F60000020A0630A99E26D3144914204D9A06B2C
:101F700040F00070A06384E0032184F834102168ED
:101F8000C862616C012900D076024FF0FF310091E8
:101F90000A994FF001094902019102AA90210227F2
:101FA0008346CDF8149082E882086946206802F0E2
:101FB00013FB0A98012805D927633146206802F0EF
:101FC0001CFA05E0C4F830903146206802F02DFA82
:101FD00030B122684B499163A16B0143A1634CE08E
:101FE000019E1FE0406B000413D596B100272068C6
:101FF00002F06FFC05F8010B010A05F8011B010C4A
:1020000005F8021B000E361F7F1C05F8010C082F77
:10201000EDD3FEF7FFFCA0EB0A0141451ED2B8F15B
:10202000000F1BD02068416B11F4957FDAD0416B13
:10203000C90509D50A99012906D9616C032903D07C
:1020400002F080FA0028C4D12068416B09071AD534
:102050002C498163A06B40F0080051E021682948B9
:102060008863A06B40F00040A06384F83490C4F80B
:1020700030B003200BB000F047B884F83490C4F8B7
:1020800030B00120F6E7416B890705D51D49816312
:10209000A06B40F0020033E0416B89061CD5194962
:1020A0008163A06B40F020002AE002F012FC05F8EA
:1020B000010B010A05F8011B010C05F8021B000EBB
:1020C00005F8010C361FFEF7A5FCA0EB0A014145FF
:1020D00010D2B8F1000F0DD02068416B890201D5F4
:1020E000002EE2D1216840F23A50886384F834909F
:1020F0000020BFE7216803488863A06B40F00040E0
:10210000A063BAE7FF05400030BCBDE8C08F10B542
:10211000FEF7D0F910BD10B5FEF7DEF910BD0000D6
:102120002DE9F04F89B09B4615460E460446FEF752
:1021300071FC07903EB194F83400012807D0A06BE1
:1021400040F000500DE0A06B40F0006009E000217D
:10215000A163E26D05EB0B00904204D9A06B40F047
:102160000070A06378E0032084F834002068C16226
:10217000606C012800D06D024FF0FF3000904FEAF4
:102180004B204FF001090190CDE904199020CDE9D1
:1021900002018A466946206802F01EFABBF1010F6F
:1021A00006D9202020632946206802F0E5F905E0E1
:1021B000102020632946206802F0F6F95FEA000843
:1021C00006D021683F488863A06B40EA08006FE0B2
:1021D000019F26E0406B40041BD5D7B1002516F8BF
:1021E000010B069016F8011B3F1F40EA01200690E4
:1021F00016F8021B40EA0140069016F8011C40EA5E
:102200000160069006A9206802F076FB6D1C082D7F
:10221000E5D3FEF7FFFB0799411A129881421FD2BE
:10222000F0B12068416B11F48D7FD3D0416BC905AB
:1022300023D5BBF1010F20D9616C03291DD002F019
:1022400081F9D0B122681F499163A16B0143A16359
:1022500084F83490C4F830A0012009B000F034B8FC
:10226000216818488863A06B40EA0800A06384F8DE
:102270003490C4F830A00320EFE72068416B0907D1
:1022800005D510498163A06B40F0080010E0416B58
:10229000890705D50B498163A06B40F0020007E078
:1022A000416BC90606D507498163A06B40F0100059
:1022B000A063CDE740F23A51816384F83490002066
:1022C000CBE70000FF05400030BCBDE8C08F704781
:1022D00038B5016804464A688868C043430606D595
:1022E000C30704D1D3435B0601D4E16C05E0830747
:1022F00008D4D3431B0605D4216D01B02046BDE8A8
:1023000030400847830603D5430601D5C30551D4A1
:10231000D3439B064ED443060AD494F85D30032B76
:1023200049D0236E43F004032366CB688B68009387
:10233000830609D4236E43F0010323668B68009360
:102340000B6823F040030B60C00506D4206E40F0FC
:1023500008002066206880680090206E002829D040
:102360002068416821F0E0014160012084F85D00AF
:10237000900701D4D00722D02068416821F00301E2
:102380004160114DA06D40B18563A06DFEF721F94C
:1023900018B1206E40F040002066606D002809D022
:1023A0008563606DFEF715F9002803D0206E40F0BC
:1023B0004000206638BDC8688868009038BD204657
:1023C000FFF785FF38BD0000194C000870B5040008
:1023D00009D0606A002540B125616561A56294F865
:1023E0005D0040B10CE0012070BD6068B0F5827FF7
:1023F000F4D0E561F2E784F85C50204600F056F82E
:10240000022084F85D002068016821F0400101602D
:10241000E0684FF4E062904201D9002101E04FF4FE
:102420008051B0F5706F02D0904200D0A562A088B4
:10243000228900F4827002F404421043227C02F0EC
:1024400002021043227D02F001021043228B02F4AB
:1024500000721043227F02F03802104394F82020CB
:1024600002F080021043228D02F4005210432268D1
:102470001060A069042202EA104094F8242001F4BC
:10248000805102F01002104394F8342002F0080248
:102490001043A28902F47062104308432168486027
:1024A0002566012084F85D00002070BD2DE9F04113
:1024B00086B0064614216846FDF754FF2B49306864
:1024C00088424FD12A49886D40F480408865886DE4
:1024D00000F480400590C86C40F00400C864C86CEB
:1024E00000F004000590C86C40F00200C864C86C9D
:1024F000022700F0020005900820CDE90007002522
:102500004FF0030805240295CDE903846946194874
:10251000FEF79EF93803CDE900070295CDE9038463
:1025200069461548FEF794F9154C144820600120BF
:1025300060601020C4E902058020C4E90405A5619B
:10254000E56120462562FEF7C9F808B1FDF7F6FF00
:102550007465002211462420A662FEF7D7FA2420D3
:10256000FEF7C6FA06B0BDE8F08100000038004072
:1025700000100240000800480004004858000240D3
:102580005C04002070477047704710B5040003D00A
:1025900094F83D0010B107E0012010BD002084F840
:1025A0003C00204600F022F8022084F83D00211D66
:1025B000206802F0BDFB012084F8480084F83E004A
:1025C00084F83F0084F8400084F8410084F8420019
:1025D00084F8430084F8440084F8450084F84600F9
:1025E00084F8470084F83D00002010BD70470000CB
:1025F00090F83D10012901D001207047022180F898
:102600003D100168CA6842F00102CA6000680B49C7
:10261000884205D0B0F1804F02D00949884207D1E5
:102620008168084A1140062906D0B1F5803F03D0E1
:10263000016841F00101016000207047002C014059
:102640000040014007000100704770B50446006873
:1026500001694FF00005C943890715D4C168C94312
:10266000890711D4E91E0161012020772068806963
:102670008007204602D0FFF7E7FF04E000F0A7F84C
:10268000204600F0A5F8257720680169C94349076D
:1026900017D4C168C943490713D46FF0040101611D
:1026A000022020772068806910F4407F204602D005
:1026B000FFF7CAFF04E000F08AF8204600F088F82F
:1026C000257720680169C943090716D4C168C94341
:1026D000090712D46FF008010161042020772068F7
:1026E000C0698007204602D0FFF7AEFF04E000F08B
:1026F0006EF8204600F06CF8257720680169C94320
:10270000C90617D4C168C943C90613D46FF01001B4
:102710000161082020772068C06910F4407F2046BE
:1027200002D0FFF791FF04E000F051F8204600F0DE
:102730004FF8257720680169C943C90708D1C168E6
:10274000C943C90704D1891E0161204600F042F83F
:1027500020680169C943090609D4C168C94309064B
:1027600005D46FF0800101612046FFF70CFF20685F
:102770000169C943C90509D4C168C943090605D41B
:102780006FF4807101612046FFF7FCFE206801694B
:10279000C943490609D4C168C943490605D46FF045
:1027A00040010161204600F01FF820680169C9431B
:1027B00089060BD4C168C943890607D46FF020018C
:1027C00001612046BDE87040FFF7DEBE70BD704776
:1027D0007047000000680349884201D1FEF720B924
:1027E00070470000002C01407047704770477047E9
:1027F0002DE9F04102680446D0691168966840F6F8
:102800000F0318424FF0000505D183067ED58B06D5
:102810007CD5616E1BE1994F06F001030F401F4309
:1028200074D0C70709D0CF0507D501271762D4F8A0
:10283000802042F00102C4F8802082070AD5F20706
:1028400008D0276802223A62D4F8802042F00402BD
:10285000C4F8802042070AD5F20708D0266804226F
:102860003262D4F8802042F00202C4F880200207CD
:102870000CD501F020021A4308D0236808221A62FE
:10288000D4F8802042F00802C4F8802002050BD55D
:102890004A0109D523684FF400621A62D4F88020F7
:1028A00042F02002C4F88020D4F88020002A35D0DD
:1028B000800605D5880603D5616E09B12046884794
:1028C000D4F8800021688968490602D410F0280FE6
:1028D00026D0204602F098FB2068806840061AD572
:1028E0002068083050E8001F21F0400140E8001245
:1028F000002AF5D1206F70B161498163206FFDF727
:1029000068FE00280AD0206F816B01E00EE02046AF
:10291000BDE8F04108472046FFF769FFBDE8F081B8
:102920002046FFF764FFC4F88050F7E7276E2023A6
:10293000012F7BD1C70679D5CF0677D5102010623D
:1029400020688068400641D5216F0868406800040F
:10295000000CE3D0B4F858208242DFD9A4F85A0022
:102960000868006880062AD4206850E8001F21F417
:10297000807140E80012002AF6D12068083050E843
:10298000001F21F0010140E80012002AF5D1206863
:10299000083050E8001F21F0400140E80012002AF2
:1029A000F5D1E3672566206850E8001F21F010018B
:1029B00040E80012002AF6D1206FFDF7E5FDB4F8DB
:1029C0005800B4F85A10401A81B22AE0B4F85800FE
:1029D000B4F85A10401A81B2B4F85A0000289DD0B9
:1029E00000299BD0206850E8002F22F4907240E824
:1029F0000026002EF6D12068083050E8002F22F083
:102A0000010240E80026002EF5D1E36725666566E1
:102A1000206850E8002F22F0100240E80023002B2D
:102A2000F6D12046FFF7E1FE78E7FFE7C70209D5B8
:102A3000760207D54FF4801010622046BDE8F041C1
:102A4000FFF7D4BE020606D50A0604D5A16E0029FA
:102A50007FF45DAF62E74006E6D54806E4D5204640
:102A6000016851E8002F22F0400241E80024002CC8
:102A7000F6D18367856600F06FF94FE72001000407
:102A8000C14E000810B5040002D0A06F10B107E0DD
:102A9000012010BD002084F87400204600F026F8C4
:102AA0002420A0672068016821F001010160204610
:102AB00002F0DCFA0128ECD0606A10B1204602F086
:102AC0006DF92068416821F4904141602068816877
:102AD00021F02A0181602068016841F00101016054
:102AE0002046BDE8104002F0BDB900002DE9F047D6
:102AF00086B0044614216846FDF734FC4A4B216831
:102B00004A480322022700264FF010094FF0800A9E
:102B100099424AD1C16D41F00101C165C16D01F019
:102B200001010591C16C41F00401C164C06C0296C1
:102B300000F004000590CDE900270820CDE903202E
:102B400069463B48FDF784FE3B4D3A484FF0040888
:102B5000C5E9036A6E61AE61EE612E6285E801032C
:102B600057462846FDF7BAFD08B1FDF7E7FCE566D4
:102B7000AC62314D2F48483514302860C5E90186D4
:102B8000C5E903676E61AE61EE6128462E62FDF70E
:102B9000A5FD08B1FDF7D2FC2567002211464620AD
:102BA000AC62FDF7B3FF462039E0244B994238D19F
:102BB000016E41F480410166016E01F4804105918E
:102BC000C16C41F00101C164C06C029600F00100CB
:102BD00005904FF4C060CDE900070720CDE9032040
:102BE00069464FF09040FDF733FE134D1448903581
:102BF000C5E90296C5E904A6AE61EE612E62C5E99B
:102C000000072846FDF76AFD08B1FDF797FCE56669
:102C1000002211462520AC62FDF778FF2520FDF744
:102C200067FF06B0BDE8F08700800040001002405A
:102C3000000800486C0402409C020020003801405B
:102C40004400024030B4C36F202B20D1E1B1DAB18F
:102C500090F87430012B1AD0012380F874300023CF
:102C600003660C4C0368A3420BD05B681B0208D5BB
:102C7000036853E8004F44F0806443E80045002DAA
:102C8000F6D130BC02F0F0BA012030BC704702200F
:102C9000FBE70000008000400449006809688842A2
:102CA00003D10348006803F023BF7047940100205C
:102CB000080000207047000070B50446806F20288F
:102CC00041D169B362B394F8740001283BD001206C
:102CD00084F87400E164A4F85020A4F85220002580
:102CE000C4F880502120A067E06ED8B11749C162B6
:102CF000E16E174813460863E16E16484863E06EBC
:102D000085632668E16C06F12802E06EFDF756FD4A
:102D100040B11020C4F8800004F8745F2020606087
:102D2000012070BD21684020086284F8745020683A
:102D3000083050E8001F41F0800140E80012002AEE
:102D4000F5D1002070BD022070BD0000BD4F00080D
:102D5000FF4F0008D54E0008044900680968884202
:102D600003D10348006803F0C3BE704794010020FC
:102D7000040000207047FEE713A002F031FB4FF47F
:102D80007A74204603F0F4F915A002F029FB2046DE
:102D900003F0EEF918A002F023FB02F0E9FD03F0C6
:102DA00057F8642003F0E4F903F0E2F8642003F03C
:102DB000DFF904F051FD642003F0DAF904F064FC5B
:102DC000204603F0D5F9FBE745535038323636201C
:102DD00052656164793A203253210D0A00000000E7
:102DE000455350383236362052656164793A203185
:102DF00053210D0A0000000045535038323636206A
:102E0000496E6974210D0A004218491E521E824201
:102E100002D922EA01007047884370470A4601211F
:102E200003F0A8BDF8B50E460449069D0C6814B120
:102E300031460095A0470020F8BD0000F4000020B6
:102E400010B520491020086020491F48086003F091
:102E50006DFB040007D01EA002F0C2FA21461EA09E
:102E600002F0BEFA25E004F025F9040004D018A011
:102E700002F0B6FA1FA01AE004F086F903F0CAFDCA
:102E8000002817D103F05CFB002813D103F060FC8D
:102E9000040004D00EA002F0A3FA1BA007E003F088
:102EA0001FFF040007D00AA002F09AFA1BA002F04C
:102EB00097FA204610BD04F073FBBDE8104003F004
:102EC000E1BA000060000020C0170020F8000020D8
:102ED0005B4552525D2000006F734D656D537973F1
:102EE00074656D496E6974206572726F7220256415
:102EF0000A0000006F735461736B496E697420653A
:102F000072726F720A0000006F73517565756549C2
:102F10006E6974206572726F720A00006F73537766
:102F2000546D72496E6974206572726F720A000086
:102F30004268C1E90002426811604160704742681E
:102F4000C1E9000242681160416070474268C1E90E
:102F5000000242681160416070474268C1E90002A6
:102F60004268116041607047D0E900121160D0E9F9
:102F700000124A600021416001607047416881424F
:102F800001D101207047002070474168814201D182
:102F900001207047002070474168814201D1012023
:102FA0007047002070474168814201D1012070477D
:102FB000002070470068FFF7BBBF70B505000C46E6
:102FC0004FF000000CD0002C0AD0284603F0FDFD85
:102FD000002805D121462846BDE8704003F0D0B84E
:102FE00070BD03F061B970B50C4605000AD04CB154
:102FF00003F01CFE012807D02146284603F072F991
:10300000012801D0012070BD002070BD2DE9F84FCE
:10301000DFF89CA088460500DAF80040274604D077
:10302000B8F1500F01D9A80702D0012000F05EB816
:10303000FDF7F0F8814605EB080618E0A068A54208
:10304000204401D8A64203D885420ED286420CD332
:1030500018A002F0C5F9A06832462044009023462B
:10306000294616A002F0BCF91AE02746E468002CB5
:10307000E4D14146284603F0B7F988B1B8F5805F3E
:1030800003D3284603F000FE50B1DAF8001059B11E
:10309000FD600020E8604846FDF7C4F80020C5E761
:1030A0004846FDF7BFF8C0E7CAF80050F1E7000056
:1030B000F00000205B4552525D200000706F6F6C85
:1030C000205B25702C20307825782920636F6E6670
:1030D0006C696374207769746820706F6F6C205B13
:1030E00025702C2030782578290A000018BCBDE80E
:1030F000E08F00002DE9F0470D4608985FEA0208CE
:1031000000F104018FB206D04FF6FB71884205D959
:103110002548BDE8F08724480930FAE7CDB1C0B1B1
:10312000224C05FB07F12068FFF747FF060013D08C
:10313000FDF770F881461E48FFF72EFF78B148462C
:10314000FDF770F831462068FFF74DFF1648401C28
:10315000DFE715480A30DCE71348401ED9E714487A
:1031600040680446D4E900121C3C1160D0E900120A
:103170004A60E5802781012226600021A280218209
:103180006582A181E181A0F1080149600960406088
:1031900000600830406000604846FDF743F86189F0
:1031A0000020C8F80010B4E703060002F800002071
:1031B000CC000020F8B51C4615460E46074603F025
:1031C000A3FB002806D100212B4632463846009446
:1031D00003F0ECFAF8BD7FB582B01C460D460646FA
:1031E00004AA03F0ABFB002806D1032104AB2A4656
:1031F0003046009403F0DAFA06B070BD10B5FDF762
:1032000009F8044603F02EFA0A492838486009688C
:10321000814202D00848008820B12046BDE8104015
:10322000FDF700B82046FCF7FDFFBDE81040FCF7B5
:10323000FCBF000070000020500000200A464FF63E
:10324000FF7103F097BB00002DE9F8430027344DD0
:10325000DFF8D0808946142809D300232A46414646
:1032600031A00097FFF7DEFD2846BDE8F88333491B
:10327000096801EB0014FCF7CDFF0646208838B141
:10328000608848B1401E60803046FCF7CBFF45E0C7
:103290003046FCF7C7FFE0E7B9F1000F09D003F0B3
:1032A00011F948B11E4C26A0241D02F099F826A061
:1032B0000BE01B4CE41C25E02C48008840B1184C66
:1032C0001FA0641D02F08CF829A002F089F819E013
:1032D00030484A460821056804F10800AC6104F052
:1032E00061F83046FCF79EFFFFF788FF287940061B
:1032F00014D5FCF78FFF0646A888094C20F0400043
:10330000A880A41D3046FCF78DFF002322464146CD
:1033100005A00097FFF786FD2046A6E70020A4E75A
:1033200001070002F8C3B2A16F735F756E73706519
:1033300063696669635F66696C650000D40000209C
:103340005B4552525D2000002121214C4F535F45C7
:1033500052524E4F5F53454D5F50454E445F494E6C
:10336000544552522121210A000000005000002043
:103370002121214C4F535F4552524E4F5F53454DD3
:103380005F50454E445F494E5F4C4F434B212121D6
:103390000A000000700000202DE9F8432449254F61
:1033A0001428096801EB001402D33846BDE8F883FD
:1033B000FCF730FF05462088DFF87C80002688B1C6
:1033C000A0886188884218D12846FCF72BFF194C49
:1033D0000023E41D2246414618A00096FFF722FD77
:1033E0002046E3E72846FCF71DFF00233A46414606
:1033F00012A00096FFF716FDD7E704F10800FFF7CB
:10340000D2FD38B16088401C60802846FCF70AFF76
:103410000020CBE7E068082140F8106C283803F062
:10342000E7FF2846FCF7FEFEFFF7E8FEF0E70000A6
:10343000D400002001070002F8C3B2A16F735F75CA
:103440006E73706563696669635F66696C650000C9
:1034500010B504F033F8040006D005A001F0C0FF59
:1034600005A001F0BDFF01E0FCF7AEFE204610BD57
:103470005B4552525D2000006F735469636B537457
:10348000617274206572726F720A000070B5044632
:1034900000F034F8002829D1174D2068C0EBC00097
:1034A000E96800EB400001EB8004FCF7B3FE064640
:1034B000A08820F0020040F00400A080E18804F120
:1034C000280003F089F803F0CDF805F12001283831
:1034D0004860EA695AB12A884AB90968814206D027
:1034E0003046FCF79FFE03F043FA002070BD3046E3
:1034F000FCF798FEF9E70000500000202DE9F047A6
:103500000D465FEA00094FF0FF3A16D0C5B12869B1
:10351000C8B12968D1B1AA8846481F2A0BD802D160
:10352000454A914207D14549454AE868511A8842BF
:103530000FD940481D30BDE8F0873E48001DFAE72E
:103540003C48801EF7E73B48801CF4E73948401CA4
:10355000F1E710B94FF43470E8600821FFF754FC2C
:10356000E860B0F5987F02D23248C01CE3E7FCF770
:1035700051FE80460026334F0FE07868A0F1280402
:10358000FFF7F2FC2F4804F128010838FFF7D0FCC0
:103590002A48E168FFF727FDE6602A48FFF7F5FCB7
:1035A0000028EAD027480838FFF7EFFC10B1214C7B
:1035B0000E3439E0234808384068A0F12804FFF7AA
:1035C000D3FC4046FCF72EFED4F8108008221B489E
:1035D000E968FFF706FD07001CD002464046E9688F
:1035E00003F0E6FF2060A868E7602062E868A66153
:1035F000E661A0600220A080A888E0802868C4F866
:103600003CA0A66460612869266560620020C9F854
:10361000008090E7FCF7FEFD80460A4804F128018F
:103620000838FFF785FC084C4046FCF7FBFD2046B8
:1036300081E700000302000281640008C017002037
:1036400000000120880000200002000370B506463B
:1036500002F038FF08B1154870BD1548008808B160
:10366000144870BDEEB1FCF7D5FD114C0546203471
:103670002068283002F090FF2068818821F0040142
:1036800081803146206803F0BBFC2068818841F0CE
:10369000200181802846FCF7C5FDFFF7AFFD002023
:1036A00070BDBDE8704000F0A3B800000D0200033B
:1036B000500000200E0200022DE9F047494F064657
:1036C0004FF0FF3A7869864202D14748BDE8F0875B
:1036D000B869864202D144480D30F7E7386986421E
:1036E00002D341480D38F1E7FCF794FD8046C6EB64
:1036F000C600F96800EB400001EB8004A588E807EC
:1037000006D0394C40460A3CFCF78CFD2046DDE7EC
:10371000E8064FF0000903D5388808B1A7F80090F3
:10372000680708D504F1280002F036FFA08820F0D1
:103730000400A08007E042F20800054203D004F133
:103740002800FFF711FC15F0600F02D0204603F0AF
:10375000F1FEA08820F0020040F00100A080C4F833
:103760003CA0C4F8489002F07DFF1E4D4FF0010AC6
:103770002035283868602079C0061FD504F128015B
:1037800005F11800FFF716FC3869F968C0EBC000B6
:1037900000EB400001EB8000286006612968A088EA
:1037A00088802868E168C160616A4162A4F804A069
:1037B0004046FCF737FD03F0DBF810E00948A4F8B9
:1037C00004A004F128013030FFF7B2FB0748E1689C
:1037D000FFF709FC4046C4F80C90FCF723FD0020DD
:1037E00074E700005000002014020002C0170020FF
:1037F00070B5194CA4F12002206812690169914248
:1038000001D3164870BD0079400701D4002070BD77
:10381000FCF700FD05462068C08802F013FF012870
:1038200013D920682830FFF79FFB2068818841F07A
:10383000040181802068C188283002F0CDFE28462E
:10384000FCF7F0FCFFF7DAFCE0E72846FCF7EAFCBF
:103850000248093070BD000070000020070200021D
:103860000149D1E900017047A80000200148FEF796
:10387000BFBF0000940100204FF47A74204602F08C
:1038800077FCFBE7064D4FF400544FF47A7621465F
:103890002846FDF7B2F8304602F06AFCF7E7000070
:1038A000000800482DE9FC41074600240E46254645
:1038B0006846009203F0BEFE0146204661F3070011
:1038C0000009022819D101A9009800F0BFF8009959
:1038D00005460844019900900144081A02280CDBAF
:1038E000684603F0A7FE60F3070404F00100387097
:1038F000684603F09FFE307001252846BDE8FC8134
:103900002DE9FC5F8046DDE90EA00024CDE900042E
:10391000994617460E462546DDF834B0684603F052
:1039200089FE60F30704200903282CD1C4F3C001E9
:1039300088F80010C4F34100306004F001003870D2
:1039400001A9009800F082F8009905460844019901
:1039500000904418224669460C9803F07AFE90B114
:103960000098201A0FD43068002804DD684603F060
:1039700067FEA9F800000098211ACAF80010009903
:103980000125CBF80010284600F000B83CBCBDE88B
:10399000C09F2DE9FC4782464FF000090A9800902D
:1039A0001E46144688464D464F46684603F042FE82
:1039B00060F307052809092826D101A9009800F01D
:1039C00045F8009907460844019900904518281ABF
:1039D000022819DB684603F033FEAAF80000C4F899
:1039E00000900DE02168414502DD4FF0FF370BE00C
:1039F000684603F01FFE21688A00491C2160B05010
:103A00000098A842EED30127384600F000B80CBC5D
:103A1000BDE8F087F8B5012400250E4607460D6085
:103A20006D1C042D0FDC01216846B84701280AD11E
:103A30009DF80000316800F07F0202FB0411E401F0
:103A400031600006ECD42846F8BD0000024A106040
:103A50000248FFF7DFBF000084010020D1580008B2
:103A600010B504460020CA1701EB526323F07F0211
:103A7000891ACAB2D911002901DD42F0800222540C
:103A800000F10100EFDC10BD401C802801DA401C71
:103A90007047B0F5804F01DA801C704703498842B7
:103AA00001DAC01C7047001D70470000FFFF1F00B7
:103AB0002DE9F84300258846164604464FF0FF37A7
:103AC00001210095B047012816D169463046FFF71D
:103AD000A1FF601C0099FFF7C3FF0099401C0B1861
:103AE000434509DC21B12044B0470099884203D105
:103AF000207860F307052F093846BDE8F8830000F9
:103B00002DE9F843064600908846144600251046E5
:103B100000F082F88146FFF7B7FF404502DDA81E9E
:103B2000BDE8F8832F46394667F307016846103130
:103B300003F032FF49460098FFF792FF00990844CE
:103B40000090207A04281DD02FA1684603F010FFB2
:103B50000321684603F020FFA07E67F3070560F3AA
:103B60004105E07E08B145F00405680707D594F8E3
:103B70003D0060F3C40594F83C0060F34515206CEB
:103B800040B905E022A1684603F0F2FE0421E0E717
:103B9000A06C08B145F08005E06C08B9606D08B113
:103BA00045F040052946684603F0F6FE218B68463D
:103BB00003F0F8FE04F10C0168460EC903F001FFA2
:103BC000E07E68B12434684694E80E00243C03F09B
:103BD000F8FE3034684694E80E00303C03F0F1FE05
:103BE000280605D504F1400168460EC903F0E9FE38
:103BF000680605D54C34684694E80E0003F0E1FEF3
:103C00000098801B8CE700004D51497364700000E0
:103C10004D5154540000000070B50446007A002550
:103C2000032802D0042802D002E00C2500E00A2577
:103C300004F10C0007C800F0FAF80544E07EAD1C62
:103C400078B1243494E80700243C00F0F0F83034D4
:103C5000064694E80700303C00F0E9F8304405449B
:103C60002D1D206C08B9A16C29B1D4E9111200F006
:103C7000DEF80544AD1CE06C08B9616D29B1D4E9EA
:103C8000141200F0D4F80544AD1C284670BD0C2277
:103C900000F0B4B82DE9FC5F1C46129ECDE900602F
:103CA000DDF838B09046DDF830A0DDE90F23894615
:103CB00005465946204600F033F80746FFF7E4FE74
:103CC000484503DD6FF0010000F027B8302168F3AC
:103CD000C30164F342016AF3000101A803F05CFE32
:103CE00039460198FFF7BCFE019908440190DDE9CF
:103CF0000F23594601A803F064FE002C03DD01A840
:103D00000D9903F04FFE324611990198FCF711FB13
:103D1000019830440190401BD6E73CBCBDE8C09FF1
:103D200070B50E46114604461A463046049D00F012
:103D30007EF82844801C002C00DD801C70BD2DE91D
:103D4000FF4F83B08A46DDE91087064600250190C3
:103D50009346DDF848902C463946404600F038F846
:103D60000090FFF791FE504503DDA81E07B000F05C
:103D70002CB865F3070580356BF3C30525F0060005
:103D8000801CC1B201A803F007FEDDE90010FFF7B7
:103D900067FE01990844019001A8069903F002FE0C
:103DA0000EE004EB440007EB800501A895E80E0047
:103DB00003F007FE19F8241001A803F0EDFD641CC0
:103DC0004445EEDB0198801BD0E730BCBDE8C08FD6
:103DD0002DE9F04102250E460746002409E004EBD8
:103DE000440006EB800007C800F021F80544641C7D
:103DF000ED1CBC42F3DB2846BDE8F08138B500235A
:103E000004460090022901DA981E38BD194663F372
:103E1000070162F30711684603F0BEFD0021009818
:103E2000FFF71EFE00990144081B009138BD0200F7
:103E3000084602D01046FCF7A0BA7047194808B5EA
:103E4000816C41F001018164816C01F001010091FC
:103E5000816C41F002018164806C002200F002005C
:103E6000009011460E20FCF751FE0E20FCF740FE9C
:103E7000002211460F20FCF749FE0F20FCF738FE08
:103E8000002211464420FCF741FE4420FCF730FE9E
:103E9000002211464520FCF739FEBDE808404520C8
:103EA000FCF726BE0010024010B504490448FCF798
:103EB00047FB0249491E087010BD00008A0100201E
:103EC000587B00082DE9F04186B014216846FCF7C4
:103ED00049FA2E48C16C41F00401C164C16C01F083
:103EE00004010591C16C41F08001C164C16C01F015
:103EF00080010591C16C41F00201C164C16C01F007
:103F000002010591C16C41F00101C164C16C01F075
:103F100001010591C16C41F00801C164C06C01222E
:103F200000F00800DFF86880540305902146404601
:103F3000FCF76BFD174FA600002231463846FCF710
:103F400064FD0022C0214046FCF75FFD0125CDE95C
:103F5000004500240294694640460394FCF778FC2F
:103F6000CDE900650326CDE9024669463846FCF7EF
:103F70006FFCC020CDE90005CDE902466946404608
:103F8000FCF766FC06B0BDE8F081000000100240BE
:103F900000080048000400480D4810B50B490160B6
:103FA0004FF4E1314160002181600C22C160C0E921
:103FB0000412816101624162FEF764FD002803D0B2
:103FC000BDE81040FCF7BABA10BD00000080004008
:103FD000940100200648054901600021416081608C
:103FE000C1600161416181617047000000280140AA
:103FF00074030020124810B5104901604FF482711B
:10400000416000214FF4E062C0E902120222026125
:10401000012242615202C0E9062101620722416287
:10402000C0E90A1201634163FEF7D0F9002803D00A
:10403000BDE81040FCF782BA10BD00000038004017
:10404000F80300200D4810B50B4901604FF4E13131
:104050004160002181600C22C160C0E904128161CD
:10406000C16101624162FEF70DFD002803D0BDE889
:104070001040FCF763BA10BD003801401802002060
:10408000FEE7FEE746F2A814204602F071F8FBE7CF
:1040900010B504460020254B0246B4F5006F06D14A
:1040A000D3F8882002F44002B2F5400F09D0204C2A
:1040B000B2F5000F07D0002A04D11A6812011FD4EC
:1040C00019E01C4810BD1A68920114D5DA68D203B1
:1040D00011D5D868C0F30210401CB1FBF0F1D868CC
:1040E000C0F30622D868C00E01D1D86818E0514349
:1040F000B1FBF0F010BD19684905FBD5204610BD95
:104100001A69D203F7D5D868C0F30210401CB1FB7E
:10411000F0F11869C0F306221869C00EE7D11869DA
:10412000800301D51120E2E70720E0E700100240FC
:104130000024F40068FF1F002DE9F041434E0546BE
:104140008846F0680024810728680ED0F16801F0E5
:104150000301814207D130B1F0686968C0F30210F1
:10416000401C88421FD001246DE0012809D002289C
:104170000AD00328F7D13168890309D4316849038B
:1041800004E03168890701E0316849050029EADA6D
:10419000F1686A686FF00F0321F0730103EB0212FC
:1041A00011430143F160306820F080603060FCF71B
:1041B00031FC074604E0FCF72DFCC01B022838D870
:1041C00030680001F7D474BBB8F1000F18D0B8F113
:1041D000010F1DD0287D4FF07E41400801EB40606B
:1041E000A96840EA01203169194A11400843306149
:1041F000306840F080603060FCF70CFC07461AE045
:10420000A868297B000240EAC1603169114AECE7E5
:10421000288A1149400801EB4050A96840EA012072
:1042200031690E4AE1E70EE0FCF7F4FBC01B0228FF
:1042300001D9032407E030680001F5D51CB93069C5
:10424000A969084330612046BDE8F08100100240B2
:10425000FF80FFF9FF80FF070000E0FFFF809FFF66
:10426000F8B51C4E05460024B06DC00002D5FCF721
:10427000B3FC0DE0B06D40F08050B065B06D00F063
:1042800080500090FCF7A8FCB16D21F08051B16521
:10429000B0F5007F04D0802D07D94FF003040AE069
:1042A000802D08D9A02D01D804E001D1022402E01C
:1042B000702D00D101240848016821F00701214335
:1042C0000160006800F00700A04201D00120F8BDA5
:1042D0000020F8BD00100240002002400148FDF718
:1042E00061BC00007403002010B585B00446009145
:1042F0003721019140210020CDE9021008010490EE
:104300006946204600F0E8FA41F28832372120461B
:1043100000F074F905B010BD10B50B4A85B0044625
:1043200011432920CDE90010402002900020039085
:10433000500D04906946204600F0CEFA204600F069
:1043400015FA05B010BD00000000108010B585B052
:10435000044600911021019140210020CDE9021076
:10436000080104906946204600F0B6FA41F288320E
:104370001021204600F042F905B010BD30B585B0DF
:1043800000250446009501954FF480600295CDE923
:1043900003506946204600F09FFA0B484FF4FA514B
:1043A0000068B0FBF1F141F288304143491E02D26E
:1043B0004FF0004504E0606B0006F7D5C520A06310
:1043C00005B0284630BD00002800002010B585B09B
:1043D0004FF4D5710091082104460191402100203D
:1043E000CDE90210080104906946204600F074FAF5
:1043F000204600F021FA05B010BD10B585B0044686
:1044000000911221019140210020CDE90210080104
:1044100004906946204600F05FFA41F2883212218A
:10442000204600F0EBF805B010BD10B585B004468D
:1044300000911121019140210020CDE902100801D5
:1044400004906946204600F047FA41F28832112173
:10445000204600F0D3F805B010BD10B585B0044675
:10446000072140200092CDE90110002003904FF475
:10447000806004906946204600F02EFA41F28832AE
:104480000721204600F0BAF805B010BD10B585B080
:10449000002102220446C020CDE90201CDE900122C
:1044A000500204906946204600F016FA204600F0BB
:1044B00035F905B010BD10B585B00446009109214D
:1044C0000191C0210020CDE902104FF480600490DA
:1044D0006946204600F000FA204600F01FF905B0BA
:1044E00010BD10B585B0044600910D210191402109
:1044F0000020CDE90210080104906946204600F032
:10450000EBF941F288320D21204600F077F805B032
:1045100010BD30B585B0054600230320CDE900303D
:104520004020CDE9020300010C460490694628466C
:1045300000F0D2F922460321284600F039F905B0EF
:1045400030BD000010B585B00021044640200C228B
:10455000CDE90201CDE90012000104906946204630
:1045600000F0BAF9034A0C21204600F047F805B0E4
:1045700010BD000000E1F50510B585B004460091BE
:104580001921019140210020CDE902100801049079
:104590006946204600F0A0F941F2883219212046F0
:1045A00000F02CF805B010BD10B585B004460091A0
:1045B0001821019140210020CDE90210080104904A
:1045C0006946204600F088F941F2883218212046D9
:1045D00000F014F805B010BD0A6842624A688262B1
:1045E000D1E902231A43D1E904310B43C16A1A43CA
:1045F00021F0F7011143C16200207047454B10B50F
:104600001B684FF4FA54B3FBF4F353435B1E02D21E
:104610004FF0004010BD426B12F0450FF6D012056E
:10462000F4D4426B520703D504218163084610BDC0
:10463000426BD20702D00121816305E0C52282636B
:104640000269D2B28A4201D0012010BD002100F0DF
:1046500023F93149084201D1002010BD002802DAB7
:104660004FF0007010BD410001D5402010BD810009
:1046700001D5802010BDC10002D54FF4807010BD5F
:10468000010102D54FF4007010BD410102D54FF475
:10469000806010BDC10102D54FF4006010BD010261
:1046A00002D54FF4805010BD410202D54FF40050A6
:1046B00010BD810202D54FF4804010BDC10202D569
:1046C0004FF4004010BD410302D54FF4003010BD3F
:1046D000810302D54FF4802010BDC10302D54FF4F1
:1046E000002010BD010402D54FF4801010BD41041C
:1046F00002D54FF4001010BD810402D54FF48000A4
:1047000010BD000702D54FF4000010BD4FF48030FB
:1047100010BD00002800002008E0FFFD12494FF402
:10472000FA520968B1FBF2F241F288314A43521E53
:1047300002D24FF000407047416B11F0450FF6D0A8
:104740000905F4D4416B490703D504218163084668
:104750007047416BC90703D0012181630846704748
:10476000C521816300207047280000200F494FF4C5
:10477000FA520968B1FBF2F241F288314A43521E03
:1047800002D24FF000407047416B11F0450FF6D058
:104790000905F4D4416B490703D504218163084618
:1047A0007047C52181630020704700002800002069
:1047B00030B5204B4FF4FA541B68B3FBF4F441F2CC
:1047C00088335C43641E02D24FF0004030BD436B1F
:1047D00013F0450FF6D01B05F4D4436B5B0703D5EC
:1047E00004218163084630BD436BDB0702D0012101
:1047F000816303E00369DBB28B4201D0012030BD4D
:10480000C5218163002100F047F810F4604F04D007
:10481000410406D54FF4005030BD000C108000203C
:1048200030BD000402D54FF4805030BD4FF48030CD
:1048300030BD00002800002014494FF4FA520968E6
:10484000B1FBF2F241F288314A43521E02D24FF0DC
:1048500000407047416B11F0450FF6D00905F4D4C4
:10486000416B490703D50421816308467047416BBA
:10487000C90703D00121816308467047416B49068F
:1048800001D54021816300207047000028000020EE
:10489000006800F00300704708444069704770B535
:1048A0000DF1100C19439CE870002C432143314357
:1048B0001143426847F6FF639A430A43426000206F
:1048C00070BD10B5032101600220FBF7AFFF00208F
:1048D00010BDD0F8800070470A688260D1E90123DA
:1048E0001A43D1E903310B43C1681A436FF30B013B
:1048F0001143C160002070470968C0F88010002093
:104900007047000010B5064C01202070FBF7A0FD99
:1049100018B9207820F001002070207810BD000028
:104920008801002010B5846A40F23A5021688863FB
:104930002046FDF71DF9012184F834100021216380
:10494000062801D0052805D12068FFF7FBFDA16BE3
:104950000843A063A06B0028204602D0FDF728F88A
:1049600010BDFDF721F810BD10B5846A40F23A5031
:10497000216888632046FDF7FBF8012184F8341094
:1049800000212163062801D0052805D12068FFF702
:10499000D9FDA16B0843A063A06B0028204602D07C
:1049A000FDF706F810BDFCF7FFFF10BD10B590B085
:1049B00004460120ADF838002068FFF769FF0028A1
:1049C00054D0606C032842D02068FFF75FFD0028B8
:1049D0004AD100212068FFF75FFF6067042120684B
:1049E000FFF75AFFA06708212068FFF755FFE0672F
:1049F0000C212068FFF750FFC4F88000606C03288A
:104A000025D00EA92068FFF784FD00282CD1606C0A
:104A100003281CD0BDF83800206501042068FFF78A
:104A20004AFD002820D100212068FFF735FF60668D
:104A300004212068FFF730FFA06608212068FFF7F7
:104A40002BFFE0660C212068FFF726FF206704217A
:104A50002068FFF721FF000DE06403A92046FCF762
:104A6000A9FF30B14FF0805010B010BD4FF0806002
:104A7000FAE7B4F85000002302042068FFF7EDFCC9
:104A80000028F1D104F1100007C88DE8070094E870
:104A90000F00FFF704FF0020E6E700002DE9F84FC4
:104AA000002604460096374635460068FFF766FC48
:104AB000002827D12068FFF789FC4FF0805B4FF07A
:104AC00001094FF6FF7848B1A6642068FFF756FC4D
:104AD000002817D1A06C012802D01FE0C4F848902C
:104AE00000212068FFF700FC58B917E0002120687A
:104AF000FFF7FAFB002805D151462068FFF70CFCB0
:104B000010B1584600F020B800212068FFF7C4FE1D
:104B10000746C50F0098401C009001E0DFF824A074
:104B20000099414501D2002DE0D0414502D34FF01C
:104B30008070E7E7780002D5C4F8449000E066642E
:104B40000020DFE7000010C118BCBDE8E08F0000C6
:104B500070B5064C054601202070FBF785FC18B99E
:104B60002846FFF7CFFE2070207870BD8801002016
:104B700010B5124888B014460078C00702D0032050
:104B800008B010BDC1B1012905D0022908D0032900
:104B90000CD00420F4E76846FBF754FC06980AE0C2
:104BA0006846FBF74FFC0798208005E06846FBF756
:104BB00049FC0798400A20600020E1E788010020B6
:104BC00070B51D46164608460124A31E2A463146E6
:104BD000FBF760FC20B9FBF73BFC0028FBD100246D
:104BE000204670BDFFF78EBE70B51D4616460846BE
:104BF0000124A31E2A463146FBF75EFC20B9FBF7D1
:104C000027FC0028FBD10024204670BD0148FDF799
:104C10005FBB0000F803002010B5806A0021A0F8F7
:104C20004610C187FDF753FB10BD7047064800686A
:104C300008B102F02FBC0548D0E90012491C42F12E
:104C40000002C0E90012704798000020A800002070
:104C50002DE9F041AEB0442117A8FBF783FB1421E6
:104C600028A8FBF77FFB5C216846FBF77BFB01254F
:104C70002804CDE9175002240326CDE92146072751
:104C8000CDE9257414202794CDE9235017A8FCF70B
:104C9000DFFB08B172B6FEE70F204FF00008CDE948
:104CA0002806CDF8A880CDF8AC80042128A8CDF83E
:104CB000B080FCF7A1FA08B172B6FEE71148009087
:104CC000CDF820804FF0806012900820CDE902508E
:104CD000CDF82C8001964004CDE90640CDE904745E
:104CE0006846FCF72FF908B172B6FEE74FF4007082
:104CF000FBF73EFF002801D072B6FEE72EB0BDE8FC
:104D0000F0810000210008000248016841F47001B0
:104D10000160704788ED00E010B50448FDF795FC90
:104D2000BDE81040012001F061B90000A40400209A
:104D3000F0B50268164C4FF08047A04201D0B8424F
:104D400003D122F070034A681A43124D124EA0425A
:104D500005D0B84203D0A84201D0B04203D122F41A
:104D60004073CA681A434B6922F080021A430260FA
:104D70008A68C2620A688262A04203D0A84201D057
:104D8000B04201D10969016301214161F0BD000018
:104D9000002C0140004001400044014090F82410E4
:104DA000C90706D001684A68836A22F400321A43B0
:104DB0004A6090F82410890706D501684A68C36ADA
:104DC00022F480321A434A6090F82410490706D52D
:104DD00001684A68036B22F480221A434A6090F803
:104DE0002410090706D501684A68436B22F4004283
:104DF0001A434A6090F82410C90606D501688A68EB
:104E0000836B22F480521A438A6090F8241089063A
:104E100006D501688A68C36B22F400521A438A607F
:104E200090F82410490611D501684A68036C22F4F1
:104E300080121A434A60016CB1F5801F06D10168E7
:104E40004A68436C22F4C0021A434A6090F8241066
:104E5000090606D501684A68806C22F400220243E4
:104E60004A607047F8B500250446C0F88050FBF74B
:104E7000D1FD0746206800686FF07E46000708D520
:104E80003B4600224FF400112046009600F03EFA07
:104E900060B92068006840070AD53B4600224FF4FD
:104EA00080012046009600F031FA08B10320F8BDD9
:104EB0002020A067E067256684F874500020F8BDC4
:104EC00010B5806A0021A0F85A10A0F85210FDF722
:104ED0008EFC10BD70B5846AA06FE56F216889688B
:104EE0004FF00006090606D5212804D1A4F8526027
:104EF000204600F0AEF820688068400606D5222DD6
:104F000004D1A4F85A60204600F07EF8D4F880005E
:104F100040F01000C4F880002046FDF768FC70BD2A
:104F200010B50146806A0968096889062DD40021F8
:104F3000A0F85A10016851E8002F22F4807241E86D
:104F40000023002BF6D10168083151E8002F22F030
:104F5000010241E80023002BF5D10168083151E836
:104F6000002F22F0400241E80023002BF5D1202140
:104F7000C167016E012908D1016851E8002F22F0B4
:104F8000100241E80023002BF6D1016E012902D066
:104F9000FDF782FE10BDB0F85810FDF726FC10BDDD
:104FA00010B5806A016E012902D0FDF783FE10BDA5
:104FB000B0F858104908FDF718FC10BD10B50146AF
:104FC000806A09680968890616D40021A0F8521081
:104FD0000168083151E8002F22F0800241E80023E7
:104FE000002BF5D1016851E8002F42F0400241E862
:104FF0000023002BF6D110BDFDF7AEFE10BD10B59D
:10500000806AFDF7B7FE10BD016851E8002F22F459
:10501000907241E80023002BF6D10168083151E875
:10502000002F22F0010241E80023002BF5D1016E90
:10503000012908D1016851E8002F22F0100241E84F
:105040000023002BF6D12021C167002101664166B3
:105050007047016851E8002F22F0C00241E80023A8
:10506000002BF6D120218167704700002DE9F04127
:10507000044600682369A168E6691943636900254D
:1050800033431943704A0368704E33400B43036047
:1050900020684168E36821F4405119434160216868
:1050A000A069914201D0236A18438B6823F43063CE
:1050B00003438B60664B2168664899420DD1D0F856
:1050C000880010F0030006D0012845D0022833D014
:1050D000032830D142E001202EE05F4B99420BD1F2
:1050E000D0F8880010F00C0026D0042824D008281E
:1050F00030D00C281FD131E0584B99420BD1D0F859
:10510000880010F0300017D0102825D0202821D09A
:10511000302810D122E091420DD1D0F8880010F44F
:10512000406009D0B0F5806F16D0B0F5006F11D097
:10513000B0F5406F12D01020494B00264FF4004CC0
:1051400091422ED160B1022813D004280BD0082838
:1051500072D10DE00220EFE70420EDE70820EBE735
:10516000FCF700F901E0FCF721F9030001D164E04C
:105170006346626802EB420098425DD8B3EB023F9F
:105180005AD8190E1B025008181871410023FBF75A
:105190009CF8344AA0F5407191424DD82168C8600E
:1051A0004BE0E1694FF6EF77614527D1092843D2FB
:1051B000DFE800F0050811420D4242421000FCF702
:1051C000D1F801E0FCF7E0F8030004D135E0FCF78A
:1051D000EDF8F9E763466068590001EB5001B1FB57
:1051E000F0F0A0F11001B94226D84FF6F07101405D
:1051F000C0F3420001432068C1601EE009281BD2B1
:10520000DFE800F00508111A0D1A1A1A1000FCF751
:10521000A9F801E0FCF7B8F8030004D10DE0FCF7B1
:10522000C5F8F9E76346606803EB5001B1FBF0F0A5
:10523000A0F11001B94205D9012566662846A66687
:10524000BDE8F08180B2A9E700800040F369FFEF7C
:105250000038014000100240004400400048004077
:105260000024F400FFFC0F0070B54165A0F8582041
:1052700000250446C0F880502220E067206FD8B196
:105280001F49C162216F1F4813460863216F1E48E2
:105290004863206F8563666D216832462431206F34
:1052A000FBF78CFA40B11020C4F8800004F8745F5A
:1052B0002020A060012070BD84F87450206940B1A6
:1052C000206850E8001F41F4807140E80012002A75
:1052D000F6D12068083050E8001F41F0010140E895
:1052E0000012002AF5D12068083050E8001F41F074
:1052F000400140E80012002AF5D1002070BD0000F6
:10530000214F0008A14F0008D54E00082DE9F047B5
:105310001F4690460E4604464FF0000A4FF0200903
:10532000089D49E0681C47D0FBF774FBC01BA842EE
:105330002AD84DB32068016849073DD5C069C043EC
:10534000000539D421684FF400600862206850E8F5
:10535000001F21F4D07140E80012002AF6D1206825
:10536000083050E8001F21F0010140E80012002A37
:10537000F5D1C4F87890C4F87C90C4F8809084F893
:1053800074A00320BDE8F087206850E8001F21F4D6
:10539000D07140E80012002AF6D12068083050E8A9
:1053A000001F21F0010140E80012002AF5D1C4F8E5
:1053B0007890C4F87C90E2E72068C06936EA000083
:1053C00004D000204045ADD00020DBE70120F9E704
:1053D0000148FDF70DBA000018020020FEE70000AA
:1053E0000FB4054B10B503A9044A029800F03CF82D
:1053F00010BC5DF814FB0000395E0008900100202D
:105400000FB4084B10B504A902AA039800F02CF8B9
:10541000044602A9002000F055FA204610BC5DF8B1
:1054200014FB0000C55800080907090E002804DB1A
:1054300000F1E02080F80014704700F00F0000F148
:10544000E02080F8141D704702E008C8121F08C150
:10545000002AFAD170477047002001E001C1121FF5
:10546000002AFBD1704700002DE9FF4F8DB00F4699
:105470000546002606E025280BD0DDE90F129047EF
:105480006D1C761C28780028F5D111B0304600F04C
:10549000EDB90024A246A1460122E94900E00443F7
:1054A00015F8013F203B02FA03F00842F7D12878B3
:1054B0002A2810D06FF02F022878A0F13001092996
:1054C00014D80AEB8A0102EB410144F0020400EB1C
:1054D000010A6D1CF0E701CF5FEA000A03D544F42E
:1054E0000054CAF1000A44F002046D1C28782E28EA
:1054F00017D115F8010F44F004042A280ED06FF0DC
:105500002F022878A0F1300109290AD809EB890176
:1055100002EB410100EB01096D1CF2E757F8049B17
:105520006D1C28786C280FD006DC4C2817D0682812
:105530000DD06A2814D104E0742810D07A280FD135
:105540000DE044F400140AE044F4801401E044F453
:1055500040146978814202D104F580146D1C6D1CE1
:1055600028786E281ED00CDC632830D004DC00289C
:105570008BD0582811D19FE0642867D069280CD1BE
:1055800064E073282DD004DC6F2872D0702804D119
:1055900094E075286ED078286DD0DDE90F12904721
:1055A000761C4BE1C4F30250022806D0032809D030
:1055B000042801CF09D0066040E101CFF117C0E90E
:1055C00000613BE101CF068038E1067036E117F853
:1055D000040B8DF8000000208DF80100EB4601203F
:1055E00003E057F804BB4FF0FF3061074FF00001B4
:1055F00002D40DE008F10101884649450FDA8045E3
:10560000F8DB1BF808100029F4D108E008F10101CB
:1056100088468142FADB1BF808100029F6D1DDE943
:105620000F23AAEB08008146214600F034F93044EC
:1056300000EB080604E0DDE90F121BF8010B9047B0
:10564000B8F10108F7D221464846F2E00A21C4F336
:1056500002524FF0000B0891022A04D001CFC1176B
:10566000032A09D00AE0FF1D27F00707F7E8020127
:1056700008E02CE01EE01FE000B2C117042A01D1AF
:1056800040B2C117021E71F1000206DA0023D0EB0E
:10569000030063EB01012D2202E0220504D52B2239
:1056A0008DF82420012203E0E20701D02022F7E751
:1056B000904653E00A210BE0102109E010214FF041
:1056C000000B44F004044FF00809089103E008219E
:1056D0004FF0000B0891C4F30252022A04D001CF0C
:1056E0000021032A06D006E0FF1D27F00707F7E890
:1056F000020103E080B2042A00D1C0B24FF00008DA
:1057000022072BD52A78702A07D0DDF820C08CF02C
:10571000100C5CEA0B0C05D00EE040228DF8242022
:10572000012208E050EA010306D030238DF824302E
:105730008DF8252002229046089B83F0080353EA47
:105740000B030BD150EA010201D1620706D53022CA
:105750008DF824204FF00108A9F101092A78582A70
:1057600004D038A20B9208AA0A920BE03AA2F9E7F9
:105770005B46089AFAF7A9FD0B9B9B5C0A9A521E9E
:105780000A92137050EA0102F2D10A98ADEB0000C0
:1057900000F1200B600702D524F4803401E04FF0C3
:1057A0000109D94502DDA9EB0B0000E0002000EB68
:1057B0000B0141440890AAEB010AE00306D4DDE99D
:1057C0000F232146504600F066F806444FF00009CA
:1057D00008E009A911F80900DDE90F12904709F165
:1057E0000109761CC145F4DBE0030CD5DDE90F238C
:1057F0002146504600F04FF8064404E0DDE90F1260
:1058000030209047761C0899481E08900029F5DC46
:1058100008E00A980A990078491C0A91DDE90F12FC
:105820009047761CBBF10001ABF1010BF1DC214686
:105830005046DDE90F2300F01CF806446D1C21E6FC
:105840000928010030313233343536373839616256
:10585000636465660000000030313233343536371A
:1058600038394142434445460000000030BCBDE8A1
:10587000C08F2DE9F041044600251E4617468804D6
:1058800004D405E039462020B0476D1C641EF9D5CC
:105890002846BDE8F0812DE9F041044600251E466A
:1058A0009046C80301D5302700E02027880404D59E
:1058B00005E041463846B0476D1C641EF9D52846C0
:1058C000BDE8F0810A68531C0B601070704700003F
:1058D00030B50022054C05E02368521C13F8015B2B
:1058E000057023608A42F7DB084630BD8401002042
:1058F00000B58DB034216846FAF734FD05A309A23E
:105900000CA16846FFF77CFD10A1684600F068FA1C
:105910000DB000BD786A3135383535303635323026
:105920003300000054502D4C494E4B5F363636360E
:105930000000000041542B43574A41503D2225733B
:10594000222C222573220D0A0000000057494649E7
:1059500020434F4E4E45435445440D0A574946494E
:1059600020474F542049500D0A0D0A4F4B0D0A0095
:1059700010B551A0FFF734FD002154A000F030FA1B
:10598000322000F0F5FB53A0FFF72AFD56A158A0E6
:1059900000F026FA010002D057A0FFF721FD3220C7
:1059A00000F0E6FB59A0FFF71BFD4FA15CA000F043
:1059B00017FA010002D05EA0FFF712FD322000F0BE
:1059C000D7FB62A0FFF70CFD002165A000F008FAEC
:1059D00040F6B834204600F0CBFB64A0FFF700FD92
:1059E00035A0FFF7FDFC002138A000F0F9F93220C6
:1059F00000F0BEFB60A0FFF7F3FC3BA166A000F047
:105A0000EFF9010002D069A0FFF7EAFC6FA0FFF7F1
:105A1000E7FCFFF76DFF010003D071A0FFF7E0FC8A
:105A200002E076A0FFF7DCFC204600F0A1FB2EA1EF
:105A300077A000F0D5F9010003D079A0FFF7D0FCE2
:105A400002E07EA0FFF7CCFC27A180A000F0C8F9FF
:105A5000010003D081A0FFF7C3FC02E086A0FFF79E
:105A6000BFFC89A0FFF7BCFC00F074F9010003D073
:105A70008BA0FFF7B5FC02E092A0FFF7B1FC1AA1E2
:105A800094A000F0ADF9010003D096A0FFF7A8FCA8
:105A900002E09BA0FFF7A4FC13A19EA000F0A0F9D8
:105AA000010003D09FA0FFF79BFC02E0A4A0FFF73A
:105AB00097FC002010BD0000436C6F736520746874
:105AC00065206563686F210D0A0000004154453070
:105AD0000D0A00004D6F6E69746F72206F6E6C69F5
